{
  "abi": [
    {
      "anonymous": false,
      "inputs": [
        {
          "indexed": true,
          "internalType": "address",
          "name": "controller",
          "type": "address"
        },
        {
          "indexed": false,
          "internalType": "bool",
          "name": "active",
          "type": "bool"
        }
      ],
      "name": "ControllerChanged",
      "type": "event"
    },
    {
      "anonymous": false,
      "inputs": [
        {
          "indexed": true,
          "internalType": "address",
          "name": "previousOwner",
          "type": "address"
        },
        {
          "indexed": true,
          "internalType": "address",
          "name": "newOwner",
          "type": "address"
        }
      ],
      "name": "OwnershipTransferred",
      "type": "event"
    },
    {
      "inputs": [
        {
          "internalType": "address",
          "name": "",
          "type": "address"
        }
      ],
      "name": "controllers",
      "outputs": [
        {
          "internalType": "bool",
          "name": "",
          "type": "bool"
        }
      ],
      "stateMutability": "view",
      "type": "function"
    },
    {
      "inputs": [],
      "name": "owner",
      "outputs": [
        {
          "internalType": "address",
          "name": "",
          "type": "address"
        }
      ],
      "stateMutability": "view",
      "type": "function"
    },
    {
      "inputs": [],
      "name": "renounceOwnership",
      "outputs": [],
      "stateMutability": "nonpayable",
      "type": "function"
    },
    {
      "inputs": [
        {
          "internalType": "address",
          "name": "controller",
          "type": "address"
        },
        {
          "internalType": "bool",
          "name": "active",
          "type": "bool"
        }
      ],
      "name": "setController",
      "outputs": [],
      "stateMutability": "nonpayable",
      "type": "function"
    },
    {
      "inputs": [
        {
          "internalType": "address",
          "name": "newOwner",
          "type": "address"
        }
      ],
      "name": "transferOwnership",
      "outputs": [],
      "stateMutability": "nonpayable",
      "type": "function"
    }
  ],
  "bytecode": {
    "object": "0x6080806040523461005b5760008054336001600160a01b0319821681178355916001600160a01b03909116907f8be0079c531659141344cd1fd0a4f28419497f9722a3daafe3b4186f6b6457e09080a361030490816100618239f35b600080fdfe604060808152600436101561001357600080fd5b600090813560e01c8063715018a6146101fe5780638da5cb5b146101d7578063da8c229e1461019a578063e0dba60f146101195763f2fde38b1461005657600080fd5b346101155760203660031901126101155761006f61025b565b610077610276565b6001600160a01b039081169182156100c3575082546001600160a01b0319811683178455167f8be0079c531659141344cd1fd0a4f28419497f9722a3daafe3b4186f6b6457e08380a380f35b5162461bcd60e51b815260206004820152602660248201527f4f776e61626c653a206e6577206f776e657220697320746865207a65726f206160448201526564647265737360d01b6064820152608490fd5b5080fd5b503461011557806003193601126101155761013261025b565b60243590811515809203610196577f4c97694570a07277810af7e5669ffd5f6a2d6b74b6e9a274b8b870fd5114cf879160209161016d610276565b6001600160a01b031680865260018352848620805460ff191660ff84161790559351908152a280f35b8380fd5b50346101155760203660031901126101155760209160ff9082906001600160a01b036101c461025b565b1681526001855220541690519015158152f35b5034610115578160031936011261011557905490516001600160a01b039091168152602090f35b8234610258578060031936011261025857610217610276565b80546001600160a01b03198116825581906001600160a01b03167f8be0079c531659141344cd1fd0a4f28419497f9722a3daafe3b4186f6b6457e08280a380f35b80fd5b600435906001600160a01b038216820361027157565b600080fd5b6000546001600160a01b0316330361028a57565b606460405162461bcd60e51b815260206004820152602060248201527f4f776e61626c653a2063616c6c6572206973206e6f7420746865206f776e65726044820152fdfea264697066735822122030b97bf12257fa7db7247bbbc5bdcabe25c669131e9e764c1a38f3c73fb6879b64736f6c63430008110033",
    "linkReferences": {}
  },
  "methodIdentifiers": {
    "controllers(address)": "da8c229e",
    "owner()": "8da5cb5b",
    "renounceOwnership()": "715018a6",
    "setController(address,bool)": "e0dba60f",
    "transferOwnership(address)": "f2fde38b"
  },
  "id": 37
}