{
  "abi": [
    {
      "inputs": [
        {
          "internalType": "bytes",
          "name": "initCode",
          "type": "bytes"
        }
      ],
      "name": "createSender",
      "outputs": [
        {
          "internalType": "address",
          "name": "sender",
          "type": "address"
        }
      ],
      "stateMutability": "nonpayable",
      "type": "function"
    }
  ],
  "bytecode": {
    "object": "0x6080806040523461001657610190908161001c8239f35b600080fdfe6080604052600436101561001257600080fd5b6000803560e01c63570e1a361461002857600080fd5b3461009e57602036600319011261009e5760043567ffffffffffffffff9182821161009e573660238301121561009e57816004013592831161009e57366024848401011161009e5761009a61008084602485016100b8565b6040516001600160a01b0390911681529081906020820190565b0390f35b80fd5b50634e487b7160e01b600052604160045260246000fd5b908060141161013b5767ffffffffffffffff91601319820183811161014d575b60405193600b8401601f19908116603f0116850190811185821017610140575b6040528084526020840190368484011161013b576020946000600c819682946014880187378301015251923560601c5af190600051911561013557565b60009150565b600080fd5b6101486100a1565b6100f8565b6101556100a1565b6100d856fea26469706673582212206f0094f77493d633321c166340c069622c80264c6536c73ec6abd333bd60bc6464736f6c63430008110033",
    "linkReferences": {}
  },
  "methodIdentifiers": {
    "createSender(bytes)": "570e1a36"
  },
  "id": 5
}