{
  "abi": [
    {
      "anonymous": false,
      "inputs": [
        {
          "indexed": true,
          "internalType": "address",
          "name": "previousOwner",
          "type": "address"
        },
        {
          "indexed": true,
          "internalType": "address",
          "name": "newOwner",
          "type": "address"
        }
      ],
      "name": "OwnershipTransferred",
      "type": "event"
    },
    {
      "inputs": [],
      "name": "owner",
      "outputs": [
        {
          "internalType": "address",
          "name": "",
          "type": "address"
        }
      ],
      "stateMutability": "view",
      "type": "function"
    },
    {
      "inputs": [
        {
          "internalType": "address",
          "name": "_token",
          "type": "address"
        },
        {
          "internalType": "address",
          "name": "_to",
          "type": "address"
        },
        {
          "internalType": "uint256",
          "name": "_amount",
          "type": "uint256"
        }
      ],
      "name": "recoverFunds",
      "outputs": [],
      "stateMutability": "nonpayable",
      "type": "function"
    },
    {
      "inputs": [],
      "name": "renounceOwnership",
      "outputs": [],
      "stateMutability": "nonpayable",
      "type": "function"
    },
    {
      "inputs": [
        {
          "internalType": "address",
          "name": "newOwner",
          "type": "address"
        }
      ],
      "name": "transferOwnership",
      "outputs": [],
      "stateMutability": "nonpayable",
      "type": "function"
    }
  ],
  "bytecode": {
    "object": "0x6080806040523461005b5760008054336001600160a01b0319821681178355916001600160a01b03909116907f8be0079c531659141344cd1fd0a4f28419497f9722a3daafe3b4186f6b6457e09080a361031a90816100618239f35b600080fdfe604060808152600436101561001357600080fd5b600090813560e01c80635d3590d514610192578063715018a6146101355780638da5cb5b1461010e5763f2fde38b1461004b57600080fd5b3461010a57602036600319011261010a57610064610271565b61006c61028c565b6001600160a01b039081169182156100b8575082546001600160a01b0319811683178455167f8be0079c531659141344cd1fd0a4f28419497f9722a3daafe3b4186f6b6457e08380a380f35b5162461bcd60e51b815260206004820152602660248201527f4f776e61626c653a206e6577206f776e657220697320746865207a65726f206160448201526564647265737360d01b6064820152608490fd5b5080fd5b503461010a578160031936011261010a57905490516001600160a01b039091168152602090f35b823461018f578060031936011261018f5761014e61028c565b80546001600160a01b03198116825581906001600160a01b03167f8be0079c531659141344cd1fd0a4f28419497f9722a3daafe3b4186f6b6457e08280a380f35b80fd5b503461010a57606036600319011261010a576101ac610271565b6001600160a01b039190602435838116919082900361026d5760446020926101d261028c565b868551968794859363a9059cbb60e01b8552600485015284356024850152165af1801561026357610201578280f35b6020903d821161025b575b601f8201601f191683019067ffffffffffffffff821184831017610247575260209082018290031261010a57518015150361018f5738808280f35b634e487b7160e01b85526041600452602485fd5b3d915061020c565b81513d85823e3d90fd5b8480fd5b600435906001600160a01b038216820361028757565b600080fd5b6000546001600160a01b031633036102a057565b606460405162461bcd60e51b815260206004820152602060248201527f4f776e61626c653a2063616c6c6572206973206e6f7420746865206f776e65726044820152fdfea264697066735822122042050046204b12c2f8549902c158b2a1030ab2e93a5520f3e9eceef4e4a1300664736f6c63430008110033",
    "linkReferences": {}
  },
  "methodIdentifiers": {
    "owner()": "8da5cb5b",
    "recoverFunds(address,address,uint256)": "5d3590d5",
    "renounceOwnership()": "715018a6",
    "transferOwnership(address)": "f2fde38b"
  },
  "id": 35
}