{
  "abi": [
    {
      "inputs": [
        {
          "internalType": "contract ENS",
          "name": "_ens",
          "type": "address"
        },
        {
          "internalType": "contract INameWrapper",
          "name": "wrapperAddress",
          "type": "address"
        },
        {
          "internalType": "address",
          "name": "_trustedBitController",
          "type": "address"
        },
        {
          "internalType": "address",
          "name": "_trustedReverseRegistrar",
          "type": "address"
        }
      ],
      "stateMutability": "nonpayable",
      "type": "constructor"
    },
    {
      "anonymous": false,
      "inputs": [
        {
          "indexed": true,
          "internalType": "bytes32",
          "name": "node",
          "type": "bytes32"
        },
        {
          "indexed": false,
          "internalType": "address",
          "name": "a",
          "type": "address"
        }
      ],
      "name": "AddrChanged",
      "type": "event"
    },
    {
      "anonymous": false,
      "inputs": [
        {
          "indexed": true,
          "internalType": "bytes32",
          "name": "node",
          "type": "bytes32"
        },
        {
          "indexed": false,
          "internalType": "uint256",
          "name": "coinType",
          "type": "uint256"
        },
        {
          "indexed": false,
          "internalType": "bytes",
          "name": "newAddress",
          "type": "bytes"
        }
      ],
      "name": "AddressChanged",
      "type": "event"
    },
    {
      "anonymous": false,
      "inputs": [
        {
          "indexed": true,
          "internalType": "address",
          "name": "owner",
          "type": "address"
        },
        {
          "indexed": true,
          "internalType": "address",
          "name": "operator",
          "type": "address"
        },
        {
          "indexed": false,
          "internalType": "bool",
          "name": "approved",
          "type": "bool"
        }
      ],
      "name": "ApprovalForAll",
      "type": "event"
    },
    {
      "anonymous": false,
      "inputs": [
        {
          "indexed": false,
          "internalType": "address",
          "name": "owner",
          "type": "address"
        },
        {
          "indexed": true,
          "internalType": "bytes32",
          "name": "node",
          "type": "bytes32"
        },
        {
          "indexed": true,
          "internalType": "address",
          "name": "delegate",
          "type": "address"
        },
        {
          "indexed": true,
          "internalType": "bool",
          "name": "approved",
          "type": "bool"
        }
      ],
      "name": "Approved",
      "type": "event"
    },
    {
      "anonymous": false,
      "inputs": [
        {
          "indexed": true,
          "internalType": "bytes32",
          "name": "node",
          "type": "bytes32"
        },
        {
          "indexed": false,
          "internalType": "string",
          "name": "name",
          "type": "string"
        }
      ],
      "name": "NameChanged",
      "type": "event"
    },
    {
      "anonymous": false,
      "inputs": [
        {
          "indexed": true,
          "internalType": "bytes32",
          "name": "node",
          "type": "bytes32"
        },
        {
          "indexed": false,
          "internalType": "uint64",
          "name": "newVersion",
          "type": "uint64"
        }
      ],
      "name": "VersionChanged",
      "type": "event"
    },
    {
      "inputs": [
        {
          "internalType": "bytes32",
          "name": "node",
          "type": "bytes32"
        }
      ],
      "name": "addr",
      "outputs": [
        {
          "internalType": "address payable",
          "name": "",
          "type": "address"
        }
      ],
      "stateMutability": "view",
      "type": "function"
    },
    {
      "inputs": [
        {
          "internalType": "bytes32",
          "name": "node",
          "type": "bytes32"
        },
        {
          "internalType": "uint256",
          "name": "coinType",
          "type": "uint256"
        }
      ],
      "name": "addr",
      "outputs": [
        {
          "internalType": "bytes",
          "name": "",
          "type": "bytes"
        }
      ],
      "stateMutability": "view",
      "type": "function"
    },
    {
      "inputs": [
        {
          "internalType": "bytes32",
          "name": "node",
          "type": "bytes32"
        },
        {
          "internalType": "address",
          "name": "delegate",
          "type": "address"
        },
        {
          "internalType": "bool",
          "name": "approved",
          "type": "bool"
        }
      ],
      "name": "approve",
      "outputs": [],
      "stateMutability": "nonpayable",
      "type": "function"
    },
    {
      "inputs": [
        {
          "internalType": "bytes32",
          "name": "node",
          "type": "bytes32"
        }
      ],
      "name": "clearRecords",
      "outputs": [],
      "stateMutability": "nonpayable",
      "type": "function"
    },
    {
      "inputs": [
        {
          "internalType": "address",
          "name": "owner",
          "type": "address"
        },
        {
          "internalType": "bytes32",
          "name": "node",
          "type": "bytes32"
        },
        {
          "internalType": "address",
          "name": "delegate",
          "type": "address"
        }
      ],
      "name": "isApprovedFor",
      "outputs": [
        {
          "internalType": "bool",
          "name": "",
          "type": "bool"
        }
      ],
      "stateMutability": "view",
      "type": "function"
    },
    {
      "inputs": [
        {
          "internalType": "address",
          "name": "account",
          "type": "address"
        },
        {
          "internalType": "address",
          "name": "operator",
          "type": "address"
        }
      ],
      "name": "isApprovedForAll",
      "outputs": [
        {
          "internalType": "bool",
          "name": "",
          "type": "bool"
        }
      ],
      "stateMutability": "view",
      "type": "function"
    },
    {
      "inputs": [
        {
          "internalType": "bytes[]",
          "name": "data",
          "type": "bytes[]"
        }
      ],
      "name": "multicall",
      "outputs": [
        {
          "internalType": "bytes[]",
          "name": "results",
          "type": "bytes[]"
        }
      ],
      "stateMutability": "nonpayable",
      "type": "function"
    },
    {
      "inputs": [
        {
          "internalType": "bytes32",
          "name": "nodehash",
          "type": "bytes32"
        },
        {
          "internalType": "bytes[]",
          "name": "data",
          "type": "bytes[]"
        }
      ],
      "name": "multicallWithNodeCheck",
      "outputs": [
        {
          "internalType": "bytes[]",
          "name": "results",
          "type": "bytes[]"
        }
      ],
      "stateMutability": "nonpayable",
      "type": "function"
    },
    {
      "inputs": [
        {
          "internalType": "bytes32",
          "name": "node",
          "type": "bytes32"
        }
      ],
      "name": "name",
      "outputs": [
        {
          "internalType": "string",
          "name": "",
          "type": "string"
        }
      ],
      "stateMutability": "view",
      "type": "function"
    },
    {
      "inputs": [
        {
          "internalType": "bytes32",
          "name": "",
          "type": "bytes32"
        }
      ],
      "name": "recordVersions",
      "outputs": [
        {
          "internalType": "uint64",
          "name": "",
          "type": "uint64"
        }
      ],
      "stateMutability": "view",
      "type": "function"
    },
    {
      "inputs": [
        {
          "internalType": "bytes32",
          "name": "node",
          "type": "bytes32"
        },
        {
          "internalType": "uint256",
          "name": "coinType",
          "type": "uint256"
        },
        {
          "internalType": "bytes",
          "name": "a",
          "type": "bytes"
        }
      ],
      "name": "setAddr",
      "outputs": [],
      "stateMutability": "nonpayable",
      "type": "function"
    },
    {
      "inputs": [
        {
          "internalType": "bytes32",
          "name": "node",
          "type": "bytes32"
        },
        {
          "internalType": "address",
          "name": "a",
          "type": "address"
        }
      ],
      "name": "setAddr",
      "outputs": [],
      "stateMutability": "nonpayable",
      "type": "function"
    },
    {
      "inputs": [
        {
          "internalType": "address",
          "name": "operator",
          "type": "address"
        },
        {
          "internalType": "bool",
          "name": "approved",
          "type": "bool"
        }
      ],
      "name": "setApprovalForAll",
      "outputs": [],
      "stateMutability": "nonpayable",
      "type": "function"
    },
    {
      "inputs": [
        {
          "internalType": "bytes32",
          "name": "node",
          "type": "bytes32"
        },
        {
          "internalType": "string",
          "name": "newName",
          "type": "string"
        }
      ],
      "name": "setName",
      "outputs": [],
      "stateMutability": "nonpayable",
      "type": "function"
    },
    {
      "inputs": [
        {
          "internalType": "bytes4",
          "name": "interfaceID",
          "type": "bytes4"
        }
      ],
      "name": "supportsInterface",
      "outputs": [
        {
          "internalType": "bool",
          "name": "",
          "type": "bool"
        }
      ],
      "stateMutability": "view",
      "type": "function"
    }
  ],
  "bytecode": {
    "object": "0x610100604090808252346200015757608081620017378038038091620000268285620001c1565b833981010312620001575780516001600160a01b038082169291838103620001575760208084015192808416840362000157576024826200007760606200006f8b8a01620001fb565b9801620001fb565b978951928380926302571be360e01b82527f91d1777781884d03a6757a803996e38de2a42967fb37eeaca72729271025a9e260048301525afa8015620001b65783916000916200016f575b508851630f41a04d60e11b81523360048201529283916024918391600091165af18015620001645762000130575b505060805260a05260c05260e05251611526908162000211823960805181611343015260a05181611379015260c051816112f8015260e051816114c90152f35b813d83116200015c575b620001468183620001c1565b8101031262000157573880620000f0565b600080fd5b503d6200013a565b87513d6000823e3d90fd5b9182813d8311620001ae575b620001878183620001c1565b81010312620001ab57506000916024620001a28593620001fb565b919350620000c2565b80fd5b503d6200017b565b88513d6000823e3d90fd5b601f909101601f19168101906001600160401b03821190821017620001e557604052565b634e487b7160e01b600052604160045260246000fd5b51906001600160a01b0382168203620001575756fe60806040526004361015610013575b600080fd5b60003560e01c806301ffc9a71461013f5780633603d758146101365780633b3b57de1461012d578063691f343114610124578063773722131461011b5780638b95dd7114610112578063a22cb46514610109578063a4b91a0114610100578063a9784b3e146100f7578063ac9650d8146100ee578063d5fa2b00146100e5578063d700ff33146100dc578063e32954eb146100d3578063e985e9c5146100ca5763f1cb7e06146100c257600080fd5b61000e610d13565b5061000e610cb6565b5061000e610ba3565b5061000e610b6d565b5061000e610a3b565b5061000e610955565b5061000e61084d565b5061000e610772565b5061000e61066e565b5061000e6105c4565b5061000e6103a0565b5061000e610335565b5061000e6102c4565b5061000e610209565b503461000e57602036600319011261000e5760043563ffffffff60e01b811680910361000e5761018e9063691f343160e01b8114908115610192575b5060405190151581529081906020820190565b0390f35b631d9dabef60e11b8114915081156101f8575b81156101b3575b503861017b565b63d700ff3360e01b8114915081156101cd575b50386101ac565b634fbf043360e01b8114915081156101e7575b50386101c6565b6301ffc9a760e01b149050386101e0565b6378e5bf0360e11b811491506101a5565b503461000e57602036600319011261000e57600435610227816112ed565b1561000e57600090808252816020527fc6621ccb8f3f5a04bb6502154b2caf6adf5983fe76dfef1cfc9c42e3579db4446102b1604084208054906001600160401b03918260018183168281146102b7575b0116906001600160401b03191617905583855284602052604085205416604051918291829190916001600160401b036020820193169052565b0390a280f35b6102bf610dad565b610278565b503461000e57602036600319011261000e5760206102e3600435610f44565b6040516001600160a01b039091168152f35b919082519283825260005b848110610321575050826000602080949584010152601f8019910116010190565b602081830181015184830182015201610300565b503461000e5760208060031936011261000e576103859061038c60406004356000908082528185526001600160401b038383205416825260028552828220908252845220604051938480926111fa565b0383610579565b61018e6040519282849384528301906102f5565b503461000e57604036600319011261000e576001600160401b036004356024803583811161000e573660238201121561000e57806004013584811161000e573683828401011161000e576103f3846112ed565b1561000e5760009484865260209086825260408720541686526002815260408620858752815260408620906104328361042c8454611096565b846110d0565b8690601f84116001146104a15750916102b19181867fb7d29e911041e8d9b843369e890bcb72c9388692ba48b65ac54e7214c4c348f79796958a92610494575b50508260011b906000198460031b1c19161790555b60405193849301836112a3565b8601013590508538610472565b90601f1984166104b684600052602060002090565b9289905b828210610520575050916102b19391857fb7d29e911041e8d9b843369e890bcb72c9388692ba48b65ac54e7214c4c348f79897969410610504575b5050600182811b019055610487565b8501860135600019600385901b60f8161c1916905538806104f5565b80600185968b8395978c01013581550195019301906104ba565b50634e487b7160e01b600052604160045260246000fd5b604081019081106001600160401b0382111761056c57604052565b61057461053a565b604052565b90601f801991011681019081106001600160401b0382111761056c57604052565b6020906001600160401b0381116105b7575b601f01601f19160190565b6105bf61053a565b6105ac565b503461000e57606036600319011261000e576044356001600160401b03811161000e573660238201121561000e5780600401356106008161059a565b9061060e6040519283610579565b808252366024828501011161000e57602081600092602461063d96018386013783010152602435600435610fad565b005b6001600160a01b0381160361000e57565b60243590811515820361000e57565b60443590811515820361000e57565b503461000e57604036600319011261000e5760043561068c8161063f565b610694610650565b6001600160a01b0382169133831461071b573360009081526003602052604090206106e99183916106d891905b9060018060a01b0316600052602052604060002090565b9060ff801983541691151516179055565b604051901515815233907f17307eab39ab6107e8899845ad3d59bd9653f200f220920489ca2b5937696c3190602090a3005b60405162461bcd60e51b815260206004820152602960248201527f455243313135353a2073657474696e6720617070726f76616c20737461747573604482015268103337b91039b2b63360b91b6064820152608490fd5b503461000e57606036600319011261000e576004356024356107938161063f565b61079b61065f565b916001600160a01b0382169133831461080957836106d86107d7923360005260046020526106c185604060002090600052602052604060002090565b604051338152921515927ff0ddb3b04746704017f9aa8bd728fcc2c1d11675041205350018915f5e4750a090602090a4005b606460405162461bcd60e51b815260206004820152602060248201527f53657474696e672064656c65676174652073746174757320666f722073656c666044820152fd5b503461000e57606036600319011261000e57602060ff6108b76004356108728161063f565b6044359061087f8261063f565b60018060a01b0316600052600484526040600020602435600052845260406000209060018060a01b0316600052602052604060002090565b54166040519015158152f35b9181601f8401121561000e578235916001600160401b03831161000e576020808501948460051b01011161000e57565b602080820190808352835180925260408301928160408460051b8301019501936000915b8483106109275750505050505090565b9091929394958480610945600193603f198682030187528a516102f5565b9801930193019194939290610917565b503461000e5760208060031936011261000e576004356001600160401b03811161000e576109879036906004016108c3565b9161099183610d87565b916040916109a183519485610579565b848452601f196109b086610d87565b0160005b818110610a2c5750505060005b8481106109d55782518061018e86826108f3565b806000806109e7610a27948987610df7565b906109f6885180938193610edd565b0390305af4610a0c610a06610eeb565b91610f1b565b610a168287610f22565b52610a218186610f22565b50610dc4565b6109c1565b606086820184015282016109b4565b503461000e5760408060031936011261000e57602435600435610a5d8261063f565b610a66816112ed565b1561000e57825191610a7783610551565b6014835260601b6020830152610a8c816112ed565b1561000e57610b5881610b496001600160401b0386610b68957f65412581168e88a1e60c6459d7f44ae83ad0832e670826c05a4e2476b57af75261063d9951603c815283602082015280610ae28582018c6102f5565b0390a2837f52d7d861f09ab3d26239d492e8968629f95e9e318cf0b73bfddc441522a15fd26020610b128a611290565b84516001600160a01b039091168152a283600052600060205260002054166001600160401b03166000526001602052604060002090565b90600052602052604060002090565b603c600052602052604060002090565b611124565b503461000e57602036600319011261000e57600435600052600060205260206001600160401b0360406000205416604051908152f35b503461000e5760408060031936011261000e576004356024356001600160401b03811161000e57610bd89036906004016108c3565b929091610be484610d87565b92610bf183519485610579565b848452601f19610c0086610d87565b0160005b818110610ca55750508115159160005b868110610c285784518061018e88826108f3565b610c749084610c79575b600080610c40838b88610df7565b90610c4f8a5180938193610edd565b0390305af4610c5f610a06610eeb565b610c698289610f22565b52610a218188610f22565b610c14565b610ca083610c9a610c94610c8e858d8a610df7565b90610e46565b90610e57565b14610e74565b610c32565b806060602080938901015201610c04565b503461000e57604036600319011261000e57602060ff6108b7600435610cdb8161063f565b60243590610ce88261063f565b60018060a01b03166000526003845260406000209060018060a01b0316600052602052604060002090565b503461000e5760408060031936011261000e57610d719061018e60043591610d788160008581526020958187526001600160401b038383205416825260018752828220908252865281812060243582528652208251958680926111fa565b0385610579565b519282849384528301906102f5565b6020906001600160401b038111610da0575b60051b0190565b610da861053a565b610d99565b50634e487b7160e01b600052601160045260246000fd5b6001906000198114610dd4570190565b610ddc610dad565b0190565b50634e487b7160e01b600052603260045260246000fd5b9190811015610e39575b60051b81013590601e198136030182121561000e5701908135916001600160401b03831161000e57602001823603811361000e579190565b610e41610de0565b610e01565b9060241161000e5760040190602090565b359060208110610e65575090565b6000199060200360031b1b1690565b15610e7b57565b60405162461bcd60e51b815260206004820152603460248201527f6d756c746963616c6c3a20416c6c207265636f726473206d7573742068617665604482015273040c240dac2e8c6d0d2dcce40dcc2dacad0c2e6d60631b6064820152608490fd5b908092918237016000815290565b3d15610f16573d90610efc8261059a565b91610f0a6040519384610579565b82523d6000602084013e565b606090565b1561000e57565b6020918151811015610f37575b60051b010190565b610f3f610de0565b610f2f565b600090808252816020526001600160401b03604083205416825260016020526040822090825260205260408120603c8252602052610f8e610f9560408320604051928380926111fa565b0382610579565b805115610fa957610fa69150611290565b90565b5090565b9190610fb8836112ed565b1561000e5761105292604091817f65412581168e88a1e60c6459d7f44ae83ad0832e670826c05a4e2476b57af752845183815285602082015280610ffe878201896102f5565b0390a2603c8114611054575b6000918083528260205261103d6001600160401b0385852054166001600160401b03166000526001602052604060002090565b90835260205282822090825260205220611124565b565b817f52d7d861f09ab3d26239d492e8968629f95e9e318cf0b73bfddc441522a15fd2602061108187611290565b86516001600160a01b039091168152a261100a565b90600182811c921680156110c6575b60208310146110b057565b634e487b7160e01b600052602260045260246000fd5b91607f16916110a5565b90601f81116110de57505050565b600091825260208220906020601f850160051c8301941061111a575b601f0160051c01915b82811061110f57505050565b818155600101611103565b90925082906110fa565b91909182516001600160401b0381116111ed575b6111468161042c8454611096565b602080601f8311600114611182575081929394600092611177575b50508160011b916000199060031b1c1916179055565b015190503880611161565b90601f1983169561119885600052602060002090565b926000905b8882106111d5575050836001959697106111bc575b505050811b019055565b015160001960f88460031b161c191690553880806111b2565b8060018596829496860151815501950193019061119d565b6111f561053a565b611138565b906000929180549161120b83611096565b91828252600193848116908160001461126d575060011461122d575b50505050565b90919394506000526020928360002092846000945b838610611259575050505001019038808080611227565b805485870183015294019385908201611242565b9294505050602093945060ff191683830152151560051b01019038808080611227565b601481510361000e576020015160601c90565b90918060409360208452816020850152848401376000828201840152601f01601f1916010190565b9081602091031261000e5751610fa68161063f565b506040513d6000823e3d90fd5b6001600160a01b03337f000000000000000000000000000000000000000000000000000000000000000082161480156114c5575b6114be576040516302571be360e01b81526004810183905290602080836024817f000000000000000000000000000000000000000000000000000000000000000086165afa9283156114b1575b600093611492575b507f000000000000000000000000000000000000000000000000000000000000000082168383168114611419575b5050811633149182156113ee575b82156113bd57505090565b610fa69250906106c16113e792610b49339360018060a01b03166000526004602052604060002090565b5460ff1690565b91506114136113e7336106c18460018060a01b03166000526003602052604060002090565b916113b2565b6040516331a9108f60e11b8152600481018690529293509091908290829060249082905afa918215611485575b600092611458575b50509038806113a4565b6114779250803d1061147e575b61146f8183610579565b8101906112cb565b388061144e565b503d611465565b61148d6112e0565b611446565b816114aa9294503d851161147e5761146f8183610579565b9138611376565b6114b96112e0565b61136e565b5050600190565b50807f000000000000000000000000000000000000000000000000000000000000000016331461132156fea26469706673582212203b510d8eb468ffcf24ddbbafdc448c8afff9966e7f9b5aad485be2c92dec253964736f6c63430008110033",
    "linkReferences": {}
  },
  "methodIdentifiers": {
    "addr(bytes32)": "3b3b57de",
    "addr(bytes32,uint256)": "f1cb7e06",
    "approve(bytes32,address,bool)": "a4b91a01",
    "clearRecords(bytes32)": "3603d758",
    "isApprovedFor(address,bytes32,address)": "a9784b3e",
    "isApprovedForAll(address,address)": "e985e9c5",
    "multicall(bytes[])": "ac9650d8",
    "multicallWithNodeCheck(bytes32,bytes[])": "e32954eb",
    "name(bytes32)": "691f3431",
    "recordVersions(bytes32)": "d700ff33",
    "setAddr(bytes32,address)": "d5fa2b00",
    "setAddr(bytes32,uint256,bytes)": "8b95dd71",
    "setApprovalForAll(address,bool)": "a22cb465",
    "setName(bytes32,string)": "77372213",
    "supportsInterface(bytes4)": "01ffc9a7"
  },
  "id": 108
}