{
  "abi": [
    {
      "inputs": [
        {
          "internalType": "address",
          "name": "txFrom",
          "type": "address"
        },
        {
          "internalType": "contract IERC20",
          "name": "token",
          "type": "IERC20"
        }
      ],
      "name": "checkAllowance",
      "outputs": [
        {
          "internalType": "uint256",
          "name": "",
          "type": "uint256"
        }
      ],
      "stateMutability": "view",
      "type": "function"
    },
    {
      "inputs": [
        {
          "internalType": "bytes",
          "name": "_payload",
          "type": "bytes"
        },
        {
          "internalType": "address",
          "name": "_to",
          "type": "address"
        }
      ],
      "name": "externalStaticcall",
      "outputs": [
        {
          "internalType": "uint256",
          "name": "",
          "type": "uint256"
        }
      ],
      "stateMutability": "view",
      "type": "function"
    },
    {
      "inputs": [
        {
          "internalType": "bytes",
          "name": "_partialSignature",
          "type": "bytes"
        }
      ],
      "name": "extractECDSASignature",
      "outputs": [
        {
          "internalType": "bytes",
          "name": "signature",
          "type": "bytes"
        }
      ],
      "stateMutability": "pure",
      "type": "function"
    },
    {
      "inputs": [
        {
          "internalType": "bytes",
          "name": "_fullSignature",
          "type": "bytes"
        }
      ],
      "name": "extractECDSASignatures",
      "outputs": [
        {
          "internalType": "bytes",
          "name": "signature1",
          "type": "bytes"
        },
        {
          "internalType": "bytes",
          "name": "signature2",
          "type": "bytes"
        }
      ],
      "stateMutability": "pure",
      "type": "function"
    },
    {
      "inputs": [
        {
          "internalType": "bytes",
          "name": "a",
          "type": "bytes"
        },
        {
          "internalType": "bytes",
          "name": "b",
          "type": "bytes"
        }
      ],
      "name": "strCompare",
      "outputs": [
        {
          "internalType": "bool",
          "name": "",
          "type": "bool"
        }
      ],
      "stateMutability": "pure",
      "type": "function"
    },
    {
      "inputs": [
        {
          "internalType": "bytes",
          "name": "signatures",
          "type": "bytes"
        }
      ],
      "name": "total",
      "outputs": [
        {
          "internalType": "uint256",
          "name": "",
          "type": "uint256"
        }
      ],
      "stateMutability": "pure",
      "type": "function"
    },
    {
      "inputs": [
        {
          "internalType": "bytes32[]",
          "name": "self",
          "type": "bytes32[]"
        },
        {
          "internalType": "bytes32",
          "name": "delegateNamehash",
          "type": "bytes32"
        }
      ],
      "name": "useDelegate",
      "outputs": [
        {
          "internalType": "bool",
          "name": "",
          "type": "bool"
        }
      ],
      "stateMutability": "pure",
      "type": "function"
    }
  ],
  "bytecode": {
    "object": "0x6080806040523461001c57610b7890816100228239308160070152f35b600080fdfe6080604052307f000000000000000000000000000000000000000000000000000000000000000014600436101561003557600080fd5b6000803560e01c9182630a19efd4146101385782632eb88c0d1461012d57826337c7641d1461012257826343ad35b31461011757826359069ac01461010c5782635c306e47146100fc57826367e1d0d4146100ec5782637b4f48fa146100e1578263d403c7d9146100ce5750508063e05bdbba146100c55763ebbe0247146100bd575b600080fd5b6100b861078d565b506100b861070e565b9091506100de57506100b86105f1565b80fd5b5050506100b8610586565b9091506100de57506100b8610570565b9091506100de57506100b8610546565b5050506100b861049a565b5050506100b86103e8565b5050506100b8610395565b5050506100b86102cb565b5050506100b86101be565b9181601f840112156100b85782359167ffffffffffffffff83116100b857602083818601950101116100b857565b6001600160a01b038116036100b857565b60406003198201126100b8576004359067ffffffffffffffff82116100b8576101ad91600401610143565b90916024356101bb81610171565b90565b5060206101d36101cd36610182565b9161085b565b604051908152f35b50634e487b7160e01b600052604160045260246000fd5b60a0810190811067ffffffffffffffff82111761020e57604052565b6102166101db565b604052565b6040810190811067ffffffffffffffff82111761020e57604052565b90601f8019910116810190811067ffffffffffffffff82111761020e57604052565b60209067ffffffffffffffff8111610277575b601f01601f19160190565b61027f6101db565b61026c565b81601f820112156100b85780359061029b82610259565b926102a96040519485610237565b828452602083830101116100b857816000926020809301838601378301015290565b5060403660031901126100b85767ffffffffffffffff6004358181116100b8576102f9903690600401610284565b6024359182116100b8576103136020923690600401610284565b908281519101209082815191012014604051908152f35b60206003198201126100b8576004359067ffffffffffffffff82116100b8576101bb91600401610284565b919082519283825260005b848110610381575050826000602080949584010152601f8019910116010190565b602081830181015184830182015201610360565b506103e46103a23661032a565b6103ac8151610abb565b9060208101519060ff604160408301519201511691602084015260408301526060820153604051918291602083526020830190610355565b0390f35b5060403660031901126100b85760043561040181610171565b602060243561040f81610171565b604051636eb1769f60e11b81526001600160a01b0393841660048201523060248201529283916044918391165afa801561048e576103e491600091610460575b506040519081529081906020820190565b610481915060203d8111610487575b6104798183610237565b81019061084c565b3861044f565b503d61046f565b6040513d6000823e3d90fd5b5060403660031901126100b85767ffffffffffffffff6004358181116100b857366023820112156100b8578060040135918211610539575b8160051b90604051916020936104ea85830185610237565b8352602484840191830101913683116100b857602401905b82821061052a576103e461051860243586610aed565b60405190151581529081906020820190565b81358152908401908401610502565b6105416101db565b6104d2565b506103e461055c61055636610182565b916108d9565b604051918291602083526020830190610355565b506103e461055c61058036610182565b9161093c565b5060403660031901126100b8576004356040519081908054808452602080940191600052836000209060005b858282106105dd576105d3866105ca81880382610237565b60243590610aed565b6040519015158152f35b8354855290930192600192830192016105b2565b5060803660031901126100b8576106cd6106b960043561061081610171565b6024359061061d82610171565b6000806064359361062d85610171565b6040519460208601946323b872dd60e01b865260018060a01b039283809216602489015216604487015260443560648701526064865261066c866101f2565b16926040519461067b8661021b565b602086527f5361666545524332303a206c6f772d6c6576656c2063616c6c206661696c65646020870152519082855af16106b361081c565b91610a1e565b80519081159182156106cf575b50506109bf565b005b6106e292506020809183010191016109a7565b38806106c6565b90916107006101bb93604084526040840190610355565b916020818403910152610355565b506107183661032a565b610725815160011c610abb565b610738610733835160011c90565b610abb565b916020810151604082015160ff6041840151169160208501526040840152606083015360618101519060ff6082608183015192015116916020850152604084015260608301536103e4604051928392836106e9565b5060203660031901126100b85760043567ffffffffffffffff81116100b8576107ba903690600401610143565b6040811491508115610811575b600091156107e257505060ff60015b60405191168152602090f35b60808114908115610806575b50156107fe575060ff60026107d6565b60ff906107d6565b6082915014386107ee565b6041811491506107c7565b3d15610847573d9061082d82610259565b9161083b6040519384610237565b82523d6000602084013e565b606090565b908160209103126100b8575190565b91600092918392816040519283928337810184815203915afa61087c61081c565b906108c65760405162461bcd60e51b815260206004820152601a60248201527f65787465726e616c2073746174696363616c6c206661696c65640000000000006044820152606490fd5b806020806101bb9351830101910161084c565b9160009291838093826040519384928337810182815203925af16108fb61081c565b906101bb5760405162461bcd60e51b8152602060048201526014602482015273195e1d195c9b985b0818d85b1b0819985a5b195960621b6044820152606490fd5b91600092918392816040519283928337810184815203915af461095d61081c565b906101bb5760405162461bcd60e51b815260206004820152601c60248201527f65787465726e616c2064656c656761746563616c6c206661696c6564000000006044820152606490fd5b908160209103126100b8575180151581036100b85790565b156109c657565b60405162461bcd60e51b815260206004820152602a60248201527f5361666545524332303a204552433230206f7065726174696f6e20646964206e6044820152691bdd081cdd58d8d9595960b21b6064820152608490fd5b91929015610a805750815115610a32575090565b3b15610a3b5790565b60405162461bcd60e51b815260206004820152601d60248201527f416464726573733a2063616c6c20746f206e6f6e2d636f6e74726163740000006044820152606490fd5b825190915015610a935750805190602001fd5b60405162461bcd60e51b815260206004820152908190610ab7906024830190610355565b0390fd5b90610ac582610259565b610ad26040519182610237565b8281528092610ae3601f1991610259565b0190602036910137565b919060005b8351811015610b3a5760208160051b850101518214610b32576000198114610b1c57600101610af2565b634e487b7160e01b600052601160045260246000fd5b506001925050565b50600092505056fea26469706673582212204fd45551b6eb6ae9401b5140dc1259b6765cbfd500b98bf353b06ab5f834a85264736f6c63430008110033",
    "linkReferences": {}
  },
  "methodIdentifiers": {
    "checkAllowance(address,IERC20)": "43ad35b3",
    "externalCall(bytes,address)": "5c306e47",
    "externalDelegateCall(bytes,address)": "67e1d0d4",
    "externalStaticcall(bytes,address)": "0a19efd4",
    "extractECDSASignature(bytes)": "37c7641d",
    "extractECDSASignatures(bytes)": "e05bdbba",
    "handleTokenTransfer(address,address,uint256,IERC20)": "d403c7d9",
    "previewDelegation(bytes32[] storage,bytes32)": "7b4f48fa",
    "strCompare(bytes,bytes)": "2eb88c0d",
    "total(bytes)": "ebbe0247",
    "useDelegate(bytes32[],bytes32)": "59069ac0"
  },
  "id": 63
}