{
  "abi": [
    {
      "inputs": [
        {
          "internalType": "bytes32",
          "name": "label",
          "type": "bytes32"
        },
        {
          "internalType": "address",
          "name": "owner",
          "type": "address"
        },
        {
          "internalType": "bytes32",
          "name": "node",
          "type": "bytes32"
        }
      ],
      "name": "register",
      "outputs": [],
      "stateMutability": "nonpayable",
      "type": "function"
    }
  ],
  "bytecode": {
    "object": "0x608080604052346100165761020f908161001c8239f35b600080fdfe6080600436101561000f57600080fd5b6000803560e01c6317ac89021461002557600080fd5b34610126576060366003190112610126576001600160a01b03916004359060243584811691908290036101395760443592858554166020948584019781895260409484868201528581526060810181811067ffffffffffffffff82111761018d57899a8188999a9b9852825190206302571be360e01b825260648301528981602481885afa918215610183578a908893610147575b50505016801590811561013d575b5015610139578693606492865197889586946306ab592360e01b86526004860152602485015260448401525af19081156101305750610105578280f35b813d8311610129575b61011881836101a1565b810103126101265738808280f35b80fd5b503d61010e565b513d85823e3d90fd5b8380fd5b90503314386100c8565b90809293503d831161017c575b61015e81856101a1565b8101031261017857518181168103610178573889816100ba565b8580fd5b503d610154565b88513d89823e3d90fd5b634e487b7160e01b8a52604160045260248afd5b90601f8019910116810190811067ffffffffffffffff8211176101c357604052565b634e487b7160e01b600052604160045260246000fdfea26469706673582212206169692adbee2691a495077d250d125ec002ac02c8dbbe7bdf517f6e6f6672bf64736f6c63430008110033",
    "linkReferences": {}
  },
  "methodIdentifiers": {
    "register(bytes32,address,bytes32)": "17ac8902"
  },
  "id": 105
}