{
  "abi": [
    {
      "inputs": [
        {
          "internalType": "uint256",
          "name": "preOpGas",
          "type": "uint256"
        },
        {
          "internalType": "uint256",
          "name": "paid",
          "type": "uint256"
        },
        {
          "internalType": "uint48",
          "name": "validAfter",
          "type": "uint48"
        },
        {
          "internalType": "uint48",
          "name": "validUntil",
          "type": "uint48"
        },
        {
          "internalType": "bool",
          "name": "targetSuccess",
          "type": "bool"
        },
        {
          "internalType": "bytes",
          "name": "targetResult",
          "type": "bytes"
        }
      ],
      "name": "ExecutionResult",
      "type": "error"
    },
    {
      "inputs": [
        {
          "internalType": "uint256",
          "name": "opIndex",
          "type": "uint256"
        },
        {
          "internalType": "string",
          "name": "reason",
          "type": "string"
        }
      ],
      "name": "FailedOp",
      "type": "error"
    },
    {
      "inputs": [
        {
          "internalType": "address",
          "name": "sender",
          "type": "address"
        }
      ],
      "name": "SenderAddressResult",
      "type": "error"
    },
    {
      "inputs": [
        {
          "internalType": "address",
          "name": "aggregator",
          "type": "address"
        }
      ],
      "name": "SignatureValidationFailed",
      "type": "error"
    },
    {
      "inputs": [
        {
          "components": [
            {
              "internalType": "uint256",
              "name": "preOpGas",
              "type": "uint256"
            },
            {
              "internalType": "uint256",
              "name": "prefund",
              "type": "uint256"
            },
            {
              "internalType": "bool",
              "name": "sigFailed",
              "type": "bool"
            },
            {
              "internalType": "uint48",
              "name": "validAfter",
              "type": "uint48"
            },
            {
              "internalType": "uint48",
              "name": "validUntil",
              "type": "uint48"
            },
            {
              "internalType": "bytes",
              "name": "paymasterContext",
              "type": "bytes"
            }
          ],
          "internalType": "struct IEntryPoint.ReturnInfo",
          "name": "returnInfo",
          "type": "tuple"
        },
        {
          "components": [
            {
              "internalType": "uint256",
              "name": "stake",
              "type": "uint256"
            },
            {
              "internalType": "uint256",
              "name": "unstakeDelaySec",
              "type": "uint256"
            }
          ],
          "internalType": "struct IStakeManager.StakeInfo",
          "name": "senderInfo",
          "type": "tuple"
        },
        {
          "components": [
            {
              "internalType": "uint256",
              "name": "stake",
              "type": "uint256"
            },
            {
              "internalType": "uint256",
              "name": "unstakeDelaySec",
              "type": "uint256"
            }
          ],
          "internalType": "struct IStakeManager.StakeInfo",
          "name": "factoryInfo",
          "type": "tuple"
        },
        {
          "components": [
            {
              "internalType": "uint256",
              "name": "stake",
              "type": "uint256"
            },
            {
              "internalType": "uint256",
              "name": "unstakeDelaySec",
              "type": "uint256"
            }
          ],
          "internalType": "struct IStakeManager.StakeInfo",
          "name": "paymasterInfo",
          "type": "tuple"
        }
      ],
      "name": "ValidationResult",
      "type": "error"
    },
    {
      "inputs": [
        {
          "components": [
            {
              "internalType": "uint256",
              "name": "preOpGas",
              "type": "uint256"
            },
            {
              "internalType": "uint256",
              "name": "prefund",
              "type": "uint256"
            },
            {
              "internalType": "bool",
              "name": "sigFailed",
              "type": "bool"
            },
            {
              "internalType": "uint48",
              "name": "validAfter",
              "type": "uint48"
            },
            {
              "internalType": "uint48",
              "name": "validUntil",
              "type": "uint48"
            },
            {
              "internalType": "bytes",
              "name": "paymasterContext",
              "type": "bytes"
            }
          ],
          "internalType": "struct IEntryPoint.ReturnInfo",
          "name": "returnInfo",
          "type": "tuple"
        },
        {
          "components": [
            {
              "internalType": "uint256",
              "name": "stake",
              "type": "uint256"
            },
            {
              "internalType": "uint256",
              "name": "unstakeDelaySec",
              "type": "uint256"
            }
          ],
          "internalType": "struct IStakeManager.StakeInfo",
          "name": "senderInfo",
          "type": "tuple"
        },
        {
          "components": [
            {
              "internalType": "uint256",
              "name": "stake",
              "type": "uint256"
            },
            {
              "internalType": "uint256",
              "name": "unstakeDelaySec",
              "type": "uint256"
            }
          ],
          "internalType": "struct IStakeManager.StakeInfo",
          "name": "factoryInfo",
          "type": "tuple"
        },
        {
          "components": [
            {
              "internalType": "uint256",
              "name": "stake",
              "type": "uint256"
            },
            {
              "internalType": "uint256",
              "name": "unstakeDelaySec",
              "type": "uint256"
            }
          ],
          "internalType": "struct IStakeManager.StakeInfo",
          "name": "paymasterInfo",
          "type": "tuple"
        },
        {
          "components": [
            {
              "internalType": "address",
              "name": "aggregator",
              "type": "address"
            },
            {
              "components": [
                {
                  "internalType": "uint256",
                  "name": "stake",
                  "type": "uint256"
                },
                {
                  "internalType": "uint256",
                  "name": "unstakeDelaySec",
                  "type": "uint256"
                }
              ],
              "internalType": "struct IStakeManager.StakeInfo",
              "name": "stakeInfo",
              "type": "tuple"
            }
          ],
          "internalType": "struct IEntryPoint.AggregatorStakeInfo",
          "name": "aggregatorInfo",
          "type": "tuple"
        }
      ],
      "name": "ValidationResultWithAggregation",
      "type": "error"
    },
    {
      "anonymous": false,
      "inputs": [
        {
          "indexed": true,
          "internalType": "bytes32",
          "name": "userOpHash",
          "type": "bytes32"
        },
        {
          "indexed": true,
          "internalType": "address",
          "name": "sender",
          "type": "address"
        },
        {
          "indexed": false,
          "internalType": "address",
          "name": "factory",
          "type": "address"
        },
        {
          "indexed": false,
          "internalType": "address",
          "name": "paymaster",
          "type": "address"
        }
      ],
      "name": "AccountDeployed",
      "type": "event"
    },
    {
      "anonymous": false,
      "inputs": [],
      "name": "BeforeExecution",
      "type": "event"
    },
    {
      "anonymous": false,
      "inputs": [
        {
          "indexed": true,
          "internalType": "address",
          "name": "account",
          "type": "address"
        },
        {
          "indexed": false,
          "internalType": "uint256",
          "name": "totalDeposit",
          "type": "uint256"
        }
      ],
      "name": "Deposited",
      "type": "event"
    },
    {
      "anonymous": false,
      "inputs": [
        {
          "indexed": true,
          "internalType": "address",
          "name": "aggregator",
          "type": "address"
        }
      ],
      "name": "SignatureAggregatorChanged",
      "type": "event"
    },
    {
      "anonymous": false,
      "inputs": [
        {
          "indexed": true,
          "internalType": "address",
          "name": "account",
          "type": "address"
        },
        {
          "indexed": false,
          "internalType": "uint256",
          "name": "totalStaked",
          "type": "uint256"
        },
        {
          "indexed": false,
          "internalType": "uint256",
          "name": "unstakeDelaySec",
          "type": "uint256"
        }
      ],
      "name": "StakeLocked",
      "type": "event"
    },
    {
      "anonymous": false,
      "inputs": [
        {
          "indexed": true,
          "internalType": "address",
          "name": "account",
          "type": "address"
        },
        {
          "indexed": false,
          "internalType": "uint256",
          "name": "withdrawTime",
          "type": "uint256"
        }
      ],
      "name": "StakeUnlocked",
      "type": "event"
    },
    {
      "anonymous": false,
      "inputs": [
        {
          "indexed": true,
          "internalType": "address",
          "name": "account",
          "type": "address"
        },
        {
          "indexed": false,
          "internalType": "address",
          "name": "withdrawAddress",
          "type": "address"
        },
        {
          "indexed": false,
          "internalType": "uint256",
          "name": "amount",
          "type": "uint256"
        }
      ],
      "name": "StakeWithdrawn",
      "type": "event"
    },
    {
      "anonymous": false,
      "inputs": [
        {
          "indexed": true,
          "internalType": "bytes32",
          "name": "userOpHash",
          "type": "bytes32"
        },
        {
          "indexed": true,
          "internalType": "address",
          "name": "sender",
          "type": "address"
        },
        {
          "indexed": true,
          "internalType": "address",
          "name": "paymaster",
          "type": "address"
        },
        {
          "indexed": false,
          "internalType": "uint256",
          "name": "nonce",
          "type": "uint256"
        },
        {
          "indexed": false,
          "internalType": "bool",
          "name": "success",
          "type": "bool"
        },
        {
          "indexed": false,
          "internalType": "uint256",
          "name": "actualGasCost",
          "type": "uint256"
        },
        {
          "indexed": false,
          "internalType": "uint256",
          "name": "actualGasUsed",
          "type": "uint256"
        }
      ],
      "name": "UserOperationEvent",
      "type": "event"
    },
    {
      "anonymous": false,
      "inputs": [
        {
          "indexed": true,
          "internalType": "bytes32",
          "name": "userOpHash",
          "type": "bytes32"
        },
        {
          "indexed": true,
          "internalType": "address",
          "name": "sender",
          "type": "address"
        },
        {
          "indexed": false,
          "internalType": "uint256",
          "name": "nonce",
          "type": "uint256"
        },
        {
          "indexed": false,
          "internalType": "bytes",
          "name": "revertReason",
          "type": "bytes"
        }
      ],
      "name": "UserOperationRevertReason",
      "type": "event"
    },
    {
      "anonymous": false,
      "inputs": [
        {
          "indexed": true,
          "internalType": "address",
          "name": "account",
          "type": "address"
        },
        {
          "indexed": false,
          "internalType": "address",
          "name": "withdrawAddress",
          "type": "address"
        },
        {
          "indexed": false,
          "internalType": "uint256",
          "name": "amount",
          "type": "uint256"
        }
      ],
      "name": "Withdrawn",
      "type": "event"
    },
    {
      "inputs": [],
      "name": "SIG_VALIDATION_FAILED",
      "outputs": [
        {
          "internalType": "uint256",
          "name": "",
          "type": "uint256"
        }
      ],
      "stateMutability": "view",
      "type": "function"
    },
    {
      "inputs": [
        {
          "internalType": "bytes",
          "name": "initCode",
          "type": "bytes"
        },
        {
          "internalType": "address",
          "name": "sender",
          "type": "address"
        },
        {
          "internalType": "bytes",
          "name": "paymasterAndData",
          "type": "bytes"
        }
      ],
      "name": "_validateSenderAndPaymaster",
      "outputs": [],
      "stateMutability": "view",
      "type": "function"
    },
    {
      "inputs": [
        {
          "internalType": "uint32",
          "name": "unstakeDelaySec",
          "type": "uint32"
        }
      ],
      "name": "addStake",
      "outputs": [],
      "stateMutability": "payable",
      "type": "function"
    },
    {
      "inputs": [
        {
          "internalType": "address",
          "name": "account",
          "type": "address"
        }
      ],
      "name": "balanceOf",
      "outputs": [
        {
          "internalType": "uint256",
          "name": "",
          "type": "uint256"
        }
      ],
      "stateMutability": "view",
      "type": "function"
    },
    {
      "inputs": [
        {
          "internalType": "address",
          "name": "account",
          "type": "address"
        }
      ],
      "name": "depositTo",
      "outputs": [],
      "stateMutability": "payable",
      "type": "function"
    },
    {
      "inputs": [
        {
          "internalType": "address",
          "name": "",
          "type": "address"
        }
      ],
      "name": "deposits",
      "outputs": [
        {
          "internalType": "uint112",
          "name": "deposit",
          "type": "uint112"
        },
        {
          "internalType": "bool",
          "name": "staked",
          "type": "bool"
        },
        {
          "internalType": "uint112",
          "name": "stake",
          "type": "uint112"
        },
        {
          "internalType": "uint32",
          "name": "unstakeDelaySec",
          "type": "uint32"
        },
        {
          "internalType": "uint48",
          "name": "withdrawTime",
          "type": "uint48"
        }
      ],
      "stateMutability": "view",
      "type": "function"
    },
    {
      "inputs": [
        {
          "internalType": "address",
          "name": "account",
          "type": "address"
        }
      ],
      "name": "getDepositInfo",
      "outputs": [
        {
          "components": [
            {
              "internalType": "uint112",
              "name": "deposit",
              "type": "uint112"
            },
            {
              "internalType": "bool",
              "name": "staked",
              "type": "bool"
            },
            {
              "internalType": "uint112",
              "name": "stake",
              "type": "uint112"
            },
            {
              "internalType": "uint32",
              "name": "unstakeDelaySec",
              "type": "uint32"
            },
            {
              "internalType": "uint48",
              "name": "withdrawTime",
              "type": "uint48"
            }
          ],
          "internalType": "struct IStakeManager.DepositInfo",
          "name": "info",
          "type": "tuple"
        }
      ],
      "stateMutability": "view",
      "type": "function"
    },
    {
      "inputs": [
        {
          "internalType": "address",
          "name": "sender",
          "type": "address"
        },
        {
          "internalType": "uint192",
          "name": "key",
          "type": "uint192"
        }
      ],
      "name": "getNonce",
      "outputs": [
        {
          "internalType": "uint256",
          "name": "nonce",
          "type": "uint256"
        }
      ],
      "stateMutability": "view",
      "type": "function"
    },
    {
      "inputs": [
        {
          "internalType": "bytes",
          "name": "initCode",
          "type": "bytes"
        }
      ],
      "name": "getSenderAddress",
      "outputs": [],
      "stateMutability": "nonpayable",
      "type": "function"
    },
    {
      "inputs": [
        {
          "components": [
            {
              "internalType": "address",
              "name": "sender",
              "type": "address"
            },
            {
              "internalType": "uint256",
              "name": "nonce",
              "type": "uint256"
            },
            {
              "internalType": "bytes",
              "name": "initCode",
              "type": "bytes"
            },
            {
              "internalType": "bytes",
              "name": "callData",
              "type": "bytes"
            },
            {
              "internalType": "uint256",
              "name": "callGasLimit",
              "type": "uint256"
            },
            {
              "internalType": "uint256",
              "name": "verificationGasLimit",
              "type": "uint256"
            },
            {
              "internalType": "uint256",
              "name": "preVerificationGas",
              "type": "uint256"
            },
            {
              "internalType": "uint256",
              "name": "maxFeePerGas",
              "type": "uint256"
            },
            {
              "internalType": "uint256",
              "name": "maxPriorityFeePerGas",
              "type": "uint256"
            },
            {
              "internalType": "bytes",
              "name": "paymasterAndData",
              "type": "bytes"
            },
            {
              "internalType": "bytes",
              "name": "signature",
              "type": "bytes"
            }
          ],
          "internalType": "struct UserOperation",
          "name": "userOp",
          "type": "tuple"
        }
      ],
      "name": "getUserOpHash",
      "outputs": [
        {
          "internalType": "bytes32",
          "name": "",
          "type": "bytes32"
        }
      ],
      "stateMutability": "view",
      "type": "function"
    },
    {
      "inputs": [
        {
          "components": [
            {
              "components": [
                {
                  "internalType": "address",
                  "name": "sender",
                  "type": "address"
                },
                {
                  "internalType": "uint256",
                  "name": "nonce",
                  "type": "uint256"
                },
                {
                  "internalType": "bytes",
                  "name": "initCode",
                  "type": "bytes"
                },
                {
                  "internalType": "bytes",
                  "name": "callData",
                  "type": "bytes"
                },
                {
                  "internalType": "uint256",
                  "name": "callGasLimit",
                  "type": "uint256"
                },
                {
                  "internalType": "uint256",
                  "name": "verificationGasLimit",
                  "type": "uint256"
                },
                {
                  "internalType": "uint256",
                  "name": "preVerificationGas",
                  "type": "uint256"
                },
                {
                  "internalType": "uint256",
                  "name": "maxFeePerGas",
                  "type": "uint256"
                },
                {
                  "internalType": "uint256",
                  "name": "maxPriorityFeePerGas",
                  "type": "uint256"
                },
                {
                  "internalType": "bytes",
                  "name": "paymasterAndData",
                  "type": "bytes"
                },
                {
                  "internalType": "bytes",
                  "name": "signature",
                  "type": "bytes"
                }
              ],
              "internalType": "struct UserOperation[]",
              "name": "userOps",
              "type": "tuple[]"
            },
            {
              "internalType": "contract IAggregator",
              "name": "aggregator",
              "type": "address"
            },
            {
              "internalType": "bytes",
              "name": "signature",
              "type": "bytes"
            }
          ],
          "internalType": "struct IEntryPoint.UserOpsPerAggregator[]",
          "name": "opsPerAggregator",
          "type": "tuple[]"
        },
        {
          "internalType": "address payable",
          "name": "beneficiary",
          "type": "address"
        }
      ],
      "name": "handleAggregatedOps",
      "outputs": [],
      "stateMutability": "nonpayable",
      "type": "function"
    },
    {
      "inputs": [
        {
          "components": [
            {
              "internalType": "address",
              "name": "sender",
              "type": "address"
            },
            {
              "internalType": "uint256",
              "name": "nonce",
              "type": "uint256"
            },
            {
              "internalType": "bytes",
              "name": "initCode",
              "type": "bytes"
            },
            {
              "internalType": "bytes",
              "name": "callData",
              "type": "bytes"
            },
            {
              "internalType": "uint256",
              "name": "callGasLimit",
              "type": "uint256"
            },
            {
              "internalType": "uint256",
              "name": "verificationGasLimit",
              "type": "uint256"
            },
            {
              "internalType": "uint256",
              "name": "preVerificationGas",
              "type": "uint256"
            },
            {
              "internalType": "uint256",
              "name": "maxFeePerGas",
              "type": "uint256"
            },
            {
              "internalType": "uint256",
              "name": "maxPriorityFeePerGas",
              "type": "uint256"
            },
            {
              "internalType": "bytes",
              "name": "paymasterAndData",
              "type": "bytes"
            },
            {
              "internalType": "bytes",
              "name": "signature",
              "type": "bytes"
            }
          ],
          "internalType": "struct UserOperation[]",
          "name": "ops",
          "type": "tuple[]"
        },
        {
          "internalType": "address payable",
          "name": "beneficiary",
          "type": "address"
        }
      ],
      "name": "handleOps",
      "outputs": [],
      "stateMutability": "nonpayable",
      "type": "function"
    },
    {
      "inputs": [
        {
          "internalType": "uint192",
          "name": "key",
          "type": "uint192"
        }
      ],
      "name": "incrementNonce",
      "outputs": [],
      "stateMutability": "nonpayable",
      "type": "function"
    },
    {
      "inputs": [
        {
          "internalType": "bytes",
          "name": "callData",
          "type": "bytes"
        },
        {
          "components": [
            {
              "components": [
                {
                  "internalType": "address",
                  "name": "sender",
                  "type": "address"
                },
                {
                  "internalType": "uint256",
                  "name": "nonce",
                  "type": "uint256"
                },
                {
                  "internalType": "uint256",
                  "name": "callGasLimit",
                  "type": "uint256"
                },
                {
                  "internalType": "uint256",
                  "name": "verificationGasLimit",
                  "type": "uint256"
                },
                {
                  "internalType": "uint256",
                  "name": "preVerificationGas",
                  "type": "uint256"
                },
                {
                  "internalType": "address",
                  "name": "paymaster",
                  "type": "address"
                },
                {
                  "internalType": "uint256",
                  "name": "maxFeePerGas",
                  "type": "uint256"
                },
                {
                  "internalType": "uint256",
                  "name": "maxPriorityFeePerGas",
                  "type": "uint256"
                }
              ],
              "internalType": "struct EntryPoint.MemoryUserOp",
              "name": "mUserOp",
              "type": "tuple"
            },
            {
              "internalType": "bytes32",
              "name": "userOpHash",
              "type": "bytes32"
            },
            {
              "internalType": "uint256",
              "name": "prefund",
              "type": "uint256"
            },
            {
              "internalType": "uint256",
              "name": "contextOffset",
              "type": "uint256"
            },
            {
              "internalType": "uint256",
              "name": "preOpGas",
              "type": "uint256"
            }
          ],
          "internalType": "struct EntryPoint.UserOpInfo",
          "name": "opInfo",
          "type": "tuple"
        },
        {
          "internalType": "bytes",
          "name": "context",
          "type": "bytes"
        }
      ],
      "name": "innerHandleOp",
      "outputs": [
        {
          "internalType": "uint256",
          "name": "actualGasCost",
          "type": "uint256"
        }
      ],
      "stateMutability": "nonpayable",
      "type": "function"
    },
    {
      "inputs": [
        {
          "internalType": "address",
          "name": "",
          "type": "address"
        },
        {
          "internalType": "uint192",
          "name": "",
          "type": "uint192"
        }
      ],
      "name": "nonceSequenceNumber",
      "outputs": [
        {
          "internalType": "uint256",
          "name": "",
          "type": "uint256"
        }
      ],
      "stateMutability": "view",
      "type": "function"
    },
    {
      "inputs": [
        {
          "components": [
            {
              "internalType": "address",
              "name": "sender",
              "type": "address"
            },
            {
              "internalType": "uint256",
              "name": "nonce",
              "type": "uint256"
            },
            {
              "internalType": "bytes",
              "name": "initCode",
              "type": "bytes"
            },
            {
              "internalType": "bytes",
              "name": "callData",
              "type": "bytes"
            },
            {
              "internalType": "uint256",
              "name": "callGasLimit",
              "type": "uint256"
            },
            {
              "internalType": "uint256",
              "name": "verificationGasLimit",
              "type": "uint256"
            },
            {
              "internalType": "uint256",
              "name": "preVerificationGas",
              "type": "uint256"
            },
            {
              "internalType": "uint256",
              "name": "maxFeePerGas",
              "type": "uint256"
            },
            {
              "internalType": "uint256",
              "name": "maxPriorityFeePerGas",
              "type": "uint256"
            },
            {
              "internalType": "bytes",
              "name": "paymasterAndData",
              "type": "bytes"
            },
            {
              "internalType": "bytes",
              "name": "signature",
              "type": "bytes"
            }
          ],
          "internalType": "struct UserOperation",
          "name": "op",
          "type": "tuple"
        },
        {
          "internalType": "address",
          "name": "target",
          "type": "address"
        },
        {
          "internalType": "bytes",
          "name": "targetCallData",
          "type": "bytes"
        }
      ],
      "name": "simulateHandleOp",
      "outputs": [],
      "stateMutability": "nonpayable",
      "type": "function"
    },
    {
      "inputs": [
        {
          "components": [
            {
              "internalType": "address",
              "name": "sender",
              "type": "address"
            },
            {
              "internalType": "uint256",
              "name": "nonce",
              "type": "uint256"
            },
            {
              "internalType": "bytes",
              "name": "initCode",
              "type": "bytes"
            },
            {
              "internalType": "bytes",
              "name": "callData",
              "type": "bytes"
            },
            {
              "internalType": "uint256",
              "name": "callGasLimit",
              "type": "uint256"
            },
            {
              "internalType": "uint256",
              "name": "verificationGasLimit",
              "type": "uint256"
            },
            {
              "internalType": "uint256",
              "name": "preVerificationGas",
              "type": "uint256"
            },
            {
              "internalType": "uint256",
              "name": "maxFeePerGas",
              "type": "uint256"
            },
            {
              "internalType": "uint256",
              "name": "maxPriorityFeePerGas",
              "type": "uint256"
            },
            {
              "internalType": "bytes",
              "name": "paymasterAndData",
              "type": "bytes"
            },
            {
              "internalType": "bytes",
              "name": "signature",
              "type": "bytes"
            }
          ],
          "internalType": "struct UserOperation",
          "name": "userOp",
          "type": "tuple"
        }
      ],
      "name": "simulateValidation",
      "outputs": [],
      "stateMutability": "nonpayable",
      "type": "function"
    },
    {
      "inputs": [],
      "name": "unlockStake",
      "outputs": [],
      "stateMutability": "nonpayable",
      "type": "function"
    },
    {
      "inputs": [
        {
          "internalType": "address payable",
          "name": "withdrawAddress",
          "type": "address"
        }
      ],
      "name": "withdrawStake",
      "outputs": [],
      "stateMutability": "nonpayable",
      "type": "function"
    },
    {
      "inputs": [
        {
          "internalType": "address payable",
          "name": "withdrawAddress",
          "type": "address"
        },
        {
          "internalType": "uint256",
          "name": "withdrawAmount",
          "type": "uint256"
        }
      ],
      "name": "withdrawTo",
      "outputs": [],
      "stateMutability": "nonpayable",
      "type": "function"
    },
    {
      "stateMutability": "payable",
      "type": "receive"
    }
  ],
  "bytecode": {
    "object": "0x60a08060405234620000895760016002556101ac8181016001600160401b03811183821017620000735782916200472e833903906000f08015620000675760805260405161469f90816200008f8239608051818181610f9001528181612fe001526132480152f35b6040513d6000823e3d90fd5b634e487b7160e01b600052604160045260246000fd5b600080fdfe60806040526004361015610023575b361561001957600080fd5b61002161415b565b005b60003560e01c80630396cb60146101b35780630bd28e3b146101aa5780631b2e01b8146101a15780631d732756146101985780631fad948c1461018f578063205c28781461018657806335567e1a1461017d5780634b1d7cf5146101745780635287ce121461016b57806370a08231146101625780638f41ec5a14610159578063957122ab146101505780639b249f6914610147578063a61935311461013e578063b760faf914610135578063bb9fe6bf1461012c578063c23a5cea14610123578063d6383f941461011a578063ee219423146101115763fc7e286d0361000e5761010c611573565b61000e565b5061010c6113d6565b5061010c6112b1565b5061010c611196565b5061010c611092565b5061010c611071565b5061010c611050565b5061010c610f2b565b5061010c610dc5565b5061010c610da8565b5061010c610d56565b5061010c610c40565b5061010c610949565b5061010c6108df565b5061010c6107d2565b5061010c6106f8565b5061010c610581565b5061010c61039a565b5061010c61030c565b5060203660031901126102f15760043563ffffffff81168082036102f1573360009081526020819052604090207fa5ae833d0bb1dcd632d98a8b70973e8516812898e19bf27b70071ebc8dc52c01916102ec9161023a909161021681151561423d565b61023361022a600185015463ffffffff1690565b63ffffffff1690565b1115614289565b54926102ce6001600160701b03946102a861025a34888460781c166119c5565b966102668815156142d5565b61027281891115614316565b61028f8161027e6104a8565b941684906001600160701b03169052565b6001602084015287166001600160701b03166040830152565b63ffffffff83166060820152600060808201819052338152602081905260409020614353565b6040805194855263ffffffff90911660208501523393918291820190565b0390a2005b600080fd5b602435906001600160c01b03821682036102f157565b50346102f15760203660031901126102f1576004356001600160c01b03811681036102f1573360009081526001602090815260408083206001600160c01b0390941683529290522061035e8154611bc4565b9055005b6001600160a01b038116036102f157565b6024359061038082610362565b565b60c4359061038082610362565b359061038082610362565b50346102f15760403660031901126102f15760206103f56004356103bd81610362565b6103c56102f6565b6001600160a01b0390911660009081526001845260408082206001600160c01b0390931682526020929092522090565b54604051908152f35b50634e487b7160e01b600052604160045260246000fd5b60a081019081106001600160401b0382111761043057604052565b6104386103fe565b604052565b61010081019081106001600160401b0382111761043057604052565b6001600160401b03811161043057604052565b606081019081106001600160401b0382111761043057604052565b90601f801991011681019081106001600160401b0382111761043057604052565b6040519061038082610415565b6040519060c082018281106001600160401b0382111761043057604052565b60405190604082018281106001600160401b0382111761043057604052565b6020906001600160401b038111610510575b601f01601f19160190565b6105186103fe565b610505565b929192610529826104f3565b916105376040519384610487565b8294818452818301116102f1578281602093846000960137010152565b9181601f840112156102f1578235916001600160401b0383116102f157602083818601950101116102f157565b50346102f1576101c03660031901126102f1576001600160401b036004358181116102f157366023820112156102f1576105c590369060248160040135910161051d565b90366023190161018081126102f157610100604051916105e483610415565b126102f1576040516105f58161043d565b6105fd610373565b815260443560208201526064356040820152608435606082015260a4356080820152610627610382565b60a082015260e43560c08201526101043560e082015281526101243560208201526101443560408201526101643560608201526101843560808201526101a4359182116102f15761069b9261068361068b933690600401610554565b929091611ef0565b6040519081529081906020820190565b0390f35b9060406003198301126102f1576004356001600160401b03928382116102f157806023830112156102f15781600401359384116102f15760248460051b830101116102f15760240191906024356106f581610362565b90565b50346102f1576107073661069f565b610712929192614615565b61071b8361169e565b60005b84811061079b57506000927fbb47ee3e183a558b1a2ff0874b079f3fc5478b7454eacf2bfc5af2ff5878f9728480a183915b85831061076b576107618585611788565b6100216001600255565b90919360019061079161077f878987611727565b6107898886611705565b519088611ad1565b0194019190610750565b806107c96107c26107b0600194869896611705565b516107bc848a88611727565b84612823565b9083612467565b0192909261071e565b50346102f15760403660031901126102f1576004356107f081610362565b602435906000913383528260205260408320916001600160701b0383541680831161089a5784838194936108426108979761083c610830869887986119b0565b6001600160701b031690565b90612b4f565b604080516001600160a01b03831681526020810184905233917fd1c19fbcd4551a5edfb66d43d2e337c04837afda3482b42bdf569a8fccdae5fb91a26001600160a01b03165af1610891611758565b50614588565b80f35b60405162461bcd60e51b815260206004820152601960248201527f576974686472617720616d6f756e7420746f6f206c61726765000000000000006044820152606490fd5b50346102f15760403660031901126102f15760206004356108ff81610362565b6109076102f6565b6001600160a01b0390911660009081526001835260408082206001600160c01b03841683526020529020546040805192901b67ffffffffffffffff1916178152f35b50346102f1576109583661069f565b610960614615565b6000805b838210610b2e57610975915061169e565b7fbb47ee3e183a558b1a2ff0874b079f3fc5478b7454eacf2bfc5af2ff5878f972600080a16000805b848110610aa057505060008093815b8181106109e457610761868660007f575ff3acadd5ab348fe1855e217e0f3678f8d767d7494c9f9fefbee2e17cca4d8180a2611788565b610a3b6109f282848a611be0565b610a10610a04610a0460208401611c45565b6001600160a01b031690565b7f575ff3acadd5ab348fe1855e217e0f3678f8d767d7494c9f9fefbee2e17cca4d600080a280611c10565b906000915b808310610a5857505050610a5390611bc4565b6109ad565b90919497610a93610a8d610a9992610a878c8b610a8082610a7a8e8b8d611727565b92611705565b5191611ad1565b906119c5565b99611bc4565b95611bc4565b9190610a40565b610aab818688611be0565b6020610ac3610aba8380611c10565b92909301611c45565b6000926001600160a01b03909116905b828410610aec5750505050610ae790611bc4565b61099e565b90919294610a9381610b2185610b1a610b08610b26968d611705565b51610b148c8b8a611727565b85612823565b908b6125ce565b611bc4565b929190610ad3565b610b39828587611be0565b90610b448280611c10565b92610b54610a0460208301611c45565b916001600160a01b038316610b6c6001821415611c4f565b610b8d575b505050610b8791610b81916119c5565b91611bc4565b90610964565b909592610ba6604099969399989598978881019061183a565b92908a3b156102f15789938b918a51938492839263e3563a4f60e01b845260049e8f850193610bd494611da4565b03815a93600094fa9081610c27575b50610c1157865163086a9f7560e41b81526001600160a01b038a16818a0190815281906020010390fd5b0390fd5b9497509295509093509181610b81610b87610b71565b80610c34610c3a92610459565b80610d9d565b38610be3565b50346102f15760203660031901126102f15761069b6080600435610c6381610362565b60409182918251610c7381610415565b60009281848093528260208201528286820152826060820152015260018060a01b03168152806020522090610d0265ffffffffffff6001835194610cb686610415565b80546001600160701b038082168852607082901c60ff161515602089015260789190911c1685870152015463ffffffff8116606086015260201c16608084019065ffffffffffff169052565b5191829182919091608065ffffffffffff8160a08401956001600160701b03808251168652602082015115156020870152604082015116604086015263ffffffff6060820151166060860152015116910152565b50346102f15760203660031901126102f157600435610d7481610362565b60018060a01b0316600052600060205260206001600160701b0360406000205416604051908152f35b60009103126102f157565b50346102f15760003660031901126102f157602060405160018152f35b50346102f15760603660031901126102f15760046001600160401b0381358181116102f157610df79036908401610554565b905060243591610e0683610362565b6044359081116102f157610e1d9036908501610554565b929091159081610f21575b50610ed4576014821015610e5e575b610c0d8360405191829162461bcd60e51b8352820160409060208152600060208201520190565b610e6e610e7a92610e7492612139565b90612147565b60601c90565b3b15610e87573880610e37565b610c0d9060405191829162461bcd60e51b8352820160609060208152601b60208201527f41413330207061796d6173746572206e6f74206465706c6f796564000000000060408201520190565b610c0d8360405191829162461bcd60e51b8352820160609060208152601960208201527f41413230206163636f756e74206e6f74206465706c6f7965640000000000000060408201520190565b90503b1538610e28565b50346102f15760203660031901126102f1576004356001600160401b0381116102f157610f5e6024913690600401610554565b604051632b870d1b60e11b8152918291610f7b91600484016122bf565b6001600160a01b0391602091849190038160007f000000000000000000000000000000000000000000000000000000000000000086165af191821561100a575b600092610fda575b50604051633653dc0360e11b815291166004820152fd5b610ffc91925060203d8111611003575b610ff48183610487565b8101906122aa565b9038610fc3565b503d610fea565b61101261198c565b610fbb565b90816101609103126102f15790565b60206003198201126102f157600435906001600160401b0382116102f1576106f591600401611017565b50346102f157602061106961106436611026565b611ffc565b604051908152f35b5060203660031901126102f15761002160043561108d81610362565b6141e7565b50346102f157600080600319360112611193573381528060205260408120600181019063ffffffff825416908115611161576111196110f3611126936110e56110e0855460ff9060701c1690565b614407565b65ffffffffffff4216614447565b845469ffffffffffff000000001916602082901b69ffffffffffff000000001617909455565b805460ff60701b19169055565b60405165ffffffffffff91909116815233907ffa9b3c14cc825c412c9ed81b3ba365a5b459439403f18829e572ed53a4180f0a90602090a280f35b60405162461bcd60e51b815260206004820152600a6024820152691b9bdd081cdd185ad95960b21b6044820152606490fd5b80fd5b50346102f15760203660031901126102f1576004356111b481610362565b33600090815260208190526040902061089790916112556111e361083085546001600160701b039060781c1690565b936111ef851515614461565b61123b6001820161122865ffffffffffff611214835465ffffffffffff9060201c1690565b166112208115156144a4565b4210156144f0565b805469ffffffffffffffffffff19169055565b80546dffffffffffffffffffffffffffff60781b19169055565b604080516001600160a01b03831681526020810185905233917fb7c918e0e249f999e965cafeb6c664271b3f4317d296461500e71da39f0cbda391a2600080808095819460018060a01b03165af16112ab611758565b5061453c565b50346102f15760603660031901126102f1576001600160401b036004358181116102f1576112e3903690600401611017565b602435916112f083610362565b6044359081116102f15761130b610c0d913690600401610554565b61131361161c565b61131c85612394565b61132f6113298287612693565b90614035565b9461133f826000924384526119d2565b43825296606094919384926001600160a01b0383166113a2575b505050506080015193611388604061137a602084015165ffffffffffff1690565b92015165ffffffffffff1690565b90604051968796630116f59360e71b885260048801611e39565b839550839496506113bc6040949293945180948193611e2b565b03925af19060806113cb611758565b929190388080611359565b50346102f1576113e536611026565b6113ed61161c565b6113f682612394565b6114008183612693565b825160a00151919391611420906001600160a01b031661411b565b61411b565b835151909190611438906001600160a01b031661411b565b94611441612102565b506114706114546040958681019061183a565b9060006014831061156b5750610e6e61141b92610e7492612139565b9161147a91614035565b8051608086015185870151602084015191976001600160a01b039093169360018514938593909190899065ffffffffffff1691015165ffffffffffff169160600151926114c56104b5565b9a8b5260208b0152841515898b015265ffffffffffff1660608a015265ffffffffffff16608089015260a088015215159081611562575b5061151d5750610c0d925194859463e0cff05f60e01b865260048601612250565b9190610c0d9361152c8461411b565b6115466115376104d4565b6001600160a01b039096168652565b602085015251633ebb2d3960e21b8152958695600487016121c9565b905015386114fc565b91505061411b565b50346102f15760203660031901126102f15760043561159181610362565b60018060a01b0316600052600060205260a0604060002065ffffffffffff60018254920154604051926001600160701b0390818116855260ff8160701c161515602086015260781c16604084015263ffffffff8116606084015260201c166080820152f35b6020906001600160401b03811161160f575b60051b0190565b6116176103fe565b611608565b6040519061162982610415565b60405160808361010083016001600160401b03811184821017611691575b60405260009283815283602082015283604082015283606082015283838201528360a08201528360c08201528360e082015281528260208201528260408201528260608201520152565b6116996103fe565b611647565b906116a8826115f6565b6116b56040519182610487565b82815280926116c6601f19916115f6565b019060005b8281106116d757505050565b6020906116e261161c565b828285010152016116cb565b50634e487b7160e01b600052603260045260246000fd5b602091815181101561171a575b60051b010190565b6117226116ee565b611712565b919081101561174b575b60051b8101359061015e19813603018212156102f1570190565b6117536116ee565b611731565b3d15611783573d90611769826104f3565b916117776040519384610487565b82523d6000602084013e565b606090565b6001600160a01b031680156117f557600080809381935af16117a8611758565b50156117b057565b60405162461bcd60e51b815260206004820152601f60248201527f41413931206661696c65642073656e6420746f2062656e6566696369617279006044820152606490fd5b60405162461bcd60e51b815260206004820152601860248201527f4141393020696e76616c69642062656e656669636961727900000000000000006044820152606490fd5b903590601e19813603018212156102f157018035906001600160401b0382116102f1576020019181360383136102f157565b908160209103126102f1575190565b908060209392818452848401376000828201840152601f01601f1916010190565b60005b8381106118af5750506000910152565b818101518382015260200161189f565b906020916118d88151809281855285808601910161189c565b601f01601f1916010190565b906118fe6080916106f596946101c080865285019161187b565b9360e0815160018060a01b0380825116602087015260208201516040870152604082015160608701526060820151858701528482015160a087015260a08201511660c086015260c081015182860152015161010084015260208101516101208401526040810151610140840152606081015161016084015201516101808201526101a08184039101526118bf565b506040513d6000823e3d90fd5b50634e487b7160e01b600052601160045260246000fd5b919082039182116119bd57565b610380611999565b919082018092116119bd57565b905a918160206119eb606083015193606081019061183a565b90611a0b856040519586948594630eb993ab60e11b8652600486016118e4565b03816000305af160009181611aa1575b50611a9a575060206000803e60005163deaddead60e01b14611a5957611a53611a486106f5945a906119b0565b6080840151906119c5565b9161396a565b60408051631101335b60e11b8152600060048201526024810191909152600f60448201526e41413935206f7574206f662067617360881b6064820152608490fd5b9250505090565b611ac391925060203d8111611aca575b611abb8183610487565b81019061186c565b9038611a1b565b503d611ab1565b909291925a93806020611aed606083015194606081019061183a565b90611b0d866040519586948594630eb993ab60e11b8652600486016118e4565b03816000305af160009181611ba4575b50611b9d575060206000803e60005163deaddead60e01b14611b5c57611b56611b4b6106f595965a906119b0565b6080830151906119c5565b92613b9a565b60408051631101335b60e11b8152600481018590526024810191909152600f60448201526e41413935206f7574206f662067617360881b6064820152608490fd5b9450505050565b611bbd91925060203d8111611aca57611abb8183610487565b9038611b1d565b6001906000198114611bd4570190565b611bdc611999565b0190565b9190811015611c03575b60051b81013590605e19813603018212156102f1570190565b611c0b6116ee565b611bea565b903590601e19813603018212156102f157018035906001600160401b0382116102f157602001918160051b360383136102f157565b356106f581610362565b15611c5657565b60405162461bcd60e51b815260206004820152601760248201527f4141393620696e76616c69642061676772656761746f720000000000000000006044820152606490fd5b9035601e19823603018112156102f15701602081359101916001600160401b0382116102f15781360383136102f157565b6106f591611cea81611cdd8461038f565b6001600160a01b03169052565b60208201356020820152611d85611d36611d1b611d0a6040860186611c9b565b61016080604088015286019161187b565b611d286060860186611c9b565b90858303606087015261187b565b6080840135608084015260a084013560a084015260c084013560c084015260e084013560e08401526101008085013590840152610120611d7881860186611c9b565b918584039086015261187b565b91611d966101409182810190611c9b565b92909181850391015261187b565b949391929083604087016040885252606086019360608160051b8801019482600090815b848310611de7575050505050508460206106f59596850391015261187b565b909192939497605f198b8203018552883561015e1984360301811215611e275760019184611e159201611ccc565b98602090810196950193019190611dc8565b8280fd5b908092918237016000815290565b9290936106f596959260c0958552602085015265ffffffffffff8092166040850152166060830152151560808201528160a082015201906118bf565b15611e7c57565b60405162461bcd60e51b815260206004820152601760248201527f4141393220696e7465726e616c2063616c6c206f6e6c790000000000000000006044820152606490fd5b9060406106f5926000815281602082015201906118bf565b6040906106f59392815281602082015201906118bf565b909291925a93611f01303314611e75565b8151946040860151955a611388606083015189010111611feb576106f5966000958051611f48575b50505090611f42915a900360808401510194369161051d565b91613d6e565b8251611f6692611f629290916001600160a01b03166145d4565b1590565b611f72575b8080611f29565b611f4292919450611f816145e6565b8051611f94575b50506001939091611f6b565b602085810151835193909101516040516001600160a01b039094169391927f1c4fada7374c0a9ee8841fc38afe82932dc0f8e69012e927f061a8bae611a20192918291611fe19183611ed9565b0390a33880611f88565b63deaddead60e01b60005260206000fd5b61201261200c604083018361183a565b906145c9565b9061202361200c606083018361183a565b906120b961203861200c61012084018461183a565b6040805184356001600160a01b031660208083019182528601359282019290925260608101969096526080808701959095529383013560a08087019190915283013560c08087019190915283013560e08087019190915283013561010080870191909152909201356101208501526101408401919091528290610160820190565b03916120cd601f1993848101835282610487565b519020604080516020810192835230918101919091524660608201526080928301815290916120fc9082610487565b51902090565b60405190604082018281106001600160401b0382111761212c575b60405260006020838281520152565b6121346103fe565b61211d565b906014116102f15790601490565b6bffffffffffffffffffffffff19903581811693926014811061216957505050565b60140360031b82901b16169150565b9060c060a06106f593805184526020810151602085015260408101511515604085015265ffffffffffff80606083015116606086015260808201511660808501520151918160a082015201906118bf565b929461222a610380956122186101009599986122066121f2602097610140808c528b0190612178565b9b878a019060208091805184520151910152565b80516060890152602001516080880152565b805160a08701526020015160c0860152565b80516001600160a01b031660e08501520151805191909201908152602091820151910152565b6122996103809461228761227260a0959998969960e0865260e0860190612178565b98602085019060208091805184520151910152565b80516060840152602001516080830152565b019060208091805184520151910152565b908160209103126102f157516106f581610362565b9160206106f593818152019161187b565b906122ea906106f59694959360608452606084019161187b565b6001600160a01b03909416602082015280840360409091015261187b565b60009060033d1161231557565b905060046000803e60005160e01c90565b600060443d106106f557604051600319913d83016004833e81516001600160401b03918282113d6024840111176123835781840194855193841161238b573d8501016020848701011161238357506106f592910160200190610487565b949350505050565b50949350505050565b6123a1604082018261183a565b6123b96123ad84611c45565b9361012081019061183a565b9290303b156102f1576000936123e491604051968795869563957122ab60e01b8752600487016122d0565b0381305afa9081612454575b506103805760016123ff612308565b6308c379a014612418575b61241057565b61038061198c565b612420612326565b8061242c575b5061240a565b8051600092501561242657604051631101335b60e11b8152908190610c0d9060048301611ec1565b80610c3461246192610459565b386123f0565b9190612472906125f8565b6001600160a01b0392918316612588576125395761248f906125f8565b91166124f35761249c5750565b60408051631101335b60e11b815260048101929092526024820152602160448201527f41413332207061796d61737465722065787069726564206f72206e6f742064756064820152606560f81b608482015260a490fd5b60408051631101335b60e11b8152600481018490526024810191909152601460448201527320a0999a1039b4b3b730ba3ab9329032b93937b960611b6064820152608490fd5b60408051631101335b60e11b8152600481018590526024810191909152601760448201527f414132322065787069726564206f72206e6f74206475650000000000000000006064820152608490fd5b60408051631101335b60e11b8152600481018690526024810191909152601460448201527320a0991a1039b4b3b730ba3ab9329032b93937b960611b6064820152608490fd5b9291906125da906125f8565b6001600160a01b03939091841690841603612588576125395761248f905b801561263e5761260790613fe7565b65ffffffffffff80604083015116421190811561262e575b5090516001600160a01b031691565b905060208201511642103861261f565b50600090600090565b1561264e57565b60405162461bcd60e51b815260206004820152601860248201527f41413934206761732076616c756573206f766572666c6f7700000000000000006044820152606490fd5b916000915a938151906126a68282612a01565b6126af81611ffc565b60208401526126e56001600160781b0360808401516060850151176040850151176101008401359060e085013517171115612647565b6126ee82612aa9565b6126f9818584612b6a565b84519098919061271b90611f62906001600160a01b03166020880151906140db565b6127d45761272843600052565b60a09490940151606094906001600160a01b03166127ba575b505a810360a08401351061276b5760809360c092604087015260608601525a900391013501910152565b60408051631101335b60e11b8152600060048201526024810191909152601e60448201527f41413430206f76657220766572696669636174696f6e4761734c696d697400006064820152608490fd5b909350816127cb9297508584613549565b95909238612741565b60408051631101335b60e11b8152600060048201526024810191909152601a60448201527f4141323520696e76616c6964206163636f756e74206e6f6e63650000000000006064820152608490fd5b9290916000925a82516128368184612a01565b61283f83611ffc565b60208501526128756001600160781b0360808301516060840151176040840151176101008601359060e087013517171115612647565b61287e81612aa9565b61288a8186868b612dcb565b8351909991906128ac90611f62906001600160a01b03166020870151906140db565b612966576128b943600052565b60a09390930151606093906001600160a01b031661294b575b505a840360a0860135106128fe5750604085015260608401526080919060c0905a900391013501910152565b60408051631101335b60e11b815260048101929092526024820152601e60448201527f41413430206f76657220766572696669636174696f6e4761734c696d697400006064820152608490fd5b9092508161295d929850868685613718565b969091386128d2565b60408051631101335b60e11b8152600481018490526024810191909152601a60448201527f4141323520696e76616c6964206163636f756e74206e6f6e63650000000000006064820152608490fd5b156129bc57565b60405162461bcd60e51b815260206004820152601d60248201527f4141393320696e76616c6964207061796d6173746572416e64446174610000006044820152606490fd5b612a6690612a1e612a1182611c45565b6001600160a01b03168452565b602081013560208401526080810135604084015260a0810135606084015260c0810135608084015260e081013560c084015261010081013560e084015261012081019061183a565b908115612a9e57612a90610e74610e6e8460a094612a8b6014610380999810156129b5565b612139565b6001600160a01b0316910152565b505060a06000910152565b60a08101516001600160a01b031615612ade5760c060035b60ff60408401519116606084015102016080830151019101510290565b60c06001612ac1565b612aff60409295949395606083526060830190611ccc565b9460208201520152565b90610380602f60405180946e020a09919903932bb32b93a32b21d1608d1b6020830152612b3f815180926020868601910161189c565b810103600f810185520183610487565b906001600160701b03166001600160701b0319825416179055565b916000926000925a93612bf86020835193612b8b855160018060a01b031690565b95612ba3612b9c604083018361183a565b9084612f8c565b60a08601516001600160a01b031690612bbb43600052565b6001600160a01b0391821615968693849189612d78575b6060015190860151604051633a871cdd60e01b8152978896879586939060048501612ae7565b03938a1690f1829181612d58575b50612d4f5750600190612c17612308565b6308c379a014612d14575b50612ccc575b612c35575b50505a900391565b6001600160a01b03166000908152602081905260409020612c6061083082546001600160701b031690565b808311612c8357612c7c926001600160701b0391031690612b4f565b3880612c2d565b60408051631101335b60e11b8152600060048201526024810191909152601760448201527610504c8c48191a591b89dd081c185e481c1c99599d5b99604a1b6064820152608490fd5b60408051631101335b60e11b815260006004820152602481019190915260166044820152754141323320726576657274656420286f72204f4f472960501b6064820152608490fd5b612d1c612326565b9081612d285750612c22565b610c0d91612d369150612b09565b604051631101335b60e11b815291829160048301611ec1565b9550612c289050565b612d7191925060203d8111611aca57611abb8183610487565b9038612c06565b9450612da9610830612d9c8c60018060a01b03166000526000602052604060002090565b546001600160701b031690565b8b811115612dc05750856060835b96915050612bd2565b606087918d03612db7565b90926000936000935a94612e066020835193612ded855160018060a01b031690565b95612ba3612dfe604083018361183a565b90848c6131f1565b03938a1690f1829181612f6c575b50612f635750600190612e25612308565b6308c379a014612f26575b50612ede575b612e44575b5050505a900391565b6001600160a01b0316600090815260208190526040902091612e7061083084546001600160701b031690565b90818311612e975750612e8f92916001600160701b0391031690612b4f565b388080612e3b565b60408051631101335b60e11b815260048101929092526024820152601760448201527610504c8c48191a591b89dd081c185e481c1c99599d5b99604a1b6064820152608490fd5b60408051631101335b60e11b815260048101869052602481019190915260166044820152754141323320726576657274656420286f72204f4f472960501b6064820152608490fd5b612f2e612326565b9081612f3a5750612e30565b8691612f469150612b09565b604051631101335b60e11b8152918291610c0d9160048401611ed9565b9650612e369050565b612f8591925060203d8111611aca57611abb8183610487565b9038612e14565b909180612f9857505050565b8151516001600160a01b031692833b6131a257825160600151604051632b870d1b60e11b81529060208280612fd18787600484016122bf565b0381600060018060a01b0395867f00000000000000000000000000000000000000000000000000000000000000001690f1918215613195575b600092613175575b5080821695861561312657168095036130d7573b1561308857610e74610e6e7fd51a9c61267aa6196961883ecf5ff2da6619c37dac0fa92122513fb32c032d2d9361305c93612139565b602083810151935160a00151604080516001600160a01b039485168152939091169183019190915290a3565b60408051631101335b60e11b8152600060048201526024810191909152602060448201527f4141313520696e6974436f6465206d757374206372656174652073656e6465726064820152608490fd5b60408051631101335b60e11b8152600060048201526024810191909152602060448201527f4141313420696e6974436f6465206d7573742072657475726e2073656e6465726064820152608490fd5b60408051631101335b60e11b8152600060048201526024810191909152601b60448201527f4141313320696e6974436f6465206661696c6564206f72204f4f4700000000006064820152608490fd5b61318e91925060203d811161100357610ff48183610487565b9038613012565b61319d61198c565b61300a565b60408051631101335b60e11b8152600060048201526024810191909152601f60448201527f414131302073656e64657220616c726561647920636f6e7374727563746564006064820152608490fd5b92909181613200575b50505050565b8251516001600160a01b031693843b61341057835160600151604051632b870d1b60e11b815290602082806132398888600484016122bf565b0381600060018060a01b0395867f00000000000000000000000000000000000000000000000000000000000000001690f1918215613403575b6000926133e3575b508082169687156133945716809603613345573b156132f85750610e74610e6e7fd51a9c61267aa6196961883ecf5ff2da6619c37dac0fa92122513fb32c032d2d936132c593612139565b602083810151935160a00151604080516001600160a01b039485168152939091169183019190915290a3388080806131fa565b60408051631101335b60e11b815260048101929092526024820152602060448201527f4141313520696e6974436f6465206d757374206372656174652073656e6465726064820152608490fd5b60408051631101335b60e11b8152600481018490526024810191909152602060448201527f4141313420696e6974436f6465206d7573742072657475726e2073656e6465726064820152608490fd5b60408051631101335b60e11b8152600481018690526024810191909152601b60448201527f4141313320696e6974436f6465206661696c6564206f72204f4f4700000000006064820152608490fd5b6133fc91925060203d811161100357610ff48183610487565b903861327a565b61340b61198c565b613272565b60408051631101335b60e11b815260048101929092526024820152601f60448201527f414131302073656e64657220616c726561647920636f6e7374727563746564006064820152608490fd5b1561346457565b60405162461bcd60e51b815260206004820152601f60248201527f4141343120746f6f206c6974746c6520766572696669636174696f6e476173006044820152606490fd5b91906040838203126102f15782516001600160401b0381116102f15783019080601f830112156102f1578151916134df836104f3565b916134ed6040519384610487565b838352602084830101116102f15760209261350d9184808501910161189c565b92015190565b90610380602f60405180946e020a09999903932bb32b93a32b21d1608d1b6020830152612b3f815180926020868601910161189c565b939192909360609460009460009382519361357d60a08a8701519661356f85891161345d565b01516001600160a01b031690565b9161359a8360018060a01b03166000526000602052604060002090565b956135af61083088546001600160701b031690565b918583106136c957602089976135d56135f59a6001600160701b038a8c98031690612b4f565b0151604051637a32e3bf60e11b8152988997889687939060048501612ae7565b03946001600160a01b03169103f19081839184936136a3575b5061369c575050600190613620612308565b6308c379a01461367a575b5061363257565b60408051631101335b60e11b815260006004820152602481019190915260166044820152754141333320726576657274656420286f72204f4f472960501b6064820152608490fd5b613682612326565b908161368e575061362b565b610c0d91612d369150613513565b9450925050565b9092506136c291503d8085833e6136ba8183610487565b8101906134a9565b913861360e565b60408051631101335b60e11b8152600060048201526024810191909152601e60448201527f41413331207061796d6173746572206465706f73697420746f6f206c6f7700006064820152608490fd5b91949293909360609560009560009382519061373f60a08b8401519361356f84861161345d565b9361375c8560018060a01b03166000526000602052604060002090565b61377061083082546001600160701b031690565b8781106138645792602089979592936135d589956001600160701b038c61379b9d9b99031690612b4f565b03946001600160a01b03169103f1908183918493613846575b5061383e5750506001906137c6612308565b6308c379a01461381f575b506137d95750565b60408051631101335b60e11b81526004810192909252602482015260166044820152754141333320726576657274656420286f72204f4f472960501b6064820152608490fd5b613827612326565b908161383357506137d1565b612f46925050613513565b955093505050565b90925061385d91503d8085833e6136ba8183610487565b91386137b4565b60408051631101335b60e11b8152600481018c90526024810191909152601e60448201527f41413331207061796d6173746572206465706f73697420746f6f206c6f7700006064820152608490fd5b600311156138bd57565b634e487b7160e01b600052602160045260246000fd5b9291906138f1604091600286526060602087015260608601906118bf565b930152565b9392919060038110156138bd576040916138f19186526060602087015260608601906118bf565b906103806036604051809475020a09a98103837b9ba27b8103932bb32b93a32b21d160551b602083015261395a815180926020868601910161189c565b8101036016810185520183610487565b929190925a9360009180519161397f83613fa0565b60a084018051909691946001600160a01b039390929184168080613aa157505082516001600160a01b03169050985b5a90030193840297604084019089825110613a52577f49628fd1471006c1482da88028e9ce4dbb080b815c9b0344d39e5a8e6ec1419f946139f86020928c613a4d95510390614164565b015194896020613a1f613a11865160018060a01b031690565b9a516001600160a01b031690565b9401519785604051968796169a16988590949392606092608083019683521515602083015260408201520152565b0390a4565b60408051631101335b60e11b8152600060048201526024810191909152602060448201527f414135312070726566756e642062656c6f772061637475616c476173436f73746064820152608490fd5b9a918051613ab1575b50506139ae565b6060850151600099509091803b15613b96579189918983613aeb9560405180978196829563a9a2340960e01b84528c0290600484016138d3565b0393f19081613b83575b50613b7e576001613b04612308565b6308c379a014613b5f575b613b1b575b3880613aaa565b60408051631101335b60e11b8152600060048201526024810191909152601260448201527110504d4c081c1bdcdd13dc081c995d995c9d60721b6064820152608490fd5b613b67612326565b80613b725750613b0f565b612d36610c0d9161391d565b613b14565b80610c34613b9092610459565b38613af5565b8980fd5b9392915a90600092805190613bae82613fa0565b60a083018051909791956001600160a01b039590929186168080613c7757505084516001600160a01b03169050915b5a9003019485029860408301908a825110613c2a57507f49628fd1471006c1482da88028e9ce4dbb080b815c9b0344d39e5a8e6ec1419f9493926139f8613a4d938c602094510390614164565b60408051631101335b60e11b815260048101929092526024820152602060448201527f414135312070726566756e642062656c6f772061637475616c476173436f73746064820152608490fd5b93918051613c87575b5050613bdd565b606087015160009a509091803b15613d6a57918a918a83613cc19560405180978196829563a9a2340960e01b84528c0290600484016138d3565b0393f19081613d57575b50613d52576001613cda612308565b6308c379a014613d35575b613cf1575b3880613c80565b60408051631101335b60e11b8152600481018d90526024810191909152601260448201527110504d4c081c1bdcdd13dc081c995d995c9d60721b6064820152608490fd5b613d3d612326565b80613d485750613ce5565b612f468d9161391d565b613cea565b80610c34613d6492610459565b38613ccb565b8a80fd5b909392915a94805191613d8083613fa0565b60a084018051909691946001600160a01b03939092918416908180613e4857505082516001600160a01b03169050985b5a90030193840297604084019089825110613a52577f49628fd1471006c1482da88028e9ce4dbb080b815c9b0344d39e5a8e6ec1419f94613dfa6020928c613a4d95510390614164565b613e03886138b3565b015194896020613e1c613a11865160018060a01b031690565b940151604080519182529815602082015297880152606087015290821695909116939081906080820190565b9a918151613e58575b5050613db0565b878402613e648a6138b3565b60028a14613ed6576060860151823b156102f157613e9e93600080948d6040519788968795869363a9a2340960e01b8552600485016138f6565b0393f18015613ec9575b613eb6575b505b3880613e51565b80610c34613ec392610459565b38613ead565b613ed161198c565b613ea8565b6060860151823b156102f157613f0893600080948d6040519788968795869363a9a2340960e01b8552600485016138f6565b0393f19081613f8d575b50613f88576001613f21612308565b6308c379a014613f75575b15613eaf5760408051631101335b60e11b8152600060048201526024810191909152601260448201527110504d4c081c1bdcdd13dc081c995d995c9d60721b6064820152608490fd5b613f7d612326565b80613b725750613f2c565b613eaf565b80610c34613f9a92610459565b38613f12565b60e060c0820151910151808214613fc457480180821015613fbf575090565b905090565b5090565b60405190613fd58261046c565b60006040838281528260208201520152565b613fef613fc8565b5065ffffffffffff808260a01c16801561402e575b604051926140118461046c565b6001600160a01b038116845260d01c602084015216604082015290565b5080614004565b61404a61405091614044613fc8565b50613fe7565b91613fe7565b81516001600160a01b0390811692919083156140d0575b65ffffffffffff9283918260408160208501511693015116938360408160208401511692015116908084106140c8575b508085116140c0575b50604051956140ae8761046c565b16855216602084015216604082015290565b9350386140a0565b925038614097565b815181169350614067565b6001600160a01b0316600090815260016020908152604080832084821c845290915290208054916001600160401b039161411484611bc4565b9055161490565b90614124612102565b9160018060a01b0316600052600060205263ffffffff600160406000206001600160701b03815460781c1685520154166020830152565b610380336141e7565b60018060a01b0316600052600060205260406000206001600160701b03808254169283018093116141da575b8083116141a257610380921690612b4f565b60405162461bcd60e51b815260206004820152601060248201526f6465706f736974206f766572666c6f7760801b6044820152606490fd5b6141e2611999565b614190565b6141f13482614164565b60018060a01b03168060005260006020527f2da466a7b24304f47e87fa2e1e5a81b9831ce54fec19055ce277ca2f39ba42c460206001600160701b0360406000205416604051908152a2565b1561424457565b60405162461bcd60e51b815260206004820152601a60248201527f6d757374207370656369667920756e7374616b652064656c61790000000000006044820152606490fd5b1561429057565b60405162461bcd60e51b815260206004820152601c60248201527f63616e6e6f7420646563726561736520756e7374616b652074696d65000000006044820152606490fd5b156142dc57565b60405162461bcd60e51b81526020600482015260126024820152711b9bc81cdd185ad9481cdc1958da599a595960721b6044820152606490fd5b1561431d57565b60405162461bcd60e51b815260206004820152600e60248201526d7374616b65206f766572666c6f7760901b6044820152606490fd5b9065ffffffffffff60806001610380946143776001600160701b0386511682612b4f565b602085810151825460408801516dffffffffffffffffffffffffffff60781b60789190911b1660ff60701b92151560701b929092166effffffffffffffffffffffffffffff60701b19909116171782556060860151929091018054939095015169ffffffffffff000000009416901b9290921663ffffffff90921669ffffffffffffffffffff1990911617179055565b1561440e57565b60405162461bcd60e51b8152602060048201526011602482015270616c726561647920756e7374616b696e6760781b6044820152606490fd5b91909165ffffffffffff808094169116019182116119bd57565b1561446857565b60405162461bcd60e51b81526020600482015260146024820152734e6f207374616b6520746f20776974686472617760601b6044820152606490fd5b156144ab57565b60405162461bcd60e51b815260206004820152601d60248201527f6d7573742063616c6c20756e6c6f636b5374616b6528292066697273740000006044820152606490fd5b156144f757565b60405162461bcd60e51b815260206004820152601b60248201527f5374616b65207769746864726177616c206973206e6f742064756500000000006044820152606490fd5b1561454357565b60405162461bcd60e51b815260206004820152601860248201527f6661696c656420746f207769746864726177207374616b6500000000000000006044820152606490fd5b1561458f57565b60405162461bcd60e51b81526020600482015260126024820152716661696c656420746f20776974686472617760701b6044820152606490fd5b816040519182372090565b9060009283809360208451940192f190565b3d61080080821161460d575b50604051906020818301016040528082526000602083013e90565b9050386145f2565b60028054146146245760028055565b60405162461bcd60e51b815260206004820152601f60248201527f5265656e7472616e637947756172643a207265656e7472616e742063616c6c006044820152606490fdfea264697066735822122021cffec62a51216c76d011dc1a7bc5dc9bc9c2778063d4be9584339da53c851564736f6c634300081100336080806040523461001657610190908161001c8239f35b600080fdfe6080604052600436101561001257600080fd5b6000803560e01c63570e1a361461002857600080fd5b3461009e57602036600319011261009e5760043567ffffffffffffffff9182821161009e573660238301121561009e57816004013592831161009e57366024848401011161009e5761009a61008084602485016100b8565b6040516001600160a01b0390911681529081906020820190565b0390f35b80fd5b50634e487b7160e01b600052604160045260246000fd5b908060141161013b5767ffffffffffffffff91601319820183811161014d575b60405193600b8401601f19908116603f0116850190811185821017610140575b6040528084526020840190368484011161013b576020946000600c819682946014880187378301015251923560601c5af190600051911561013557565b60009150565b600080fd5b6101486100a1565b6100f8565b6101556100a1565b6100d856fea26469706673582212206f0094f77493d633321c166340c069622c80264c6536c73ec6abd333bd60bc6464736f6c63430008110033",
    "linkReferences": {}
  },
  "methodIdentifiers": {
    "SIG_VALIDATION_FAILED()": "8f41ec5a",
    "_validateSenderAndPaymaster(bytes,address,bytes)": "957122ab",
    "addStake(uint32)": "0396cb60",
    "balanceOf(address)": "70a08231",
    "depositTo(address)": "b760faf9",
    "deposits(address)": "fc7e286d",
    "getDepositInfo(address)": "5287ce12",
    "getNonce(address,uint192)": "35567e1a",
    "getSenderAddress(bytes)": "9b249f69",
    "getUserOpHash((address,uint256,bytes,bytes,uint256,uint256,uint256,uint256,uint256,bytes,bytes))": "a6193531",
    "handleAggregatedOps(((address,uint256,bytes,bytes,uint256,uint256,uint256,uint256,uint256,bytes,bytes)[],address,bytes)[],address)": "4b1d7cf5",
    "handleOps((address,uint256,bytes,bytes,uint256,uint256,uint256,uint256,uint256,bytes,bytes)[],address)": "1fad948c",
    "incrementNonce(uint192)": "0bd28e3b",
    "innerHandleOp(bytes,((address,uint256,uint256,uint256,uint256,address,uint256,uint256),bytes32,uint256,uint256,uint256),bytes)": "1d732756",
    "nonceSequenceNumber(address,uint192)": "1b2e01b8",
    "simulateHandleOp((address,uint256,bytes,bytes,uint256,uint256,uint256,uint256,uint256,bytes,bytes),address,bytes)": "d6383f94",
    "simulateValidation((address,uint256,bytes,bytes,uint256,uint256,uint256,uint256,uint256,bytes,bytes))": "ee219423",
    "unlockStake()": "bb9fe6bf",
    "withdrawStake(address)": "c23a5cea",
    "withdrawTo(address,uint256)": "205c2878"
  },
  "id": 2
}