{
  "abi": [
    {
      "inputs": [
        {
          "internalType": "int256",
          "name": "_price",
          "type": "int256"
        },
        {
          "internalType": "uint8",
          "name": "_priceDecimals",
          "type": "uint8"
        },
        {
          "internalType": "uint8",
          "name": "_decimals",
          "type": "uint8"
        }
      ],
      "name": "_scalePrice",
      "outputs": [
        {
          "internalType": "int256",
          "name": "",
          "type": "int256"
        }
      ],
      "stateMutability": "pure",
      "type": "function"
    },
    {
      "inputs": [
        {
          "internalType": "address",
          "name": "_base",
          "type": "address"
        },
        {
          "internalType": "address",
          "name": "_quote",
          "type": "address"
        },
        {
          "internalType": "int256",
          "name": "amount",
          "type": "int256"
        }
      ],
      "name": "getDerivedPrice",
      "outputs": [
        {
          "internalType": "int256",
          "name": "",
          "type": "int256"
        }
      ],
      "stateMutability": "view",
      "type": "function"
    },
    {
      "inputs": [
        {
          "internalType": "address",
          "name": "priceFeed",
          "type": "address"
        },
        {
          "internalType": "string",
          "name": "_base",
          "type": "string"
        },
        {
          "internalType": "uint8",
          "name": "_baseDecimals",
          "type": "uint8"
        },
        {
          "internalType": "string",
          "name": "_quote",
          "type": "string"
        },
        {
          "internalType": "int256",
          "name": "amount",
          "type": "int256"
        }
      ],
      "name": "getDerivedPrice",
      "outputs": [
        {
          "internalType": "int256",
          "name": "",
          "type": "int256"
        }
      ],
      "stateMutability": "view",
      "type": "function"
    }
  ],
  "bytecode": {
    "object": "0x6080806040523461001a5761074c9081610020823930815050f35b600080fdfe6040608081526004908136101561001557600080fd5b6000803560e01c80630176cbcf1461021c5780631c66bd13146101dc578063851db876146100875763c230154e1461004c57600080fd5b6060366003190112610084576024359060ff82168203610084575060209261007d91610076610318565b91356106c9565b9051908152f35b80fd5b509160a03660031901126101d85761009d61026e565b67ffffffffffffffff916024358381116101d4576100be90369083016102c1565b926100c7610318565b926064359182116101d0576100e08692369085016102c1565b9060018060a01b03168251938385806101066355e22a2760e11b9a8b835285830161033e565b0381855afa80156101c657866101279161013a978c916101af575b50610619565b968451958694859384938452830161033e565b03915afa9081156101a5579161016d610164826101729461007d979660209a916101775750610619565b91608435610677565b610387565b6103c0565b6101979150893d8b1161019e575b61018f8183610289565b810190610328565b5038610121565b503d610185565b84513d87823e3d90fd5b6101979150873d891161019e5761018f8183610289565b84513d8b823e3d90fd5b8680fd5b8580fd5b8280fd5b50906060366003190112610218576101f261026e565b91602435906001600160a01b0382168203610084575060209261007d9160443591610456565b5080fd5b509160803660031901126101d8576001600160a01b03602435818116929083900361026a576044359282841684036101d4579161007d93918693602097523586528460643593205416610456565b8480fd5b600435906001600160a01b038216820361028457565b600080fd5b90601f8019910116810190811067ffffffffffffffff8211176102ab57604052565b634e487b7160e01b600052604160045260246000fd5b81601f820112156102845780359067ffffffffffffffff82116102ab57604051926102f6601f8401601f191660200185610289565b8284526020838301011161028457816000926020809301838601378301015290565b6044359060ff8216820361028457565b9190826040910312610284576020825192015190565b6020808252825181830181905290939260005b82811061037357505060409293506000838284010152601f8019910116010190565b818101860151848201604001528501610351565b818102929160008212600160ff1b8214166103aa5781840514901517156103aa57565b634e487b7160e01b600052601160045260246000fd5b81156103db57600160ff1b81146000198314166103aa570590565b634e487b7160e01b600052601260045260246000fd5b519069ffffffffffffffffffff8216820361028457565b908160a09103126102845761041c816103f1565b9160208201519160408101519161043a6080606084015193016103f1565b90565b90816020910312610284575160ff811681036102845790565b60408051633fabe5a360e21b8082529094936001600160a01b039360a09392919085168488600481845afa9788156105ec576000986105c8575b50835195869263313ce56760e01b9283855284600460209687935afa9788156105bd5760009861059e575b50169284519081528581600481875afa9586156105935760009661055b575b50508190600485518095819382525afa92831561055157509261016d9285610172969361043a99989660009361051e575b50508161051892936106c9565b936106c9565b6105189350908161054392903d1061054a575b61053b8183610289565b81019061043d565b913861050b565b503d610531565b513d6000823e3d90fd5b83929650908161057f92903d1061058c575b6105778183610289565b810190610408565b50505090509490386104da565b503d61056d565b85513d6000823e3d90fd5b6105b6919850843d861161054a5761053b8183610289565b96386104bb565b86513d6000823e3d90fd5b6105e0919850853d871161058c576105778183610289565b50505090509638610490565b84513d6000823e3d90fd5b9060ff8091169116039060ff82116103aa57565b604d81116103aa57600a0a90565b9060ff168060081060001461064a57600719019060ff82116103aa5761064460ff61043a931661060b565b90610387565b80600811610656575090565b6008039060ff82116103aa5761067160ff61043a931661060b565b906103c0565b9060ff16806012106000146106a257601119019060ff82116103aa5761064460ff61043a931661060b565b806012116106ae575090565b6012039060ff82116103aa5761067160ff61043a931661060b565b9060ff831660ff82168181106000146106f657505060ff6106f06106449261043a956105f7565b1661060b565b9392931161070357505090565b60ff6106f061043a9493610671936105f756fea26469706673582212205d346b31a529723d66c9889e69ce8c60ddb44be6da1ed8806b2e79f316f0ebff64736f6c63430008110033",
    "linkReferences": {}
  },
  "methodIdentifiers": {
    "_scalePrice(int256,uint8,uint8)": "c230154e",
    "getDerivedPrice(address,address,int256)": "1c66bd13",
    "getDerivedPrice(address,string,uint8,string,int256)": "851db876",
    "getDerivedPrice(mapping(IERC20 => address) storage,IERC20,address,int256)": "0176cbcf"
  },
  "id": 67
}