{
  "abi": [
    {
      "inputs": [
        {
          "internalType": "contract BaseRegistrarImplementation",
          "name": "_base",
          "type": "address"
        },
        {
          "internalType": "contract ReverseRegistrar",
          "name": "_reverseRegistrar",
          "type": "address"
        },
        {
          "internalType": "contract INameWrapper",
          "name": "_nameWrapper",
          "type": "address"
        },
        {
          "internalType": "contract ENS",
          "name": "_ens",
          "type": "address"
        }
      ],
      "stateMutability": "nonpayable",
      "type": "constructor"
    },
    {
      "inputs": [],
      "name": "InsufficientValue",
      "type": "error"
    },
    {
      "anonymous": false,
      "inputs": [
        {
          "indexed": false,
          "internalType": "string",
          "name": "name",
          "type": "string"
        },
        {
          "indexed": true,
          "internalType": "bytes32",
          "name": "label",
          "type": "bytes32"
        },
        {
          "indexed": true,
          "internalType": "address",
          "name": "owner",
          "type": "address"
        },
        {
          "indexed": false,
          "internalType": "uint256",
          "name": "baseCost",
          "type": "uint256"
        },
        {
          "indexed": false,
          "internalType": "uint256",
          "name": "premium",
          "type": "uint256"
        },
        {
          "indexed": false,
          "internalType": "uint256",
          "name": "expires",
          "type": "uint256"
        }
      ],
      "name": "NameRegistered",
      "type": "event"
    },
    {
      "anonymous": false,
      "inputs": [
        {
          "indexed": false,
          "internalType": "string",
          "name": "name",
          "type": "string"
        },
        {
          "indexed": true,
          "internalType": "bytes32",
          "name": "label",
          "type": "bytes32"
        },
        {
          "indexed": false,
          "internalType": "uint256",
          "name": "cost",
          "type": "uint256"
        },
        {
          "indexed": false,
          "internalType": "uint256",
          "name": "expires",
          "type": "uint256"
        }
      ],
      "name": "NameRenewed",
      "type": "event"
    },
    {
      "anonymous": false,
      "inputs": [
        {
          "indexed": true,
          "internalType": "address",
          "name": "previousOwner",
          "type": "address"
        },
        {
          "indexed": true,
          "internalType": "address",
          "name": "newOwner",
          "type": "address"
        }
      ],
      "name": "OwnershipTransferred",
      "type": "event"
    },
    {
      "inputs": [
        {
          "internalType": "string",
          "name": "name",
          "type": "string"
        }
      ],
      "name": "available",
      "outputs": [
        {
          "internalType": "bool",
          "name": "",
          "type": "bool"
        }
      ],
      "stateMutability": "view",
      "type": "function"
    },
    {
      "inputs": [],
      "name": "nameWrapper",
      "outputs": [
        {
          "internalType": "contract INameWrapper",
          "name": "",
          "type": "address"
        }
      ],
      "stateMutability": "view",
      "type": "function"
    },
    {
      "inputs": [],
      "name": "owner",
      "outputs": [
        {
          "internalType": "address",
          "name": "",
          "type": "address"
        }
      ],
      "stateMutability": "view",
      "type": "function"
    },
    {
      "inputs": [
        {
          "internalType": "address",
          "name": "_token",
          "type": "address"
        },
        {
          "internalType": "address",
          "name": "_to",
          "type": "address"
        },
        {
          "internalType": "uint256",
          "name": "_amount",
          "type": "uint256"
        }
      ],
      "name": "recoverFunds",
      "outputs": [],
      "stateMutability": "nonpayable",
      "type": "function"
    },
    {
      "inputs": [
        {
          "internalType": "string",
          "name": "name",
          "type": "string"
        },
        {
          "internalType": "address",
          "name": "owner",
          "type": "address"
        },
        {
          "internalType": "uint256",
          "name": "duration",
          "type": "uint256"
        },
        {
          "internalType": "address",
          "name": "resolver",
          "type": "address"
        },
        {
          "internalType": "bytes[]",
          "name": "data",
          "type": "bytes[]"
        },
        {
          "internalType": "bool",
          "name": "reverseRecord",
          "type": "bool"
        },
        {
          "internalType": "uint16",
          "name": "ownerControlledFuses",
          "type": "uint16"
        }
      ],
      "name": "register",
      "outputs": [],
      "stateMutability": "payable",
      "type": "function"
    },
    {
      "inputs": [
        {
          "internalType": "string",
          "name": "name",
          "type": "string"
        },
        {
          "internalType": "uint256",
          "name": "duration",
          "type": "uint256"
        }
      ],
      "name": "renew",
      "outputs": [],
      "stateMutability": "payable",
      "type": "function"
    },
    {
      "inputs": [],
      "name": "renounceOwnership",
      "outputs": [],
      "stateMutability": "nonpayable",
      "type": "function"
    },
    {
      "inputs": [
        {
          "internalType": "string",
          "name": "name",
          "type": "string"
        },
        {
          "internalType": "uint256",
          "name": "duration",
          "type": "uint256"
        }
      ],
      "name": "rentPrice",
      "outputs": [
        {
          "components": [
            {
              "internalType": "uint256",
              "name": "base",
              "type": "uint256"
            },
            {
              "internalType": "uint256",
              "name": "premium",
              "type": "uint256"
            }
          ],
          "internalType": "struct Price",
          "name": "price",
          "type": "tuple"
        }
      ],
      "stateMutability": "pure",
      "type": "function"
    },
    {
      "inputs": [],
      "name": "reverseRegistrar",
      "outputs": [
        {
          "internalType": "contract ReverseRegistrar",
          "name": "",
          "type": "address"
        }
      ],
      "stateMutability": "view",
      "type": "function"
    },
    {
      "inputs": [
        {
          "internalType": "bytes4",
          "name": "interfaceID",
          "type": "bytes4"
        }
      ],
      "name": "supportsInterface",
      "outputs": [
        {
          "internalType": "bool",
          "name": "",
          "type": "bool"
        }
      ],
      "stateMutability": "pure",
      "type": "function"
    },
    {
      "inputs": [
        {
          "internalType": "address",
          "name": "newOwner",
          "type": "address"
        }
      ],
      "name": "transferOwnership",
      "outputs": [],
      "stateMutability": "nonpayable",
      "type": "function"
    },
    {
      "inputs": [
        {
          "internalType": "string",
          "name": "name",
          "type": "string"
        }
      ],
      "name": "valid",
      "outputs": [
        {
          "internalType": "bool",
          "name": "",
          "type": "bool"
        }
      ],
      "stateMutability": "pure",
      "type": "function"
    },
    {
      "inputs": [],
      "name": "withdraw",
      "outputs": [],
      "stateMutability": "nonpayable",
      "type": "function"
    }
  ],
  "bytecode": {
    "object": "0x60e06040908082523462000206576080816200130880380380916200002582856200020b565b833981010312620002065780516001600160a01b039081811681036200020657602091828401519281841684036200020657858501519482861686036200020657606001519180831680930362000206576000928284543360018060a01b0319821617865560248a5180948193873391167f8be0079c531659141344cd1fd0a4f28419497f9722a3daafe3b4186f6b6457e08b80a36302571be360e01b82527f91d1777781884d03a6757a803996e38de2a42967fb37eeaca72729271025a9e260048301525afa908115620001fc5791839185938491620001b3575b508951630f41a04d60e11b8152336004820152938492602492849291165af18015620001a95762000177575b50505060c05260805260a052516110c290816200024682396080518181816105000152610981015260a0518181816102ec015281816103fc01526107d6015260c051816101ec0152f35b813d8311620001a1575b6200018d81836200020b565b810103126200019e5780806200012d565b80fd5b503d62000181565b87513d85823e3d90fd5b92809294508391503d8311620001f4575b620001d081836200020b565b81010312620001f057518181168103620001f05783918391602462000101565b8380fd5b503d620001c4565b88513d86823e3d90fd5b600080fd5b601f909101601f19168101906001600160401b038211908210176200022f57604052565b634e487b7160e01b600052604160045260246000fdfe6080604052600436101561001257600080fd5b60003560e01c80626313db146106a557806301ffc9a7146106505780633ccfd60b146106095780635d3590d514610588578063715018a61461052f57806380869853146104ea57806383e7f6ff1461049a5780638da5cb5b146104715780639791c0971461042b578063a8e5fbc0146103e6578063acf1a84114610265578063aeb8ce9b146101785763f2fde38b146100aa57600080fd5b34610173576020366003190112610173576100c3610cea565b6100cb610dc4565b6001600160a01b0390811690811561011f57600054826bffffffffffffffffffffffff60a01b821617600055167f8be0079c531659141344cd1fd0a4f28419497f9722a3daafe3b4186f6b6457e0600080a3005b60405162461bcd60e51b815260206004820152602660248201527f4f776e61626c653a206e6577206f776e657220697320746865207a65726f206160448201526564647265737360d01b6064820152608490fd5b600080fd5b3461017357602080600319360112610173576004356001600160401b038111610173576101a9903690600401610d8e565b60036101ba82518484012092610f2c565b101590816101ce575b506040519015158152f35b6040516312dc929d60e31b81526004810191909152905081816024817f00000000000000000000000000000000000000000000000000000000000000006001600160a01b03165afa9081156102595760009161022c575b50826101c3565b61024c9150823d8411610252575b6102448183610d1b565b810190610dac565b82610225565b503d61023a565b6040513d6000823e3d90fd5b6040366003190112610173576004356001600160401b03811161017357610290903690600401610ca7565b90602435906102a0368483610d57565b928351602080950120936102be846102b9368587610d57565b610e1c565b93845134106103d45760405163c475abff60e01b8152600481018790526024810191909152818160448160007f00000000000000000000000000000000000000000000000000000000000000006001600160a01b03165af1908115610259576000916103a7575b508451803411610379575b507f3da24c024582931cfaf8267d8ed24d13a82a8068d5bd337d30ec45cea4e506ae945161036b60405195869560608752606087019161103b565b9284015260408301520390a2005b6000808061038881943461105c565b81811561039e575b3390f1156102595786610330565b506108fc610390565b90508181813d83116103cd575b6103be8183610d1b565b81010312610173575186610325565b503d6103b4565b60405163044044a560e21b8152600490fd5b34610173576000366003190112610173576040517f00000000000000000000000000000000000000000000000000000000000000006001600160a01b03168152602090f35b34610173576020366003190112610173576004356001600160401b0381116101735760036104676104626020933690600401610d8e565b610f2c565b1015604051908152f35b34610173576000366003190112610173576000546040516001600160a01b039091168152602090f35b34610173576040366003190112610173576004356001600160401b038111610173576104d86104cf6040923690600401610d8e565b60243590610e1c565b60208251918051835201516020820152f35b34610173576000366003190112610173576040517f00000000000000000000000000000000000000000000000000000000000000006001600160a01b03168152602090f35b3461017357600036600319011261017357610548610dc4565b600080546001600160a01b0319811682556001600160a01b03167f8be0079c531659141344cd1fd0a4f28419497f9722a3daafe3b4186f6b6457e08280a3005b3461017357606036600319011261017357600060206105a5610cea565b60446105af610cd4565b916105b8610dc4565b60405163a9059cbb60e01b81526001600160a01b039384166004820152823560248201529485938492165af18015610259576105f057005b6106079060203d8111610252576102448183610d1b565b005b3461017357600036600319011261017357610622610dc4565b6000805481908190819047906001600160a01b0316828215610647575bf11561025957005b506108fc61063f565b346101735760203660031901126101735760043563ffffffff60e01b8116809103610173576020906301ffc9a760e01b811490811561069457506040519015158152f35b637164bd7b60e11b149050826101c3565b60e0366003190112610173576004356001600160401b038111610173576106d0903690600401610ca7565b6106d8610cd4565b606435916001600160a01b0383168303610173576001600160401b036084351161017357366023608435011215610173576001600160401b036084356004013511610173573660246084356004013560051b6084350101116101735760a4359384151585036101735760c4359361ffff85168503610173576107616044356102b9368686610d57565b956107728751602089015190610f09565b34106103d4576020604051808098635200a4c160e11b825260a0600483015261ffff6107a260a484018a8a61103b565b6001600160a01b038b81166024860152604480359086015288811660648601529190921660848401529190039082906000907f0000000000000000000000000000000000000000000000000000000000000000165af195861561025957600096610c73575b50608435600401356109e1575b6108df575b507f69e37f151eb98a09618ddaa80c8cfaf1ce5996867c489f45b555b412271ebf2791610847368284610d57565b6020815191012093865195602088015161086e60405195869560808752608087019161103b565b6020850198909852604084015260608301526001600160a01b0316940390a361089d8151602083015190610f09565b34116108a557005b600080806108c46108be85602084975191015190610f09565b3461105c565b8181156108d6575b3390f11561025957005b506108fc6108cc565b60206109719160a46108f2368787610d57565b916040519261092d602485876109118183019586815193849201611069565b8101630b989a5d60e21b89820152036004810187520185610d1b565b6040519586948593637a806d6b60e01b855233600486015233602486015260018060a01b031660448501526080606485015251809281608486015285850190611069565b601f01601f1916810103018160007f00000000000000000000000000000000000000000000000000000000000000006001600160a01b03165af18015610259571561081957602090813d83116109da575b6109cc8183610d1b565b810103126101735785610819565b503d6109c2565b6109ec368585610d57565b60208151910120604051907ffc602f00234da74893ed324e3aa56a3f7fe5cc12557d414fc4e44ab482fe140860208301526040820152604081528060608101106001600160401b03606083011117610bf657606081016040528051602082012063e32954eb60e01b606083015260a482019060648301526040608483015260843560040135905260c4810160c46084356004013560051b8301016024608435019160005b608435600401358110610c0c575060009250506060830190839003605f190181836001600160a01b0388165af1801561025957610ace575b50610814565b3d806000606084013e610ae48160608401610d1b565b81016020828203126101735760608201516001600160401b0381116101735760608201607f8285010112156101735760608184010151916001600160401b038311610bf65760208360051b9360405190610b4083870183610d1b565b815201906060810160808585880101011161017357608083860101915b60808585880101018310610b75575050505050610ac8565b82516001600160401b0381116101735760608301609f82878a010101121561017357608081868901010151610ba981610d3c565b92610bb76040519485610d1b565b8184526060850160a083858a8d01010101116101735783610be9602094938b60a087968c8860809b0193010101611069565b8152019301929050610b5d565b634e487b7160e01b600052604160045260246000fd5b84830360c3190182529091833560843536036042190181121561017357608435016001600160401b0360248201351161017357602481013536036044820113610173576020610c67600193836044602485960135910161103b565b95019493019101610a90565b9095506020813d602011610c9f575b81610c8f60209383610d1b565b8101031261017357519487610807565b3d9150610c82565b9181601f84011215610173578235916001600160401b038311610173576020838186019501011161017357565b602435906001600160a01b038216820361017357565b600435906001600160a01b038216820361017357565b604081019081106001600160401b03821117610bf657604052565b90601f801991011681019081106001600160401b03821117610bf657604052565b6001600160401b038111610bf657601f01601f191660200190565b929192610d6382610d3c565b91610d716040519384610d1b565b829481845281830111610173578281602093846000960137010152565b9080601f8301121561017357816020610da993359101610d57565b90565b90816020910312610173575180151581036101735790565b6000546001600160a01b03163303610dd857565b606460405162461bcd60e51b815260206004820152602060248201527f4f776e61626c653a2063616c6c6572206973206e6f7420746865206f776e65726044820152fd5b90610e3e602092604051610e2f81610d00565b60009481868093520152610f2c565b60058110610e88575066038d7ea4c680009080820291820403610e7457905b60405191610e6a83610d00565b8252602082015290565b634e487b7160e01b82526011600452602482fd5b60048103610eab575066071afd498d00009080820291820403610e745790610e5d565b60038103610ece5750660aa87bee5380009080820291820403610e745790610e5d565b600203610eef57660e35fa931a00009080820291820403610e745790610e5d565b662386f26fc100009080820291820403610e745790610e5d565b91908201809211610f1657565b634e487b7160e01b600052601160045260246000fd5b6000815191815b838110610f41575050905090565b815181101561102557818101602001516001600160f81b031916600160ff1b811015610f87575060018101809111610f1657915b6000198114610f165760010191610f33565b600760fd1b811015610fa5575060028101809111610f165791610f75565b600f60fc1b811015610fc3575060038101809111610f165791610f75565b601f60fb1b811015610ff857506004808201809211610fe3575091610f75565b601190634e487b7160e01b6000525260246000fd5b603f60fa1b11156110145760058101809111610f165791610f75565b60068101809111610f165791610f75565b634e487b7160e01b600052603260045260246000fd5b908060209392818452848401376000828201840152601f01601f1916010190565b91908203918211610f1657565b60005b83811061107c5750506000910152565b818101518382015260200161106c56fea26469706673582212205861f58a15f6e662e35c4f39f6bf249ecd09bb46c12716fa20a9ce9089acd1f764736f6c63430008110033",
    "linkReferences": {}
  },
  "methodIdentifiers": {
    "available(string)": "aeb8ce9b",
    "nameWrapper()": "a8e5fbc0",
    "owner()": "8da5cb5b",
    "recoverFunds(address,address,uint256)": "5d3590d5",
    "register(string,address,uint256,address,bytes[],bool,uint16)": "006313db",
    "renew(string,uint256)": "acf1a841",
    "renounceOwnership()": "715018a6",
    "rentPrice(string,uint256)": "83e7f6ff",
    "reverseRegistrar()": "80869853",
    "supportsInterface(bytes4)": "01ffc9a7",
    "transferOwnership(address)": "f2fde38b",
    "valid(string)": "9791c097",
    "withdraw()": "3ccfd60b"
  },
  "id": 107
}