{
  "abi": [
    {
      "inputs": [
        {
          "internalType": "contract ENS",
          "name": "_ens",
          "type": "address"
        },
        {
          "internalType": "contract IBaseRegistrar",
          "name": "_registrar",
          "type": "address"
        },
        {
          "internalType": "contract IMetadataService",
          "name": "_metadataService",
          "type": "address"
        }
      ],
      "stateMutability": "nonpayable",
      "type": "constructor"
    },
    {
      "inputs": [],
      "name": "CannotUpgrade",
      "type": "error"
    },
    {
      "inputs": [],
      "name": "IncompatibleParent",
      "type": "error"
    },
    {
      "inputs": [
        {
          "internalType": "address",
          "name": "owner",
          "type": "address"
        }
      ],
      "name": "IncorrectTargetOwner",
      "type": "error"
    },
    {
      "inputs": [],
      "name": "IncorrectTokenType",
      "type": "error"
    },
    {
      "inputs": [
        {
          "internalType": "bytes32",
          "name": "labelHash",
          "type": "bytes32"
        },
        {
          "internalType": "bytes32",
          "name": "expectedLabelhash",
          "type": "bytes32"
        }
      ],
      "name": "LabelMismatch",
      "type": "error"
    },
    {
      "inputs": [
        {
          "internalType": "string",
          "name": "label",
          "type": "string"
        }
      ],
      "name": "LabelTooLong",
      "type": "error"
    },
    {
      "inputs": [],
      "name": "LabelTooShort",
      "type": "error"
    },
    {
      "inputs": [],
      "name": "NameIsNotWrapped",
      "type": "error"
    },
    {
      "inputs": [
        {
          "internalType": "bytes32",
          "name": "node",
          "type": "bytes32"
        }
      ],
      "name": "OperationProhibited",
      "type": "error"
    },
    {
      "inputs": [
        {
          "internalType": "bytes32",
          "name": "node",
          "type": "bytes32"
        },
        {
          "internalType": "address",
          "name": "addr",
          "type": "address"
        }
      ],
      "name": "Unauthorised",
      "type": "error"
    },
    {
      "anonymous": false,
      "inputs": [
        {
          "indexed": true,
          "internalType": "address",
          "name": "owner",
          "type": "address"
        },
        {
          "indexed": true,
          "internalType": "address",
          "name": "approved",
          "type": "address"
        },
        {
          "indexed": true,
          "internalType": "uint256",
          "name": "tokenId",
          "type": "uint256"
        }
      ],
      "name": "Approval",
      "type": "event"
    },
    {
      "anonymous": false,
      "inputs": [
        {
          "indexed": true,
          "internalType": "address",
          "name": "account",
          "type": "address"
        },
        {
          "indexed": true,
          "internalType": "address",
          "name": "operator",
          "type": "address"
        },
        {
          "indexed": false,
          "internalType": "bool",
          "name": "approved",
          "type": "bool"
        }
      ],
      "name": "ApprovalForAll",
      "type": "event"
    },
    {
      "anonymous": false,
      "inputs": [
        {
          "indexed": true,
          "internalType": "address",
          "name": "controller",
          "type": "address"
        },
        {
          "indexed": false,
          "internalType": "bool",
          "name": "active",
          "type": "bool"
        }
      ],
      "name": "ControllerChanged",
      "type": "event"
    },
    {
      "anonymous": false,
      "inputs": [
        {
          "indexed": true,
          "internalType": "bytes32",
          "name": "node",
          "type": "bytes32"
        },
        {
          "indexed": false,
          "internalType": "uint64",
          "name": "expiry",
          "type": "uint64"
        }
      ],
      "name": "ExpiryExtended",
      "type": "event"
    },
    {
      "anonymous": false,
      "inputs": [
        {
          "indexed": true,
          "internalType": "bytes32",
          "name": "node",
          "type": "bytes32"
        },
        {
          "indexed": false,
          "internalType": "uint32",
          "name": "fuses",
          "type": "uint32"
        }
      ],
      "name": "FusesSet",
      "type": "event"
    },
    {
      "anonymous": false,
      "inputs": [
        {
          "indexed": true,
          "internalType": "bytes32",
          "name": "node",
          "type": "bytes32"
        },
        {
          "indexed": false,
          "internalType": "address",
          "name": "owner",
          "type": "address"
        }
      ],
      "name": "NameUnwrapped",
      "type": "event"
    },
    {
      "anonymous": false,
      "inputs": [
        {
          "indexed": true,
          "internalType": "bytes32",
          "name": "node",
          "type": "bytes32"
        },
        {
          "indexed": false,
          "internalType": "bytes",
          "name": "name",
          "type": "bytes"
        },
        {
          "indexed": false,
          "internalType": "address",
          "name": "owner",
          "type": "address"
        },
        {
          "indexed": false,
          "internalType": "uint32",
          "name": "fuses",
          "type": "uint32"
        },
        {
          "indexed": false,
          "internalType": "uint64",
          "name": "expiry",
          "type": "uint64"
        }
      ],
      "name": "NameWrapped",
      "type": "event"
    },
    {
      "anonymous": false,
      "inputs": [
        {
          "indexed": true,
          "internalType": "address",
          "name": "previousOwner",
          "type": "address"
        },
        {
          "indexed": true,
          "internalType": "address",
          "name": "newOwner",
          "type": "address"
        }
      ],
      "name": "OwnershipTransferred",
      "type": "event"
    },
    {
      "anonymous": false,
      "inputs": [
        {
          "indexed": true,
          "internalType": "address",
          "name": "operator",
          "type": "address"
        },
        {
          "indexed": true,
          "internalType": "address",
          "name": "from",
          "type": "address"
        },
        {
          "indexed": true,
          "internalType": "address",
          "name": "to",
          "type": "address"
        },
        {
          "indexed": false,
          "internalType": "uint256[]",
          "name": "ids",
          "type": "uint256[]"
        },
        {
          "indexed": false,
          "internalType": "uint256[]",
          "name": "values",
          "type": "uint256[]"
        }
      ],
      "name": "TransferBatch",
      "type": "event"
    },
    {
      "anonymous": false,
      "inputs": [
        {
          "indexed": true,
          "internalType": "address",
          "name": "operator",
          "type": "address"
        },
        {
          "indexed": true,
          "internalType": "address",
          "name": "from",
          "type": "address"
        },
        {
          "indexed": true,
          "internalType": "address",
          "name": "to",
          "type": "address"
        },
        {
          "indexed": false,
          "internalType": "uint256",
          "name": "id",
          "type": "uint256"
        },
        {
          "indexed": false,
          "internalType": "uint256",
          "name": "value",
          "type": "uint256"
        }
      ],
      "name": "TransferSingle",
      "type": "event"
    },
    {
      "anonymous": false,
      "inputs": [
        {
          "indexed": false,
          "internalType": "string",
          "name": "value",
          "type": "string"
        },
        {
          "indexed": true,
          "internalType": "uint256",
          "name": "id",
          "type": "uint256"
        }
      ],
      "name": "URI",
      "type": "event"
    },
    {
      "inputs": [
        {
          "internalType": "uint256",
          "name": "",
          "type": "uint256"
        }
      ],
      "name": "_tokens",
      "outputs": [
        {
          "internalType": "uint256",
          "name": "",
          "type": "uint256"
        }
      ],
      "stateMutability": "view",
      "type": "function"
    },
    {
      "inputs": [
        {
          "internalType": "bytes32",
          "name": "node",
          "type": "bytes32"
        },
        {
          "internalType": "uint32",
          "name": "fuseMask",
          "type": "uint32"
        }
      ],
      "name": "allFusesBurned",
      "outputs": [
        {
          "internalType": "bool",
          "name": "",
          "type": "bool"
        }
      ],
      "stateMutability": "view",
      "type": "function"
    },
    {
      "inputs": [
        {
          "internalType": "address",
          "name": "to",
          "type": "address"
        },
        {
          "internalType": "uint256",
          "name": "tokenId",
          "type": "uint256"
        }
      ],
      "name": "approve",
      "outputs": [],
      "stateMutability": "nonpayable",
      "type": "function"
    },
    {
      "inputs": [
        {
          "internalType": "address",
          "name": "account",
          "type": "address"
        },
        {
          "internalType": "uint256",
          "name": "id",
          "type": "uint256"
        }
      ],
      "name": "balanceOf",
      "outputs": [
        {
          "internalType": "uint256",
          "name": "",
          "type": "uint256"
        }
      ],
      "stateMutability": "view",
      "type": "function"
    },
    {
      "inputs": [
        {
          "internalType": "address[]",
          "name": "accounts",
          "type": "address[]"
        },
        {
          "internalType": "uint256[]",
          "name": "ids",
          "type": "uint256[]"
        }
      ],
      "name": "balanceOfBatch",
      "outputs": [
        {
          "internalType": "uint256[]",
          "name": "",
          "type": "uint256[]"
        }
      ],
      "stateMutability": "view",
      "type": "function"
    },
    {
      "inputs": [
        {
          "internalType": "bytes32",
          "name": "node",
          "type": "bytes32"
        },
        {
          "internalType": "address",
          "name": "addr",
          "type": "address"
        }
      ],
      "name": "canExtendSubnames",
      "outputs": [
        {
          "internalType": "bool",
          "name": "",
          "type": "bool"
        }
      ],
      "stateMutability": "view",
      "type": "function"
    },
    {
      "inputs": [
        {
          "internalType": "bytes32",
          "name": "node",
          "type": "bytes32"
        },
        {
          "internalType": "address",
          "name": "addr",
          "type": "address"
        }
      ],
      "name": "canModifyName",
      "outputs": [
        {
          "internalType": "bool",
          "name": "",
          "type": "bool"
        }
      ],
      "stateMutability": "view",
      "type": "function"
    },
    {
      "inputs": [
        {
          "internalType": "address",
          "name": "",
          "type": "address"
        }
      ],
      "name": "controllers",
      "outputs": [
        {
          "internalType": "bool",
          "name": "",
          "type": "bool"
        }
      ],
      "stateMutability": "view",
      "type": "function"
    },
    {
      "inputs": [],
      "name": "ens",
      "outputs": [
        {
          "internalType": "contract ENS",
          "name": "",
          "type": "address"
        }
      ],
      "stateMutability": "view",
      "type": "function"
    },
    {
      "inputs": [
        {
          "internalType": "bytes32",
          "name": "parentNode",
          "type": "bytes32"
        },
        {
          "internalType": "bytes32",
          "name": "labelhash",
          "type": "bytes32"
        },
        {
          "internalType": "uint64",
          "name": "expiry",
          "type": "uint64"
        }
      ],
      "name": "extendExpiry",
      "outputs": [
        {
          "internalType": "uint64",
          "name": "",
          "type": "uint64"
        }
      ],
      "stateMutability": "nonpayable",
      "type": "function"
    },
    {
      "inputs": [
        {
          "internalType": "uint256",
          "name": "id",
          "type": "uint256"
        }
      ],
      "name": "getApproved",
      "outputs": [
        {
          "internalType": "address",
          "name": "operator",
          "type": "address"
        }
      ],
      "stateMutability": "view",
      "type": "function"
    },
    {
      "inputs": [
        {
          "internalType": "uint256",
          "name": "id",
          "type": "uint256"
        }
      ],
      "name": "getData",
      "outputs": [
        {
          "internalType": "address",
          "name": "owner",
          "type": "address"
        },
        {
          "internalType": "uint32",
          "name": "fuses",
          "type": "uint32"
        },
        {
          "internalType": "uint64",
          "name": "expiry",
          "type": "uint64"
        }
      ],
      "stateMutability": "view",
      "type": "function"
    },
    {
      "inputs": [
        {
          "internalType": "address",
          "name": "account",
          "type": "address"
        },
        {
          "internalType": "address",
          "name": "operator",
          "type": "address"
        }
      ],
      "name": "isApprovedForAll",
      "outputs": [
        {
          "internalType": "bool",
          "name": "",
          "type": "bool"
        }
      ],
      "stateMutability": "view",
      "type": "function"
    },
    {
      "inputs": [
        {
          "internalType": "bytes32",
          "name": "parentNode",
          "type": "bytes32"
        },
        {
          "internalType": "bytes32",
          "name": "labelhash",
          "type": "bytes32"
        }
      ],
      "name": "isWrapped",
      "outputs": [
        {
          "internalType": "bool",
          "name": "",
          "type": "bool"
        }
      ],
      "stateMutability": "view",
      "type": "function"
    },
    {
      "inputs": [
        {
          "internalType": "bytes32",
          "name": "node",
          "type": "bytes32"
        }
      ],
      "name": "isWrapped",
      "outputs": [
        {
          "internalType": "bool",
          "name": "",
          "type": "bool"
        }
      ],
      "stateMutability": "view",
      "type": "function"
    },
    {
      "inputs": [],
      "name": "metadataService",
      "outputs": [
        {
          "internalType": "contract IMetadataService",
          "name": "",
          "type": "address"
        }
      ],
      "stateMutability": "view",
      "type": "function"
    },
    {
      "inputs": [],
      "name": "name",
      "outputs": [
        {
          "internalType": "string",
          "name": "",
          "type": "string"
        }
      ],
      "stateMutability": "view",
      "type": "function"
    },
    {
      "inputs": [
        {
          "internalType": "bytes32",
          "name": "",
          "type": "bytes32"
        }
      ],
      "name": "names",
      "outputs": [
        {
          "internalType": "bytes",
          "name": "",
          "type": "bytes"
        }
      ],
      "stateMutability": "view",
      "type": "function"
    },
    {
      "inputs": [
        {
          "internalType": "address",
          "name": "to",
          "type": "address"
        },
        {
          "internalType": "address",
          "name": "",
          "type": "address"
        },
        {
          "internalType": "uint256",
          "name": "tokenId",
          "type": "uint256"
        },
        {
          "internalType": "bytes",
          "name": "data",
          "type": "bytes"
        }
      ],
      "name": "onERC721Received",
      "outputs": [
        {
          "internalType": "bytes4",
          "name": "",
          "type": "bytes4"
        }
      ],
      "stateMutability": "nonpayable",
      "type": "function"
    },
    {
      "inputs": [],
      "name": "owner",
      "outputs": [
        {
          "internalType": "address",
          "name": "",
          "type": "address"
        }
      ],
      "stateMutability": "view",
      "type": "function"
    },
    {
      "inputs": [
        {
          "internalType": "uint256",
          "name": "id",
          "type": "uint256"
        }
      ],
      "name": "ownerOf",
      "outputs": [
        {
          "internalType": "address",
          "name": "owner",
          "type": "address"
        }
      ],
      "stateMutability": "view",
      "type": "function"
    },
    {
      "inputs": [
        {
          "internalType": "address",
          "name": "_token",
          "type": "address"
        },
        {
          "internalType": "address",
          "name": "_to",
          "type": "address"
        },
        {
          "internalType": "uint256",
          "name": "_amount",
          "type": "uint256"
        }
      ],
      "name": "recoverFunds",
      "outputs": [],
      "stateMutability": "nonpayable",
      "type": "function"
    },
    {
      "inputs": [
        {
          "internalType": "string",
          "name": "label",
          "type": "string"
        },
        {
          "internalType": "address",
          "name": "wrappedOwner",
          "type": "address"
        },
        {
          "internalType": "uint256",
          "name": "duration",
          "type": "uint256"
        },
        {
          "internalType": "address",
          "name": "resolver",
          "type": "address"
        },
        {
          "internalType": "uint16",
          "name": "ownerControlledFuses",
          "type": "uint16"
        }
      ],
      "name": "registerAndWrapETH2LD",
      "outputs": [
        {
          "internalType": "uint256",
          "name": "registrarExpiry",
          "type": "uint256"
        }
      ],
      "stateMutability": "nonpayable",
      "type": "function"
    },
    {
      "inputs": [],
      "name": "registrar",
      "outputs": [
        {
          "internalType": "contract IBaseRegistrar",
          "name": "",
          "type": "address"
        }
      ],
      "stateMutability": "view",
      "type": "function"
    },
    {
      "inputs": [
        {
          "internalType": "uint256",
          "name": "tokenId",
          "type": "uint256"
        },
        {
          "internalType": "uint256",
          "name": "duration",
          "type": "uint256"
        }
      ],
      "name": "renew",
      "outputs": [
        {
          "internalType": "uint256",
          "name": "expires",
          "type": "uint256"
        }
      ],
      "stateMutability": "nonpayable",
      "type": "function"
    },
    {
      "inputs": [],
      "name": "renounceOwnership",
      "outputs": [],
      "stateMutability": "nonpayable",
      "type": "function"
    },
    {
      "inputs": [
        {
          "internalType": "address",
          "name": "from",
          "type": "address"
        },
        {
          "internalType": "address",
          "name": "to",
          "type": "address"
        },
        {
          "internalType": "uint256[]",
          "name": "ids",
          "type": "uint256[]"
        },
        {
          "internalType": "uint256[]",
          "name": "amounts",
          "type": "uint256[]"
        },
        {
          "internalType": "bytes",
          "name": "data",
          "type": "bytes"
        }
      ],
      "name": "safeBatchTransferFrom",
      "outputs": [],
      "stateMutability": "nonpayable",
      "type": "function"
    },
    {
      "inputs": [
        {
          "internalType": "address",
          "name": "from",
          "type": "address"
        },
        {
          "internalType": "address",
          "name": "to",
          "type": "address"
        },
        {
          "internalType": "uint256",
          "name": "id",
          "type": "uint256"
        },
        {
          "internalType": "uint256",
          "name": "amount",
          "type": "uint256"
        },
        {
          "internalType": "bytes",
          "name": "data",
          "type": "bytes"
        }
      ],
      "name": "safeTransferFrom",
      "outputs": [],
      "stateMutability": "nonpayable",
      "type": "function"
    },
    {
      "inputs": [
        {
          "internalType": "address",
          "name": "operator",
          "type": "address"
        },
        {
          "internalType": "bool",
          "name": "approved",
          "type": "bool"
        }
      ],
      "name": "setApprovalForAll",
      "outputs": [],
      "stateMutability": "nonpayable",
      "type": "function"
    },
    {
      "inputs": [
        {
          "internalType": "bytes32",
          "name": "parentNode",
          "type": "bytes32"
        },
        {
          "internalType": "bytes32",
          "name": "labelhash",
          "type": "bytes32"
        },
        {
          "internalType": "uint32",
          "name": "fuses",
          "type": "uint32"
        },
        {
          "internalType": "uint64",
          "name": "expiry",
          "type": "uint64"
        }
      ],
      "name": "setChildFuses",
      "outputs": [],
      "stateMutability": "nonpayable",
      "type": "function"
    },
    {
      "inputs": [
        {
          "internalType": "address",
          "name": "controller",
          "type": "address"
        },
        {
          "internalType": "bool",
          "name": "active",
          "type": "bool"
        }
      ],
      "name": "setController",
      "outputs": [],
      "stateMutability": "nonpayable",
      "type": "function"
    },
    {
      "inputs": [
        {
          "internalType": "bytes32",
          "name": "node",
          "type": "bytes32"
        },
        {
          "internalType": "uint16",
          "name": "ownerControlledFuses",
          "type": "uint16"
        }
      ],
      "name": "setFuses",
      "outputs": [
        {
          "internalType": "uint32",
          "name": "",
          "type": "uint32"
        }
      ],
      "stateMutability": "nonpayable",
      "type": "function"
    },
    {
      "inputs": [
        {
          "internalType": "contract IMetadataService",
          "name": "_metadataService",
          "type": "address"
        }
      ],
      "name": "setMetadataService",
      "outputs": [],
      "stateMutability": "nonpayable",
      "type": "function"
    },
    {
      "inputs": [
        {
          "internalType": "bytes32",
          "name": "node",
          "type": "bytes32"
        },
        {
          "internalType": "address",
          "name": "owner",
          "type": "address"
        },
        {
          "internalType": "address",
          "name": "resolver",
          "type": "address"
        },
        {
          "internalType": "uint64",
          "name": "ttl",
          "type": "uint64"
        }
      ],
      "name": "setRecord",
      "outputs": [],
      "stateMutability": "nonpayable",
      "type": "function"
    },
    {
      "inputs": [
        {
          "internalType": "bytes32",
          "name": "node",
          "type": "bytes32"
        },
        {
          "internalType": "address",
          "name": "resolver",
          "type": "address"
        }
      ],
      "name": "setResolver",
      "outputs": [],
      "stateMutability": "nonpayable",
      "type": "function"
    },
    {
      "inputs": [
        {
          "internalType": "bytes32",
          "name": "parentNode",
          "type": "bytes32"
        },
        {
          "internalType": "string",
          "name": "label",
          "type": "string"
        },
        {
          "internalType": "address",
          "name": "owner",
          "type": "address"
        },
        {
          "internalType": "uint32",
          "name": "fuses",
          "type": "uint32"
        },
        {
          "internalType": "uint64",
          "name": "expiry",
          "type": "uint64"
        }
      ],
      "name": "setSubnodeOwner",
      "outputs": [
        {
          "internalType": "bytes32",
          "name": "node",
          "type": "bytes32"
        }
      ],
      "stateMutability": "nonpayable",
      "type": "function"
    },
    {
      "inputs": [
        {
          "internalType": "bytes32",
          "name": "parentNode",
          "type": "bytes32"
        },
        {
          "internalType": "string",
          "name": "label",
          "type": "string"
        },
        {
          "internalType": "address",
          "name": "owner",
          "type": "address"
        },
        {
          "internalType": "address",
          "name": "resolver",
          "type": "address"
        },
        {
          "internalType": "uint64",
          "name": "ttl",
          "type": "uint64"
        },
        {
          "internalType": "uint32",
          "name": "fuses",
          "type": "uint32"
        },
        {
          "internalType": "uint64",
          "name": "expiry",
          "type": "uint64"
        }
      ],
      "name": "setSubnodeRecord",
      "outputs": [
        {
          "internalType": "bytes32",
          "name": "node",
          "type": "bytes32"
        }
      ],
      "stateMutability": "nonpayable",
      "type": "function"
    },
    {
      "inputs": [
        {
          "internalType": "bytes32",
          "name": "node",
          "type": "bytes32"
        },
        {
          "internalType": "uint64",
          "name": "ttl",
          "type": "uint64"
        }
      ],
      "name": "setTTL",
      "outputs": [],
      "stateMutability": "nonpayable",
      "type": "function"
    },
    {
      "inputs": [
        {
          "internalType": "contract INameWrapperUpgrade",
          "name": "_upgradeAddress",
          "type": "address"
        }
      ],
      "name": "setUpgradeContract",
      "outputs": [],
      "stateMutability": "nonpayable",
      "type": "function"
    },
    {
      "inputs": [
        {
          "internalType": "bytes4",
          "name": "interfaceId",
          "type": "bytes4"
        }
      ],
      "name": "supportsInterface",
      "outputs": [
        {
          "internalType": "bool",
          "name": "",
          "type": "bool"
        }
      ],
      "stateMutability": "view",
      "type": "function"
    },
    {
      "inputs": [
        {
          "internalType": "address",
          "name": "newOwner",
          "type": "address"
        }
      ],
      "name": "transferOwnership",
      "outputs": [],
      "stateMutability": "nonpayable",
      "type": "function"
    },
    {
      "inputs": [
        {
          "internalType": "bytes32",
          "name": "parentNode",
          "type": "bytes32"
        },
        {
          "internalType": "bytes32",
          "name": "labelhash",
          "type": "bytes32"
        },
        {
          "internalType": "address",
          "name": "controller",
          "type": "address"
        }
      ],
      "name": "unwrap",
      "outputs": [],
      "stateMutability": "nonpayable",
      "type": "function"
    },
    {
      "inputs": [
        {
          "internalType": "bytes32",
          "name": "labelhash",
          "type": "bytes32"
        },
        {
          "internalType": "address",
          "name": "registrant",
          "type": "address"
        },
        {
          "internalType": "address",
          "name": "controller",
          "type": "address"
        }
      ],
      "name": "unwrapETH2LD",
      "outputs": [],
      "stateMutability": "nonpayable",
      "type": "function"
    },
    {
      "inputs": [
        {
          "internalType": "bytes",
          "name": "_name",
          "type": "bytes"
        },
        {
          "internalType": "bytes",
          "name": "extraData",
          "type": "bytes"
        }
      ],
      "name": "upgrade",
      "outputs": [],
      "stateMutability": "nonpayable",
      "type": "function"
    },
    {
      "inputs": [],
      "name": "upgradeContract",
      "outputs": [
        {
          "internalType": "contract INameWrapperUpgrade",
          "name": "",
          "type": "address"
        }
      ],
      "stateMutability": "view",
      "type": "function"
    },
    {
      "inputs": [
        {
          "internalType": "uint256",
          "name": "tokenId",
          "type": "uint256"
        }
      ],
      "name": "uri",
      "outputs": [
        {
          "internalType": "string",
          "name": "",
          "type": "string"
        }
      ],
      "stateMutability": "view",
      "type": "function"
    },
    {
      "inputs": [
        {
          "internalType": "bytes",
          "name": "_name",
          "type": "bytes"
        },
        {
          "internalType": "address",
          "name": "wrappedOwner",
          "type": "address"
        },
        {
          "internalType": "address",
          "name": "resolver",
          "type": "address"
        }
      ],
      "name": "wrap",
      "outputs": [],
      "stateMutability": "nonpayable",
      "type": "function"
    },
    {
      "inputs": [
        {
          "internalType": "string",
          "name": "label",
          "type": "string"
        },
        {
          "internalType": "address",
          "name": "wrappedOwner",
          "type": "address"
        },
        {
          "internalType": "uint16",
          "name": "ownerControlledFuses",
          "type": "uint16"
        },
        {
          "internalType": "address",
          "name": "resolver",
          "type": "address"
        }
      ],
      "name": "wrapETH2LD",
      "outputs": [
        {
          "internalType": "uint64",
          "name": "expiry",
          "type": "uint64"
        }
      ],
      "stateMutability": "nonpayable",
      "type": "function"
    }
  ],
  "bytecode": {
    "object": "0x60c0604090808252346200037457606081620058ef803803809162000025828562000379565b833981010312620003745780516001600160a01b03919082811680820362000374576020928381015190858216820362000374578601519285841680940362000374576000958654938660018060a01b03199533878216178a5560248b51809481938d7f8be0079c531659141344cd1fd0a4f28419497f9722a3daafe3b4186f6b6457e0893393169180a36302571be360e01b82527f91d1777781884d03a6757a803996e38de2a42967fb37eeaca72729271025a9e260048301525afa9081156200036a579187918993849162000321575b508a51630f41a04d60e11b8152336004820152938492602492849291165af180156200031757908691620002e4575b505060805260a05260055416176005557ffc602f00234da74893ed324e3aa56a3f7fe5cc12557d414fc4e44ab482fe140890818352600191828252600163fffeffff60a01b0319808686205584805285852055600682528484206200018c8154620003b3565b601f8111620002b6575b506002905583526006815283832092620001b18454620003b3565b91601f831162000291575b600a62d89a5d60e21b01855585516154fe9081620003f182396080518181816109ed01528181610d600152818161141e015281816114af015281816121a6015281816122aa015281816124ae0152818161270b01528181612adb01528181613e1a015281816143820152818161443e015281816145970152818161508d01528181615131015281816151fb01526153d7015260a051818181610b3201528181611034015281816119fd01528181611b1c01528181611fc1015281816121390152818161223a01528181613d48015261468b0152f35b601f908583528220920160051c8201915b82811015620001bc578181558301620002a2565b81865284601f858820920160051c8201915b828110620002d857505062000196565b878155018590620002c8565b813d83116200030f575b620002fa818362000379565b810103126200030b57843862000126565b8580fd5b503d620002ee565b88513d89823e3d90fd5b92809294508391503d831162000362575b6200033e818362000379565b810103126200035e575181811681036200035e57879187916024620000f7565b8780fd5b503d62000332565b89513d8a823e3d90fd5b600080fd5b601f909101601f19168101906001600160401b038211908210176200039d57604052565b634e487b7160e01b600052604160045260246000fd5b90600182811c92168015620003e5575b6020831014620003cf57565b634e487b7160e01b600052602260045260246000fd5b91607f1691620003c356fe60806040526004361015610013575b600080fd5b60003560e01c8062fdd58e146103d25780630178fe3f146103c957806301ffc9a7146103c057806306fdde03146103b7578063081812fc146103ae578063095ea7b3146103a55780630e4cd7251461039c5780630e89341c1461039357806314ab90381461038a578063150b7a02146103815780631534e177146103785780631896f70a1461036f5780631f4e15041461036657806320c38e2b1461035d57806324c1af44146103545780632b20e3971461034b5780632eb2c2d61461034257806333c69ea9146103395780633f15457f14610330578063402906fc1461032757806341415eab1461031e5780634e1273f414610315578063530954671461030c5780635d3590d5146103035780636352211e146102fa5780636e5d6ad2146102f1578063715018a6146102e85780638b4dfa75146102df5780638cf8b41e146102d65780638da5cb5b146102cd578063a22cb465146102c4578063a4014982146102bb578063adf4960a146102b2578063b6bcad26146102a9578063c475abff146102a0578063c658e08614610297578063c93ab3fd1461028e578063cf40882314610285578063d8c9921a1461027c578063d9a50c1214610273578063da8c229e1461026a578063e0dba60f14610261578063e985e9c514610258578063eb8ae5301461024f578063ed70554d14610246578063f242432a1461023d578063f2fde38b146102345763fd0cd0d91461022c57600080fd5b61000e612ec7565b5061000e612dff565b5061000e612d00565b5061000e612cd3565b5061000e612a11565b5061000e6129a8565b5061000e61293b565b5061000e6128f8565b5061000e6128d6565b5061000e61282b565b5061000e6126a7565b5061000e61254a565b5061000e6123aa565b5061000e61236e565b5061000e61209a565b5061000e612057565b5061000e611f04565b5061000e611e2c565b5061000e611dd3565b5061000e611aa5565b5061000e611991565b5061000e611935565b5061000e6117ea565b5061000e6117b5565b5061000e61170f565b5061000e6116e5565b5061000e611629565b5061000e6115b9565b5061000e611511565b5061000e611498565b5061000e61128d565b5061000e6110e7565b5061000e61101d565b5061000e610f91565b5061000e610ed8565b5061000e610dce565b5061000e610d15565b5061000e610ccd565b5061000e610ad9565b5061000e6109a6565b5061000e610844565b5061000e61080f565b5061000e6106e2565b5061000e6106b1565b5061000e610660565b5061000e61048a565b5061000e610420565b5061000e6103ec565b6001600160a01b0381160361000e57565b503461000e57604036600319011261000e57602061041860043561040f816103db565b60243590612f08565b604051908152f35b503461000e57602036600319011261000e57606063ffffffff6001600160401b0361045961044f600435613b53565b92919083916147d7565b6040949194519460018060a01b03168552166020840152166040820152f35b6001600160e01b031981160361000e57565b503461000e57602036600319011261000e5760206004356104aa81610478565b63ffffffff60e01b16631b05885b60e31b811490811561051a575b81156104d7575b506040519015158152f35b636cdb3d1360e11b811491508115610509575b81156104f8575b50386104cc565b6301ffc9a760e01b149050386104f1565b6303a24d0760e21b811491506104ea565b630a85bd0160e11b811491506104c5565b600091031261000e57565b50634e487b7160e01b600052604160045260246000fd5b6001600160401b03811161056057604052565b610568610536565b604052565b604081019081106001600160401b0382111761056057604052565b90601f801991011681019081106001600160401b0382111761056057604052565b6020906001600160401b0381116105c6575b601f01601f19160190565b6105ce610536565b6105bb565b60405190602082018281106001600160401b038211176105f7575b60405260008252565b6105ff610536565b6105ee565b60005b8381106106175750506000910152565b8181015183820152602001610607565b9060209161064081518092818552858086019101610604565b601f01601f1916010190565b90602061065d928181520190610627565b90565b503461000e57600036600319011261000e576106ad6040516106818161056d565b600b81526a2730b6b2abb930b83832b960a91b6020820152604051918291602083526020830190610627565b0390f35b503461000e57602036600319011261000e5760206106d0600435613a2f565b6040516001600160a01b039091168152f35b503461000e57604036600319011261000e57600435610700816103db565b60243560408061071861071284613b53565b916147d7565b905016146107f75761072c61071282613b53565b50916001600160a01b0380841690821681146107a85761075f9361075a913314908115610761575b50613a66565b613ad8565b005b6001600160a01b031660009081526002602052604090206107a2915061079b9033905b9060018060a01b0316600052602052604060002090565b5460ff1690565b38610754565b60405162461bcd60e51b815260206004820152602160248201527f4552433732313a20617070726f76616c20746f2063757272656e74206f776e656044820152603960f91b6064820152608490fd5b6024906040519063a2a7201360e01b82526004820152fd5b503461000e57604036600319011261000e57602061083a602435610832816103db565b600435613beb565b6040519015158152f35b503461000e57602036600319011261000e576005546040516303a24d0760e21b815260048035908201526000918290829060249082906001600160a01b03165afa90811561092b575b82916108a2575b604051806106ad848261064c565b90503d8083833e6108b38183610588565b810190602081830312610923578051906001600160401b038211610927570181601f82011215610923578051926108e9846105a9565b926108f76040519485610588565b8484526020858401011161092057506106ad9261091a9160208085019101610604565b38610894565b80fd5b8280fd5b8380fd5b610933612efb565b61088d565b602435906001600160401b038216820361000e57565b608435906001600160401b038216820361000e57565b60c435906001600160401b038216820361000e57565b606435906001600160401b038216820361000e57565b604435906001600160401b038216820361000e57565b503461000e5760006040366003190112610920576004356109c5610938565b6109cf3383613b7f565b15610a895760106109e261071284613b53565b905016610a705782907f00000000000000000000000000000000000000000000000000000000000000006001600160a01b0316803b15610923576001600160401b0393836044926040519687958694630295720760e31b865260048601521660248401525af18015610a63575b610a57575080f35b610a609061054d565b80f35b610a6b612efb565b610a4f565b60405163a2a7201360e01b815260048101839052602490fd5b60405163168ab55d60e31b815260048101839052336024820152604490fd5b0390fd5b9181601f8401121561000e578235916001600160401b03831161000e576020838186019501011161000e57565b503461000e57608036600319011261000e576004610af781356103db565b610b026024356103db565b604435606435916001600160401b039283811161000e57610b269036908301610aac565b6001600160a01b0392917f000000000000000000000000000000000000000000000000000000000000000084169133839003610cbc5790610b69918101906146e9565b9592939194909684516020860120818103610c995750823b1561000e57610c2698610bff6020610c1a9361ffff968896604051630a3b53db60e21b815260008180610bcc30888784019092916020906040830194835260018060a01b0316910152565b038183875af18015610c8c575b610c73575b50604051636b727d4360e11b81529081019283529384928391829160200190565b03915afa908115610c66575b600091610c38575b5016613c95565b95169516921690615011565b604051630a85bd0160e11b8152602090f35b610c59915060203d8111610c5f575b610c518183610588565b810190613c86565b38610c13565b503d610c47565b610c6e612efb565b610c0b565b80610c80610c869261054d565b8061052b565b38610bde565b610c94612efb565b610bd9565b604080516331970f3360e21b815280850192835260208301849052918291010390fd5b60405163032634a760e31b81528490fd5b503461000e57602036600319011261000e57600435610ceb816103db565b610cf36139d7565b600580546001600160a01b0319166001600160a01b0392909216919091179055005b503461000e576000604036600319011261092057600435602435610d38816103db565b610d423383613b7f565b15610a89576008610d5561071284613b53565b905016610a705782907f00000000000000000000000000000000000000000000000000000000000000006001600160a01b0316803b1561092357604051630c4b7b8560e11b815260048101949094526001600160a01b039190911660248401528290604490829084905af18015610a6357610a57575080f35b503461000e57600036600319011261000e576007546040516001600160a01b039091168152602090f35b90600182811c92168015610e28575b6020831014610e1257565b634e487b7160e01b600052602260045260246000fd5b91607f1691610e07565b9060405191826000825492610e4684610df8565b908184526001948581169081600014610eb55750600114610e72575b5050610e7092500383610588565b565b9093915060005260209081600020936000915b818310610e9d575050610e7093508201013880610e62565b85548884018501529485019487945091830191610e85565b915050610e7094506020925060ff191682840152151560051b8201013880610e62565b503461000e57602036600319011261000e5760043560005260066020526106ad610f056040600020610e32565b604051918291602083526020830190610627565b929192610f25826105a9565b91610f336040519384610588565b82948184528183011161000e578281602093846000960137010152565b9080601f8301121561000e5781602061065d93359101610f19565b6044359063ffffffff8216820361000e57565b6064359063ffffffff8216820361000e57565b503461000e5760e036600319011261000e576024356001600160401b03811161000e57610fc2903690600401610f50565b604435610fce816103db565b60643591610fdb836103db565b610fe361094e565b60a4359063ffffffff8216820361000e576106ad9461100d94611004610964565b9460043561431d565b6040519081529081906020820190565b503461000e57600036600319011261000e576040517f00000000000000000000000000000000000000000000000000000000000000006001600160a01b03168152602090f35b6020906001600160401b03811161107c575b60051b0190565b611084610536565b611075565b81601f8201121561000e578035916110a083611063565b926110ae6040519485610588565b808452602092838086019260051b82010192831161000e578301905b8282106110d8575050505090565b813581529083019083016110ca565b503461000e5760a036600319011261000e57600435611105816103db565b602435611111816103db565b6001600160401b039160443583811161000e57611132903690600401611089565b9060643584811161000e5761114b903690600401611089565b9360843590811161000e57611164903690600401610f50565b926111728351865114613150565b6001600160a01b038181169490939061118c8615156130f6565b84841693338514801561125f575b6111a3906131ad565b60005b835181101561121a5780611204888b886111ce856111c7611209988c61300c565b519361300c565b51916111ff60018d6111df84613b39565b98919390976111ef8a8a8961475a565b14928361120e575b505050613214565b613298565b612fd9565b6111a6565b161490508d8f386111f7565b5061075f9284899289886040517f4a39dc06d4c0dbc64b70af90fd698a233a518aa5d07e595d983b8c0526c8f7fb3391806112568a8a83613273565b0390a4336138ff565b506111a361128661079b336107848560018060a01b03166000526002602052604060002090565b905061119a565b503461000e57608036600319011261000e5760048035906112ac610f6b565b916112b561097a565b6112c160243583614858565b906112cc858361537b565b6112d582613b39565b9491929091906001600160a01b03808516159081156113fa575b506113e9576112fd82613b39565b93909150806113a657506113186113143388613b7f565b1590565b61138357611333929161132e88925b8b89614fb9565b614fde565b9462010000821615158061136e575b611352575061075f9517916152b9565b60405163a2a7201360e01b815290810184815281906020010390fd5b5063ffffffff80831690888417161415611342565b6040805163168ab55d60e31b8152808a0188815233602082015290918291010390fd5b6113b36113143383613b7f565b6113c75750611333929161132e8892611327565b6040805163168ab55d60e31b8152808b01928352336020840152918291010390fd5b604051635374b59960e01b81528790fd5b6040516302571be360e01b81528981018881529092506020908390819083010381847f0000000000000000000000000000000000000000000000000000000000000000165afa91821561148b575b60009261145b575b5016301415386112ef565b61147d91925060203d8111611484575b6114758183610588565b810190613c71565b9038611450565b503d61146b565b611493612efb565b611448565b503461000e57600036600319011261000e576040517f00000000000000000000000000000000000000000000000000000000000000006001600160a01b03168152602090f35b6024359061ffff8216820361000e57565b6044359061ffff8216820361000e57565b6084359061ffff8216820361000e57565b503461000e57604036600319011261000e5760043561152e6114de565b906115393382613b7f565b1561159957600261154c61071283613b53565b9050166107f7576115826106ad926115768361156a61ffff95613b53565b809592918195926147d7565b968791921617916152b9565b60405163ffffffff90911681529081906020820190565b60405163168ab55d60e31b81526004810191909152336024820152604490fd5b503461000e57604036600319011261000e57602061083a6024356115dc816103db565b600435613b7f565b90815180825260208080930193019160005b828110611604575050505090565b8351855293810193928101926001016115f6565b90602061065d9281815201906115e4565b503461000e57604036600319011261000e576004356001600160401b0380821161000e573660238301121561000e57816004013561166681611063565b926116746040519485610588565b81845260209160248386019160051b8301019136831161000e57602401905b8282106116cc578560243586811161000e576106ad916116ba6116c0923690600401611089565b9061302e565b60405191829182611618565b83809183356116da816103db565b815201910190611693565b503461000e57600036600319011261000e576005546040516001600160a01b039091168152602090f35b503461000e57606036600319011261000e5760006020600435611731816103db565b604460243591611740836103db565b6117486139d7565b60405163a9059cbb60e01b81526001600160a01b039384166004820152823560248201529485938492165af180156117a8575b61178157005b61075f9060203d81116117a1575b6117998183610588565b810190612ee6565b503d61178f565b6117b0612efb565b61177b565b503461000e57602036600319011261000e5760206117d7610712600435613b53565b506040516001600160a01b039091168152f35b503461000e57606036600319011261000e57600435611807610990565b61181360243583614858565b9161182061131484615392565b611923576118316113143383613beb565b918280611910575b6118f15761184684613b39565b91939094806118e4575b6118cb5761187c926106ad96949261186a61187393613b39565b93915050614fde565b93849184615347565b6040516001600160401b03831681527ff675815a0817338f93a7da433f6bd5f5542f1029b11b455191ac96c7f6a9b13290602090a26040516001600160401b0390911681529081906020820190565b60405163a2a7201360e01b815260048101879052602490fd5b5062040000851615611850565b60405163168ab55d60e31b815260048101859052336024820152604490fd5b5061191e6113143386613b7f565b611839565b604051635374b59960e01b8152600490fd5b503461000e57600080600319360112610920576119506139d7565b80546001600160a01b03198116825581906001600160a01b03167f8be0079c531659141344cd1fd0a4f28419497f9722a3daafe3b4186f6b6457e08280a380f35b503461000e57606036600319011261000e576004356024356119b2816103db565b6044356119be816103db565b6119c783614809565b6119d13382613b7f565b1561159957506001600160a01b03908282163014611a84576119fb906119f685614809565b6151d8565b7f00000000000000000000000000000000000000000000000000000000000000001691823b1561000e57604051632142170760e11b81523060048201526001600160a01b039290921660248301526044820152906000908290606490829084905af18015611a77575b611a6a57005b80610c8061075f9261054d565b611a7f612efb565b611a64565b604051632ca49b0d60e11b81526001600160a01b0384166004820152602490fd5b503461000e57608036600319011261000e576001600160401b036004803582811161000e57611ad79036908301610aac565b60249291923590611ae7826103db565b611aef6114ef565b9060643591611afd836103db565b611b08368388610f19565b93845160208096012060018060a01b0396877f000000000000000000000000000000000000000000000000000000000000000016916040988951906331a9108f60e11b8252898280611b61868883019190602083019252565b0381885afa918215611dc6575b600092611da7575b50811633141580611d35575b611d0757833b1561000e5789516323b872dd60e01b81526001600160a01b039091168382019081523060208201526040810183905260009082908190606001038183885af18015611cfa575b611ce7575b50823b1561000e576106ad9a88611c57611c859a611c739461ffff97611c7d978f8051630a3b53db60e21b815260008180611c2630898884019092916020906040830194835260018060a01b0316910152565b038183885af18015611cda575b611cc7575b5051636b727d4360e11b81529081019283529384928391829160200190565b03915afa918215611cba575b600092611c9d575b505016613c95565b9889953691610f19565b921691615011565b516001600160401b0390911681529081906020820190565b611cb39250803d10610c5f57610c518183610588565b3880611c6b565b611cc2612efb565b611c63565b80610c80611cd49261054d565b38611c38565b611ce2612efb565b611c33565b80610c80611cf49261054d565b38611bd3565b611d02612efb565b611bce565b50610aa8611d158a92614809565b915163168ab55d60e31b8152928301918252336020830152829160400190565b50895163e985e9c560e01b81526001600160a01b0382168482019081523360208201528a90829081906040010381885afa908115611d9a575b600091611d7d575b5015611b82565b611d9491508a3d8c116117a1576117998183610588565b38611d76565b611da2612efb565b611d6e565b611dbf9192508a3d8c11611484576114758183610588565b9038611b76565b611dce612efb565b611b6e565b503461000e57600036600319011261000e576000546040516001600160a01b039091168152602090f35b8015150361000e57565b604090600319011261000e57600435611e1f816103db565b9060243561065d81611dfd565b503461000e57611e3b36611e07565b6001600160a01b03821691338314611ead57336000908152600260205260409020611e7d918391611e6c9190610784565b9060ff801983541691151516179055565b60405190151581527f17307eab39ab6107e8899845ad3d59bd9653f200f220920489ca2b5937696c3160203392a3005b60405162461bcd60e51b815260206004820152602960248201527f455243313135353a2073657474696e6720617070726f76616c20737461747573604482015268103337b91039b2b63360b91b6064820152608490fd5b503461000e5760a036600319011261000e576004356001600160401b0380821161000e57611fbb611f3c6106ad933690600401610aac565b60243591611f49836103db565b60643592611f56846103db565b611f5e611500565b91336000526004602052611f7960ff60406000205416613cb7565b6020611f86368684610f19565b805190820120604051633f2891eb60e21b81526004810191909152306024820152604480359082015296879081906064820190565b038160007f00000000000000000000000000000000000000000000000000000000000000006001600160a01b03165af195861561204a575b60009661201a575b50611c7d61ffff91612012889961100d9916613c95565b953691610f19565b61100d965061ffff91612012612040611c7d9360203d8111610c5f57610c518183610588565b9850509150611ffb565b612052612efb565b611ff3565b503461000e57604036600319011261000e5763ffffffff60243581811680820361000e5760209261208c610712600435613b53565b939050604051931616148152f35b503461000e57602036600319011261000e576004356120b8816103db565b6120c06139d7565b6007546120dd906001600160a01b03165b6001600160a01b031690565b906001600160a01b0390818316612237575b61211791925060018060a01b03166bffffffffffffffffffffffff60a01b6007541617600755565b60075461212c906001600160a01b03166120d1565b9080821661213657005b807f00000000000000000000000000000000000000000000000000000000000000001690813b1561000e5760405163a22cb46560e01b8082526001600160a01b039490941660048201526001602482015260009283908290604490829084905af1801561222a575b612217575b507f0000000000000000000000000000000000000000000000000000000000000000166121da6120d160075460018060a01b031690565b90803b15610923576040519384526001600160a01b03919091166004840152600160248401528290604490829084905af18015611a7757611a6a57005b80610c806122249261054d565b386121a3565b612232612efb565b61219e565b817f00000000000000000000000000000000000000000000000000000000000000001692833b1561000e5760405163a22cb46560e01b8082526001600160a01b039290921660048201526000602482018190529485908290604490829084905af18015612361575b61234e575b506007547f00000000000000000000000000000000000000000000000000000000000000008416906122de906001600160a01b03166120d1565b91813b1561234a576040519081526001600160a01b03929092166004830152600060248301529293612117938290604490829084905af1801561233d575b61232a575b508291506120ef565b80610c806123379261054d565b38612321565b612345612efb565b61231c565b8580fd5b80610c8061235b9261054d565b386122a4565b612369612efb565b61229f565b503461000e57604036600319011261000e5733600052600460205261239a60ff60406000205416613cb7565b6020610418602435600435613d14565b503461000e5760a036600319011261000e576004356024356001600160401b03811161000e576123de903690600401610aac565b604435906123eb826103db565b6123f3610f7e565b6123fb61094e565b926124063387613b7f565b1561252b576106ad9561241a368588610f19565b6020815191012061242b8183614858565b809761243782856144f8565b612441868361537b565b612462612459612452368a85610f19565b8487614de7565b98878487614f89565b9661246f61131484615392565b1561250e5750506040516306ab592360e01b8152600481019390935250602482015230604482015261100d949060208160648160006001600160a01b037f0000000000000000000000000000000000000000000000000000000000000000165af18015612501575b6124e3575b5085614a15565b6124fa9060203d8111610c5f57610c518183610588565b50386124dc565b612509612efb565b6124d7565b61252698506125209293503691610f19565b91614ee8565b61100d565b60405163168ab55d60e31b815260048101879052336024820152604490fd5b503461000e57604036600319011261000e5760046001600160401b03813581811161000e5761257c9036908401610aac565b909160243590811161000e576125959036908501610aac565b6000929192936125af856125aa368685610f19565b614002565b6007549092906001600160a01b03906125c99082166120d1565b1615612696576125dc6113143385613b7f565b6126735785966125ee84979697613b39565b939091986126046125fe88613a2f565b9761428b565b600754612619906001600160a01b03166120d1565b96873b1561266f578995612642946040519c8d9b8c9a8b996348cc613b60e11b8b528a01614232565b03925af18015612662575b612655575080f35b80610c80610a609261054d565b61266a612efb565b61264d565b8980fd5b6040805163168ab55d60e31b815280890185815233602082015290918291010390fd5b60405163093075b560e21b81528790fd5b503461000e57608036600319011261000e576004356024356126c8816103db565b6044356126d4816103db565b6126dc61097a565b6126e63385613b7f565b156118f157601c6126f961071286613b53565b905016612812576001600160a01b03917f0000000000000000000000000000000000000000000000000000000000000000831691823b1561000e5760405163cf40882360e01b8152600481018790523060248201526001600160a01b039290921660448301526001600160401b03166064820152906000908290608490829084905af18015612805575b6127f2575b5081166127d45761279882613b39565b50905062020000809116146127b1575061075f9061510f565b604051632ca49b0d60e11b81526001600160a01b03919091166004820152602490fd5b816127e161075f93613b39565b5050916127ec6105d3565b926132d5565b80610c806127ff9261054d565b38612788565b61280d612efb565b612783565b60405163a2a7201360e01b815260048101859052602490fd5b503461000e57606036600319011261000e5760243560443560043561284f826103db565b6128598382614858565b6128633382613b7f565b15611599575060008051602061548983398151915281146128c4576001600160a01b038216801580156128bb575b6128a3575061075f926119f691614858565b60249060405190632ca49b0d60e11b82526004820152fd5b50308114612891565b60405163615a470360e01b8152600490fd5b503461000e57604036600319011261000e57602061083a60243560043561463c565b503461000e57602036600319011261000e57600435612916816103db565b60018060a01b03166000526004602052602060ff604060002054166040519015158152f35b503461000e5760207f4c97694570a07277810af7e5669ffd5f6a2d6b74b6e9a274b8b870fd5114cf8761296d36611e07565b92906129776139d7565b6001600160a01b031660008181526004835260409020805460ff191660ff86151516179055926040519015158152a2005b503461000e57604036600319011261000e57602060ff612a056004356129cd816103db565b602435906129da826103db565b60018060a01b03166000526002845260406000209060018060a01b0316600052602052604060002090565b54166040519015158152f35b503461000e57606036600319011261000e57600480356001600160401b03811161000e57612a45612a939136908401610aac565b6024359291612a53846103db565b60443591612a60836103db565b600080516020615489833981519152612a9a612a85612a80368587610f19565b6140d8565b6125aa979197368688610f19565b9586614858565b94612ab98385612ab4896000526006602052604060002090565b613f2d565b14612cc2576040516302571be360e01b81528681018581526001600160a01b037f00000000000000000000000000000000000000000000000000000000000000008116959290918990602090819084908190830103818b5afa928315612cb5575b600093612c96575b503384841614159182612c1c575b50509050611383578116612bb6575b50823b1561000e5760408051635b0fc9c360e01b815296870185815230602082015261075f97612b909590926000928492918391859183910103925af18015612ba9575b612b96575b503691610f19565b906148ef565b80610c80612ba39261054d565b38612b88565b612bb1612efb565b612b83565b833b1561000e5760408051630c4b7b8560e11b81528881018781526001600160a01b039093166020840152916000918391829101038183885af18015612c0f575b15612b3f5780610c80612c099261054d565b38612b3f565b612c17612efb565b612bf7565b6040805163e985e9c560e01b81526001600160a01b03909516918501918252336020830152919392508391839182910103818a5afa918215612c89575b600092612c6c575b50501580388a612b30565b612c829250803d106117a1576117998183610588565b3880612c61565b612c91612efb565b612c59565b81612cae9294503d8511611484576114758183610588565b9138612b22565b612cbd612efb565b612b1a565b60405163615a470360e01b81528690fd5b503461000e57602036600319011261000e5760043560005260016020526020604060002054604051908152f35b503461000e5760a036600319011261000e57600435612d1e816103db565b602435612d2a816103db565b6084356001600160401b03811161000e57612d49903690600401610f50565b906001600160a01b03612d5f81831615156130f6565b8316338114908115612dda575b5015612d835761075f926064359160443591613466565b60405162461bcd60e51b815260206004820152602960248201527f455243313135353a2063616c6c6572206973206e6f74206f776e6572206e6f7260448201526808185c1c1c9bdd995960ba1b6064820152608490fd5b6000908152600260209081526040808320338452909152902060ff9150541638612d6c565b503461000e57602036600319011261000e57600435612e1d816103db565b612e256139d7565b6001600160a01b039081168015612e7357600080546001600160a01b03198116831782559092167f8be0079c531659141344cd1fd0a4f28419497f9722a3daafe3b4186f6b6457e08380a380f35b60405162461bcd60e51b815260206004820152602660248201527f4f776e61626c653a206e6577206f776e657220697320746865207a65726f206160448201526564647265737360d01b6064820152608490fd5b503461000e57602036600319011261000e57602061083a6004356145fe565b9081602091031261000e575161065d81611dfd565b506040513d6000823e3d90fd5b6001600160a01b03908116918215612f3757610712612f2691613b53565b501614612f3257600090565b600190565b60405162461bcd60e51b815260206004820152602b60248201527f455243313135353a2062616c616e636520717565727920666f7220746865207a60448201526a65726f206164647265737360a81b6064820152608490fd5b90612f9a82611063565b612fa76040519182610588565b8281528092612fb8601f1991611063565b0190602036910137565b50634e487b7160e01b600052601160045260246000fd5b6001906000198114612fe9570190565b612ff1612fc2565b0190565b50634e487b7160e01b600052603260045260246000fd5b6020918151811015613021575b60051b010190565b613029612ff5565b613019565b919091805183510361309f576130448151612f90565b9060005b81518110156130985780613083613072613065613093948661300c565b516001600160a01b031690565b61307c838961300c565b5190612f08565b61308d828661300c565b52612fd9565b613048565b5090925050565b60405162461bcd60e51b815260206004820152602960248201527f455243313135353a206163636f756e747320616e6420696473206c656e677468604482015268040dad2e6dac2e8c6d60bb1b6064820152608490fd5b156130fd57565b60405162461bcd60e51b815260206004820152602560248201527f455243313135353a207472616e7366657220746f20746865207a65726f206164604482015264647265737360d81b6064820152608490fd5b1561315757565b60405162461bcd60e51b815260206004820152602860248201527f455243313135353a2069647320616e6420616d6f756e7473206c656e677468206044820152670dad2e6dac2e8c6d60c31b6064820152608490fd5b156131b457565b60405162461bcd60e51b815260206004820152603260248201527f455243313135353a207472616e736665722063616c6c6572206973206e6f74206044820152711bdddb995c881b9bdc88185c1c1c9bdd995960721b6064820152608490fd5b1561321b57565b60405162461bcd60e51b815260206004820152602a60248201527f455243313135353a20696e73756666696369656e742062616c616e636520666f60448201526939103a3930b739b332b960b11b6064820152608490fd5b909161328a61065d936040845260408401906115e4565b9160208184039101526115e4565b9290919260005260016020526001600160401b0360c01b9060c01b169163ffffffff60a01b9060a01b169060018060a01b03161717604060002055565b916132ee91936132e482613b53565b94919085916147d7565b6132fc85828699949961475a565b6001600160a01b038681169781169590613317878a14613214565b831680961461345c5761332b918386613298565b83604096875185815260016020820152600080516020615469833981519152893392a43b61335b575b5050505050565b613382926020926000875180968195829463f23a6e6160e01b9a8b85523360048601613649565b03925af16000918161342c575b5061340057505060016133a06136fd565b6308c379a0146133d2575b6133bb57505b3880808080613354565b5162461bcd60e51b815280610aa860048201613789565b6133da61371b565b806133e557506133ab565b825162461bcd60e51b8152908190610aa8906004830161064c565b6001600160e01b0319160361341557506133b1565b5162461bcd60e51b815280610aa8600482016136b4565b61344e91925060203d8111613455575b6134468183610588565b810190613603565b903861338f565b503d61343c565b5050505050505050565b939061347f9061347584613b53565b93919084916147d7565b929061348c82858861475a565b60018714806135ee575b61349f90613214565b6001600160a01b03838116949091821685146135e35784926134c2918589613298565b604080518781526020810189905291891691339160008051602061546983398151915291a43b6134f3575050505050565b61351c9360006020946040519687958694859363f23a6e6160e01b9b8c86523360048701613681565b03925af1600091816135c3575b5061359b575050600161353a6136fd565b6308c379a01461356c575b613553573880808080613354565b60405162461bcd60e51b815280610aa860048201613789565b61357461371b565b8061357f5750613545565b60405162461bcd60e51b8152908190610aa8906004830161064c565b6001600160e01b031916146133b15760405162461bcd60e51b815280610aa8600482016136b4565b6135dc91925060203d8111613455576134468183610588565b9038613529565b505050505050505050565b506001600160a01b0381811690891614613496565b9081602091031261000e575161065d81610478565b61065d939260a092600180851b03168252600060208301526040820152600160608201528160808201520190610627565b6001600160a01b0391821681529116602082015260408101919091526001606082015260a06080820181905261065d92910190610627565b919261065d95949160a094600180871b038092168552166020840152604083015260608201528160808201520190610627565b60809060208152602860208201527f455243313135353a204552433131353552656365697665722072656a656374656040820152676420746f6b656e7360c01b60608201520190565b60009060033d1161370a57565b905060046000803e60005160e01c90565b600060443d1061065d57604051600319913d83016004833e81516001600160401b03918282113d60248401111761377857818401948551938411613780573d85010160208487010111613778575061065d92910160200190610588565b949350505050565b50949350505050565b60809060208152603460208201527f455243313135353a207472616e7366657220746f206e6f6e20455243313135356040820152732932b1b2b4bb32b91034b6b83632b6b2b73a32b960611b60608201520190565b92919091823b6137ef575b50505050565b61381692602092600060405180968195829463f23a6e6160e01b9a8b855260048501613618565b03926001600160a01b03165af160009181613891575b50613869575050600161383d6136fd565b6308c379a014613856575b613553575b388080806137e9565b61385e61371b565b8061357f5750613848565b6001600160e01b0319161461384d5760405162461bcd60e51b815280610aa8600482016136b4565b6138aa91925060203d8111613455576134468183610588565b903861382c565b939061065d95936138e3916138f19460018060a01b03809216885216602087015260a0604087015260a08601906115e4565b9084820360608601526115e4565b916080818403910152610627565b9493919092813b613913575b505050505050565b600060209461393a6040519788968795869463bc197c8160e01b9c8d8752600487016138b1565b03926001600160a01b03165af1600091816139b7575b5061398f57505060016139616136fd565b6308c379a01461397c575b613553575b38808080808061390b565b61398461371b565b8061357f575061396c565b6001600160e01b031916146139715760405162461bcd60e51b815280610aa8600482016136b4565b6139d091925060203d8111613455576134468183610588565b9038613950565b6000546001600160a01b031633036139eb57565b606460405162461bcd60e51b815260206004820152602060248201527f4f776e61626c653a2063616c6c6572206973206e6f7420746865206f776e65726044820152fd5b613a3b61071282613b53565b506001600160a01b039190821615613a5f5760005260036020526040600020541690565b5050600090565b15613a6d57565b60405162461bcd60e51b815260206004820152603d60248201527f4552433732313a20617070726f76652063616c6c6572206973206e6f7420746f60448201527f6b656e206f776e6572206f7220617070726f76656420666f7220616c6c0000006064820152608490fd5b600082815260036020526040902080546001600160a01b0319166001600160a01b0392831690811790915590613b1061071284613b53565b50167f8c5be1e5ebec7d5bd14f71427d1e84f3dd0314c0f7b2291e5b200ac8c7c3b925600080a4565b613b45613b4e91613b53565b908193926147d7565b919092565b6000908152600160205260409020546001600160a01b0381169160a082901c63ffffffff169160c01c90565b61044f613b8b91613b53565b6001600160a01b0380851692169182149390918415613bbb575b505082613bb157505090565b611314925061543d565b60009081526002602090815260408083206001600160a01b03949094168352929052205460ff1692503880613ba5565b613bf89061347581613b53565b9160018060a01b039081808716931695838714968715613c41575b50508515613c29575b50505082613bb157505090565b613c369192939550613a2f565b161491388080613c1c565b60009081526002602090815260408083206001600160a01b03949094168352929052205460ff1695503880613c13565b9081602091031261000e575161065d816103db565b9081602091031261000e575190565b906276a7006001600160401b0380931601918211613caf57565b610e70612fc2565b15613cbe57565b60405162461bcd60e51b815260206004820152602860248201527f436f6e74726f6c6c61626c653a2043616c6c6572206973206e6f74206120636f604482015267373a3937b63632b960c11b6064820152608490fd5b613d1d81614809565b60405163c475abff60e01b8152600481018390526024810193909352906001600160a01b03906020907f0000000000000000000000000000000000000000000000000000000000000000831682866044816000855af1958615613ecc575b600096613ea5575b506040516331a9108f60e11b81526004810192909252829082908180602481015b03915afa60009181613e86575b50613dbd575050505090565b8216301480159290613dfb575b5050613df75761065d90613de66001600160401b038416613c95565b90613df081613b53565b5091615347565b5090565b6040516302571be360e01b8152600481018590529192509082816024817f000000000000000000000000000000000000000000000000000000000000000086165afa928315613e79575b600093613e5a575b5050163014153880613dca565b613e71929350803d10611484576114758183610588565b903880613e4d565b613e81612efb565b613e45565b613e9e919250833d8511611484576114758183610588565b9038613db1565b8391965091613ec3613da493833d8511610c5f57610c518183610588565b96915091613d83565b613ed4612efb565b613d7b565b90601f8111613ee757505050565b600091825260208220906020601f850160051c83019410613f23575b601f0160051c01915b828110613f1857505050565b818155600101613f0c565b9092508290613f03565b9092916001600160401b038111613ff5575b613f5381613f4d8454610df8565b84613ed9565b6000601f8211600114613f8d5781929394600092613f82575b50508160011b916000199060031b1c1916179055565b013590503880613f6c565b601f19821694613fa284600052602060002090565b91805b878110613fdd575083600195969710613fc3575b505050811b019055565b0135600019600384901b60f8161c19169055388080613fb9565b90926020600181928686013581550194019101613fa5565b613ffd610536565b613f3f565b61400c8282614185565b9091821561404f5761401f929350614002565b6040805160208101928352908101929092529061404981606081015b03601f198101835282610588565b51902090565b516000198101939250831190506140b0575b0361406b57600090565b60405162461bcd60e51b815260206004820152601d60248201527f6e616d65686173683a204a756e6b20617420656e64206f66206e616d650000006044820152606490fd5b6140b8612fc2565b614061565b9060018201809211613caf57565b91908201809211613caf57565b9081511561414057815115614133575b602082015160f81c91821561412757826001018060011161411a575b81511061000e5782602161065d920120926140bd565b614122612fc2565b614104565b5061065d6000926140bd565b61413b612ff5565b6140e8565b60405162461bcd60e51b815260206004820152601e60248201527f726561644c6162656c3a20496e646578206f7574206f6620626f756e647300006044820152606490fd5b9190918051831015614140576141cd8161065d92518510156141dc575b6020858201015160f81c908180156141d2576141c7916141c1886140bd565b906141e9565b946140cb565b6140bd565b50506000946140cb565b6141e4612ff5565b6141a2565b90828101808211614204575b82511061000e57016020012090565b61420c612fc2565b6141f5565b908060209392818452848401376000828201840152601f01601f1916010190565b93969463ffffffff61425a6001600160401b039361065d9b999560c0895260c0890191614211565b6001600160a01b0395861660208801529816604086015216606084015216608082015280840360a090910152614211565b6000906142a461429a82613b53565b82939181936147d7565b9190508385526003602052604085206bffffffffffffffffffffffff60a01b815416905560016020526001600160401b0360c01b9060c01b169063ffffffff60a01b9060a01b161760408420556040519182526001602083015260018060a01b03169060008051602061546983398151915260403392a4565b9492939461432b3382613b7f565b1561159957815160208301209061436e6143458383614858565b986143508a846144f8565b61435a878b61537b565b614365858b85614de7565b50868a84614f89565b9561437b6113148a615392565b1561443c577f00000000000000000000000000000000000000000000000000000000000000006001600160a01b031692833b1561000e576040516305ef2c7f60e41b81526004810184905260248101919091523060448201526001600160a01b0390911660648201526001600160401b03909716608488015261065d968892600090829081838160a4810103925af1801561442f575b61441c575b50614c52565b80610c806144299261054d565b38614416565b614437612efb565b614411565b7f00000000000000000000000000000000000000000000000000000000000000006001600160a01b031692833b1561000e576040516305ef2c7f60e41b81526004810184905260248101919091523060448201526001600160a01b0390911660648201526001600160401b03909716608488015261065d968892600090829081838160a4810103925af180156144eb575b6144d8575b50614ee8565b80610c806144e59261054d565b386144d2565b6144f3612efb565b6144cd565b61450182613b39565b6001600160401b0392919242911610908161455c575b501561454e5750614529602091613b39565b509050166145345750565b60405163a2a7201360e01b81526004810191909152602490fd5b620100009150166145345750565b6001600160a01b039081161591508115614578575b5038614517565b6040516302571be360e01b8152600481018690529091506020816024817f000000000000000000000000000000000000000000000000000000000000000086165afa9081156145f1575b6000916145d3575b50161538614571565b6145eb915060203d8111611484576114758183610588565b386145ca565b6145f9612efb565b6145c2565b60005260066020526146136040600020610e32565b805115614636578061463161462a61065d936140d8565b9092614002565b61463c565b50600090565b9060008051602061548983398151915261465e6146598385614858565b615392565b9203613df7576040516331a9108f60e11b8152600481019190915290506001600160a01b036020826024817f000000000000000000000000000000000000000000000000000000000000000085165afa600092816146c9575b506146c3575050600090565b16301490565b6146e291935060203d8111611484576114758183610588565b91386146b7565b919060808382031261000e578235906001600160401b03821161000e57614711918401610f50565b916020810135614720816103db565b91604082013561ffff8116810361000e57916060013561065d816103db565b6001600160401b039081166276a6ff190191908211613caf57565b9162020000808316146147c9575b6001600160401b03429116106000146147b95762010000811661321b576040905b16156147925750565b6147a9610e70916000526003602052604060002090565b80546001600160a01b0319169055565b60048116610a7057604090614789565b6147d29061473f565b614768565b9092916001600160401b03429116106147ee579190565b91620100008091161461480057600090565b60009150600090565b60405160208101916000805160206154898339815191528352604082015260408152606081018181106001600160401b0382111761484b575b60405251902090565b614853610536565b614842565b60408051602081019283529081019290925290614049816060810161403b565b606090614892600093959495608083526080830190610627565b6001600160a01b039095166020820152604081018390520152565b929363ffffffff60609396956148d36001600160401b0394608088526080880190610627565b6001600160a01b03909816602087015216604085015216910152565b917f8ce7013e8abebc55c3890a68f5a27c67c3f7efa64e584de5fb22363c606fd3409161491b84613b53565b506001600160a01b0391821690506149ed575b60008061493a87613b39565b6001600160401b03819693961690816149e5575b504211156149d5575b506149688161498994951615614b47565b851692614976841515614b93565b61498230851415614be9565b8588613298565b604080518681526001602082015260009133916000805160206154698339815191529190a46149c16149b96105d3565b8584336137de565b6149d060405192839283614878565b0390a2565b63ffff0000169250614968614957565b93503861494e565b6149f68561428b565b846000805160206154a9833981519152602060405160008152a261492e565b936149d0907f8ce7013e8abebc55c3890a68f5a27c67c3f7efa64e584de5fb22363c606fd34094614a468188615354565b614a4f87613b53565b506001600160a01b039182169050614b1f575b8183614a6d8a613b39565b6001600160401b03959295908181169189168211614b17575b50421115614b05575b50614aa081614ac194951615614b47565b881692614aae841515614b93565b614aba30851415614be9565b888b613298565b604080518981526001602082015260009133916000805160206154698339815191529190a4614af9614af16105d3565b8887336137de565b604051948594856148ad565b63ffff00001685179250614aa0614a8f565b935038614a86565b614b288861428b565b876000805160206154a9833981519152602060405160008152a2614a62565b15614b4e57565b60405162461bcd60e51b815260206004820152601f60248201527f455243313135353a206d696e74206f66206578697374696e6720746f6b656e006044820152606490fd5b15614b9a57565b60405162461bcd60e51b815260206004820152602160248201527f455243313135353a206d696e7420746f20746865207a65726f206164647265736044820152607360f81b6064820152608490fd5b15614bf057565b60405162461bcd60e51b815260206004820152603460248201527f455243313135353a206e65774f776e65722063616e6e6f74206265207468652060448201527313985b5955dc985c1c195c8818dbdb9d1c9858dd60621b6064820152608490fd5b610e7095949392614c78916000526006602052614c726040600020610e32565b90614c7e565b90614a15565b906001825110614d015760ff825111614ce657602161065d9183519060405194859260ff60f81b9060f81b166020840152614cc28151809260208787019101610604565b8201614cd78251809360208785019101610604565b01036001810184520182610588565b60405163e3ba295f60e01b815280610aa8846004830161064c565b604051631406d65b60e11b8152600490fd5b91909182516001600160401b038111614dda575b614d3581613f4d8454610df8565b602080601f8311600114614d70575081929394600092614d655750508160011b916000199060031b1c1916179055565b015190503880613f6c565b90601f19831695614d8685600052602060002090565b926000905b888210614dc257505083600195969710614da957505050811b019055565b015160001960f88460031b161c19169055388080613fb9565b80600185968294968601518155019501930190614d8b565b614de2610536565b614d27565b9291926000908152614e0560209460068652614c7260408420610e32565b9181526006845260408120908251906001600160401b038211614edb575b614e3782614e318554610df8565b85613ed9565b8590601f8311600114614e715782939495965091614e66575b508160011b916000199060031b1c191617905590565b905083015138614e50565b90601f19831696614e8785600052602060002090565b92905b888210614ec35750508260019495969710614eaa575b5050811b01905590565b85015160001960f88460031b161c191690553880614ea0565b80600184958294958a01518155019401920190614e8a565b614ee3610536565b614e23565b614f489294614f23614f0a92979397614f0089613b53565b95919086916147d7565b92909860009283526006602052614c7260408420610e32565b8982526006602052614f386040832054610df8565b15614f6e575b50501785876152b9565b6001600160a01b038116614f61575050610e709061510f565b91610e70926127ec6105d3565b6040828b614f829452600660205220614d13565b3880614f3e565b909261132e61065d94614fb594614fab614fa283613b53565b97915050613b53565b97919088916147d7565b9290505b919063ffff00001615159081614fd2575b506107f75750565b60019150161538614fca565b916001600160401b039081811682851611615009575b5080821690831610615004575090565b905090565b925038614ff4565b929091615077926203000061505161502e87516020890120614809565b966040519061503c8261056d565b6005825262d89a5d60e21b6020830152614c7e565b9261506f8461506a896000526006602052604060002090565b614d13565b179185614a15565b6001600160a01b0382811661508b57505050565b7f00000000000000000000000000000000000000000000000000000000000000001691823b1561000e57604051630c4b7b8560e11b815260048101929092526001600160a01b03166024820152906000908290604490829084905af18015615102575b6150f55750565b80610c80610e709261054d565b61510a612efb565b6150ee565b60018061511e61071284613b53565b905016146145345761512f8161428b565b7f00000000000000000000000000000000000000000000000000000000000000006001600160a01b0316803b1561000e57604051635b0fc9c360e01b81526004810183905260006024820181905290918290604490829084905af180156151cb575b6151b8575b50604051600081526000805160206154a98339815191529080602081016149d0565b80610c806151c59261054d565b38615196565b6151d3612efb565b615191565b906001806151e861071285613b53565b90501614610a70576151f98261428b565b7f00000000000000000000000000000000000000000000000000000000000000006001600160a01b0316803b1561000e57604051635b0fc9c360e01b8152600481018490526001600160a01b03831660248201526000805160206154a9833981519152926149d0929091906000908290604490829084905af180156152ac575b615299575b506040516001600160a01b0390911681529081906020820190565b80610c806152a69261054d565b3861527e565b6152b4612efb565b615279565b93916020816152f6857f39873f00c80f4f94b7bd1594aebcf650f003545b74824d57ddf4939e3ff3a34b9489966152f08289615354565b87613298565b63ffffffff60405191168152a26001600160401b038091169116811161531a575050565b60207ff675815a0817338f93a7da433f6bd5f5542f1029b11b455191ac96c7f6a9b13291604051908152a2565b90610e709392916111ff83825b9061ffff81161515908161536a57506107f75750565b905062010001809116141538614fca565b9063ffffffff63fffdffff80921716036107f75750565b61539e61071282613b53565b506001600160a01b0390811615159190826153b857505090565b909150604051916302571be360e01b83526004830152602082602481847f0000000000000000000000000000000000000000000000000000000000000000165afa918215615430575b600092615410575b5016301490565b61542991925060203d8111611484576114758183610588565b9038615409565b615438612efb565b615401565b6202000080911614908161544f575090565b615459915061473f565b6001600160401b03429116109056fec3d58168c5ae7397731d063d5bbf3d657854427343f4c083240f7aacaa2d0f62fc602f00234da74893ed324e3aa56a3f7fe5cc12557d414fc4e44ab482fe1408ee2ba1195c65bcf218a83d874335c6bf9d9067b4c672f3c3bf16cf40de7586c4a2646970667358221220de4cfa47686e552b7c517fcd819e690bdb8d6d2f468d7f053717e534e373e0c864736f6c63430008110033",
    "linkReferences": {}
  },
  "methodIdentifiers": {
    "_tokens(uint256)": "ed70554d",
    "allFusesBurned(bytes32,uint32)": "adf4960a",
    "approve(address,uint256)": "095ea7b3",
    "balanceOf(address,uint256)": "00fdd58e",
    "balanceOfBatch(address[],uint256[])": "4e1273f4",
    "canExtendSubnames(bytes32,address)": "0e4cd725",
    "canModifyName(bytes32,address)": "41415eab",
    "controllers(address)": "da8c229e",
    "ens()": "3f15457f",
    "extendExpiry(bytes32,bytes32,uint64)": "6e5d6ad2",
    "getApproved(uint256)": "081812fc",
    "getData(uint256)": "0178fe3f",
    "isApprovedForAll(address,address)": "e985e9c5",
    "isWrapped(bytes32)": "fd0cd0d9",
    "isWrapped(bytes32,bytes32)": "d9a50c12",
    "metadataService()": "53095467",
    "name()": "06fdde03",
    "names(bytes32)": "20c38e2b",
    "onERC721Received(address,address,uint256,bytes)": "150b7a02",
    "owner()": "8da5cb5b",
    "ownerOf(uint256)": "6352211e",
    "recoverFunds(address,address,uint256)": "5d3590d5",
    "registerAndWrapETH2LD(string,address,uint256,address,uint16)": "a4014982",
    "registrar()": "2b20e397",
    "renew(uint256,uint256)": "c475abff",
    "renounceOwnership()": "715018a6",
    "safeBatchTransferFrom(address,address,uint256[],uint256[],bytes)": "2eb2c2d6",
    "safeTransferFrom(address,address,uint256,uint256,bytes)": "f242432a",
    "setApprovalForAll(address,bool)": "a22cb465",
    "setChildFuses(bytes32,bytes32,uint32,uint64)": "33c69ea9",
    "setController(address,bool)": "e0dba60f",
    "setFuses(bytes32,uint16)": "402906fc",
    "setMetadataService(address)": "1534e177",
    "setRecord(bytes32,address,address,uint64)": "cf408823",
    "setResolver(bytes32,address)": "1896f70a",
    "setSubnodeOwner(bytes32,string,address,uint32,uint64)": "c658e086",
    "setSubnodeRecord(bytes32,string,address,address,uint64,uint32,uint64)": "24c1af44",
    "setTTL(bytes32,uint64)": "14ab9038",
    "setUpgradeContract(address)": "b6bcad26",
    "supportsInterface(bytes4)": "01ffc9a7",
    "transferOwnership(address)": "f2fde38b",
    "unwrap(bytes32,bytes32,address)": "d8c9921a",
    "unwrapETH2LD(bytes32,address,address)": "8b4dfa75",
    "upgrade(bytes,bytes)": "c93ab3fd",
    "upgradeContract()": "1f4e1504",
    "uri(uint256)": "0e89341c",
    "wrap(bytes,address,address)": "eb8ae530",
    "wrapETH2LD(string,address,uint16,address)": "8cf8b41e"
  },
  "id": 111
}