{
  "abi": [
    {
      "inputs": [],
      "stateMutability": "nonpayable",
      "type": "constructor"
    },
    {
      "anonymous": false,
      "inputs": [
        {
          "indexed": true,
          "internalType": "address",
          "name": "owner",
          "type": "address"
        },
        {
          "indexed": true,
          "internalType": "address",
          "name": "operator",
          "type": "address"
        },
        {
          "indexed": false,
          "internalType": "bool",
          "name": "approved",
          "type": "bool"
        }
      ],
      "name": "ApprovalForAll",
      "type": "event"
    },
    {
      "anonymous": false,
      "inputs": [
        {
          "indexed": true,
          "internalType": "bytes32",
          "name": "node",
          "type": "bytes32"
        },
        {
          "indexed": true,
          "internalType": "bytes32",
          "name": "label",
          "type": "bytes32"
        },
        {
          "indexed": false,
          "internalType": "address",
          "name": "owner",
          "type": "address"
        }
      ],
      "name": "NewOwner",
      "type": "event"
    },
    {
      "anonymous": false,
      "inputs": [
        {
          "indexed": true,
          "internalType": "bytes32",
          "name": "node",
          "type": "bytes32"
        },
        {
          "indexed": false,
          "internalType": "address",
          "name": "resolver",
          "type": "address"
        }
      ],
      "name": "NewResolver",
      "type": "event"
    },
    {
      "anonymous": false,
      "inputs": [
        {
          "indexed": true,
          "internalType": "bytes32",
          "name": "node",
          "type": "bytes32"
        },
        {
          "indexed": false,
          "internalType": "uint64",
          "name": "ttl",
          "type": "uint64"
        }
      ],
      "name": "NewTTL",
      "type": "event"
    },
    {
      "anonymous": false,
      "inputs": [
        {
          "indexed": true,
          "internalType": "bytes32",
          "name": "node",
          "type": "bytes32"
        },
        {
          "indexed": false,
          "internalType": "address",
          "name": "owner",
          "type": "address"
        }
      ],
      "name": "Transfer",
      "type": "event"
    },
    {
      "inputs": [
        {
          "internalType": "address",
          "name": "owner",
          "type": "address"
        },
        {
          "internalType": "address",
          "name": "operator",
          "type": "address"
        }
      ],
      "name": "isApprovedForAll",
      "outputs": [
        {
          "internalType": "bool",
          "name": "",
          "type": "bool"
        }
      ],
      "stateMutability": "view",
      "type": "function"
    },
    {
      "inputs": [
        {
          "internalType": "bytes32",
          "name": "node",
          "type": "bytes32"
        }
      ],
      "name": "owner",
      "outputs": [
        {
          "internalType": "address",
          "name": "",
          "type": "address"
        }
      ],
      "stateMutability": "view",
      "type": "function"
    },
    {
      "inputs": [
        {
          "internalType": "bytes32",
          "name": "node",
          "type": "bytes32"
        }
      ],
      "name": "recordExists",
      "outputs": [
        {
          "internalType": "bool",
          "name": "",
          "type": "bool"
        }
      ],
      "stateMutability": "view",
      "type": "function"
    },
    {
      "inputs": [
        {
          "internalType": "bytes32",
          "name": "node",
          "type": "bytes32"
        }
      ],
      "name": "resolver",
      "outputs": [
        {
          "internalType": "address",
          "name": "",
          "type": "address"
        }
      ],
      "stateMutability": "view",
      "type": "function"
    },
    {
      "inputs": [
        {
          "internalType": "address",
          "name": "operator",
          "type": "address"
        },
        {
          "internalType": "bool",
          "name": "approved",
          "type": "bool"
        }
      ],
      "name": "setApprovalForAll",
      "outputs": [],
      "stateMutability": "nonpayable",
      "type": "function"
    },
    {
      "inputs": [
        {
          "internalType": "bytes32",
          "name": "node",
          "type": "bytes32"
        },
        {
          "internalType": "address",
          "name": "owner",
          "type": "address"
        }
      ],
      "name": "setOwner",
      "outputs": [],
      "stateMutability": "nonpayable",
      "type": "function"
    },
    {
      "inputs": [
        {
          "internalType": "bytes32",
          "name": "node",
          "type": "bytes32"
        },
        {
          "internalType": "address",
          "name": "owner",
          "type": "address"
        },
        {
          "internalType": "address",
          "name": "resolver",
          "type": "address"
        },
        {
          "internalType": "uint64",
          "name": "ttl",
          "type": "uint64"
        }
      ],
      "name": "setRecord",
      "outputs": [],
      "stateMutability": "nonpayable",
      "type": "function"
    },
    {
      "inputs": [
        {
          "internalType": "bytes32",
          "name": "node",
          "type": "bytes32"
        },
        {
          "internalType": "address",
          "name": "resolver",
          "type": "address"
        }
      ],
      "name": "setResolver",
      "outputs": [],
      "stateMutability": "nonpayable",
      "type": "function"
    },
    {
      "inputs": [
        {
          "internalType": "bytes32",
          "name": "node",
          "type": "bytes32"
        },
        {
          "internalType": "bytes32",
          "name": "label",
          "type": "bytes32"
        },
        {
          "internalType": "address",
          "name": "owner",
          "type": "address"
        }
      ],
      "name": "setSubnodeOwner",
      "outputs": [
        {
          "internalType": "bytes32",
          "name": "",
          "type": "bytes32"
        }
      ],
      "stateMutability": "nonpayable",
      "type": "function"
    },
    {
      "inputs": [
        {
          "internalType": "bytes32",
          "name": "node",
          "type": "bytes32"
        },
        {
          "internalType": "bytes32",
          "name": "label",
          "type": "bytes32"
        },
        {
          "internalType": "address",
          "name": "owner",
          "type": "address"
        },
        {
          "internalType": "address",
          "name": "resolver",
          "type": "address"
        },
        {
          "internalType": "uint64",
          "name": "ttl",
          "type": "uint64"
        }
      ],
      "name": "setSubnodeRecord",
      "outputs": [],
      "stateMutability": "nonpayable",
      "type": "function"
    },
    {
      "inputs": [
        {
          "internalType": "bytes32",
          "name": "node",
          "type": "bytes32"
        },
        {
          "internalType": "uint64",
          "name": "ttl",
          "type": "uint64"
        }
      ],
      "name": "setTTL",
      "outputs": [],
      "stateMutability": "nonpayable",
      "type": "function"
    },
    {
      "inputs": [
        {
          "internalType": "bytes32",
          "name": "node",
          "type": "bytes32"
        }
      ],
      "name": "ttl",
      "outputs": [
        {
          "internalType": "uint64",
          "name": "",
          "type": "uint64"
        }
      ],
      "stateMutability": "view",
      "type": "function"
    }
  ],
  "bytecode": {
    "object": "0x6080806040523461004f5760008080526020527fad3228b676f7d3cd4284a5443f17f1962b36e491b30a40b2405849e597ba5fb580546001600160a01b0319163317905561086e90816100558239f35b600080fdfe6080604081815260048036101561001557600080fd5b600092833560e01c9081630178b8bf146105b85750806302571be31461058757806306ab59231461055057806314ab90381461047d57806316a25cbd146104475780631896f70a146103995780635b0fc9c3146102ee5780635ef2c7f01461028f578063a22cb4651461020a578063cf4088231461012e578063e985e9c5146100dc5763f79fe538146100a757600080fd5b346100d85760203660031901126100d8573582526020828152918190205490516001600160a01b0390911615158152f35b8280fd5b50503461012a578060031936011261012a5760ff816020936100fc610619565b610104610603565b6001600160a01b0391821683526001875283832091168252855220549151911615158152f35b5080fd5b50346100d85760803660031901126100d85735610149610603565b906101526105e8565b906064359267ffffffffffffffff84168403610206578186528560205260018060a01b03948581882054163381149081156101e7575b50156101e357602083927fd4735d920b0f87494915f556dd9b54c8f309026070caea5c737245152564d266926101e098858b528a8452818b20921691826001600160601b0360a01b82541617905551908152a2610732565b80f35b8680fd5b90508752600160205280872033885260205260ff818820541638610188565b8580fd5b50503461012a578060031936011261012a57610224610619565b906024359081151580920361028b5733845260016020528084209260018060a01b03169283855260205280842060ff1981541660ff8416179055519081527f17307eab39ab6107e8899845ad3d59bd9653f200f220920489ca2b5937696c3160203392a380f35b8380fd5b83823461012a5760a036600319011261012a576102aa6105e8565b906064356001600160a01b038116810361028b576084359167ffffffffffffffff831683036102ea576101e0936102e591602435903561062f565b610732565b8480fd5b50346100d857816003193601126100d8573590610309610603565b8284528360205260018060a01b039081838620541633811490811561037a575b50156102ea577fd4735d920b0f87494915f556dd9b54c8f309026070caea5c737245152564d26692602092858752868452818720921691826001600160601b0360a01b82541617905551908152a280f35b90508552600160205282852033865260205260ff838620541638610329565b50346100d857816003193601126100d857356103b3610603565b918184528360205260018060a01b0391828286205416338114908115610428575b50156102ea57807f335721b01866dc23fbee8b6b2c7b1e14d6f05c28cd35a2c934239f94095602a060206001958551971696878152a2845283602052832001906001600160601b0360a01b82541617905580f35b90508552600160205281852033865260205260ff8286205416386103d4565b50346100d85760203660031901126100d85760018260209467ffffffffffffffff9335815280865220015460a01c169051908152f35b50346100d857816003193601126100d85735906024359067ffffffffffffffff8216908183036102ea578385528460205260018060a01b038186205416338114908115610531575b50156102ea57836101e0947f1d4f9bbfc9cab89d66e1a1562f2233ccbf1308cb4f63de2ead5787adddb8fa6860206001958551908152a285526020859052842001805467ffffffffffffffff60a01b191660a09290921b67ffffffffffffffff60a01b16919091179055565b90508552600160205280852033865260205260ff8186205416386104c5565b509134610584576060366003190112610584575061057d6020926105726105e8565b90602435903561062f565b9051908152f35b80fd5b50913461058457602036600319011261058457506105a76020923561070a565b90516001600160a01b039091168152f35b929190503461028b57602036600319011261028b5735835260208381529220600101546001600160a01b03168152f35b604435906001600160a01b03821682036105fe57565b600080fd5b602435906001600160a01b03821682036105fe57565b600435906001600160a01b03821682036105fe57565b600081815260208181526040808320546001600160a01b039796939594939088163381149081156106ee575b5015610206578151978389019285845286818b0152808a5260608a01938a851067ffffffffffffffff8611176106da577fce0457fe73731f824cc272376169235128c118b49d344817417c6d108d155e82969798999a8583525190209889815280865220911690816001600160601b0360a01b8254161790558152a390565b634e487b7160e01b89526041600452602489fd5b8752506001835281862033875283528186205460ff163861065b565b6000908152602081905260409020546001600160a01b031630811461072c5790565b50600090565b91600091838352826020528360018060a01b039160409280600185882001541691169081036107f0575b5083528260205267ffffffffffffffff90816001828620015460a01c1691831691820361078b575b5050505050565b6107e16020936001837f1d4f9bbfc9cab89d66e1a1562f2233ccbf1308cb4f63de2ead5787adddb8fa689720019081549067ffffffffffffffff60a01b9060a01b169067ffffffffffffffff60a01b1916179055565b51908152a23880808080610784565b82852060010180546001600160a01b0319168217905582519081527f335721b01866dc23fbee8b6b2c7b1e14d6f05c28cd35a2c934239f94095602a090602090a2833861075c56fea2646970667358221220e07ff0eeb0e8b0ee2ac5f2b53328c32f448fa98f4e8e6369623c1137d90960a364736f6c63430008110033",
    "linkReferences": {}
  },
  "methodIdentifiers": {
    "isApprovedForAll(address,address)": "e985e9c5",
    "owner(bytes32)": "02571be3",
    "recordExists(bytes32)": "f79fe538",
    "resolver(bytes32)": "0178b8bf",
    "setApprovalForAll(address,bool)": "a22cb465",
    "setOwner(bytes32,address)": "5b0fc9c3",
    "setRecord(bytes32,address,address,uint64)": "cf408823",
    "setResolver(bytes32,address)": "1896f70a",
    "setSubnodeOwner(bytes32,bytes32,address)": "06ab5923",
    "setSubnodeRecord(bytes32,bytes32,address,address,uint64)": "5ef2c7f0",
    "setTTL(bytes32,uint64)": "14ab9038",
    "ttl(bytes32)": "16a25cbd"
  },
  "id": 22
}