{
  "abi": [
    {
      "inputs": [
        {
          "internalType": "contract ENS",
          "name": "_ens",
          "type": "address"
        },
        {
          "internalType": "bytes32",
          "name": "_baseNode",
          "type": "bytes32"
        }
      ],
      "stateMutability": "nonpayable",
      "type": "constructor"
    },
    {
      "anonymous": false,
      "inputs": [
        {
          "indexed": true,
          "internalType": "address",
          "name": "owner",
          "type": "address"
        },
        {
          "indexed": true,
          "internalType": "address",
          "name": "approved",
          "type": "address"
        },
        {
          "indexed": true,
          "internalType": "uint256",
          "name": "tokenId",
          "type": "uint256"
        }
      ],
      "name": "Approval",
      "type": "event"
    },
    {
      "anonymous": false,
      "inputs": [
        {
          "indexed": true,
          "internalType": "address",
          "name": "owner",
          "type": "address"
        },
        {
          "indexed": true,
          "internalType": "address",
          "name": "operator",
          "type": "address"
        },
        {
          "indexed": false,
          "internalType": "bool",
          "name": "approved",
          "type": "bool"
        }
      ],
      "name": "ApprovalForAll",
      "type": "event"
    },
    {
      "anonymous": false,
      "inputs": [
        {
          "indexed": true,
          "internalType": "address",
          "name": "controller",
          "type": "address"
        }
      ],
      "name": "ControllerAdded",
      "type": "event"
    },
    {
      "anonymous": false,
      "inputs": [
        {
          "indexed": true,
          "internalType": "address",
          "name": "controller",
          "type": "address"
        }
      ],
      "name": "ControllerRemoved",
      "type": "event"
    },
    {
      "anonymous": false,
      "inputs": [
        {
          "indexed": true,
          "internalType": "uint256",
          "name": "id",
          "type": "uint256"
        },
        {
          "indexed": true,
          "internalType": "address",
          "name": "owner",
          "type": "address"
        },
        {
          "indexed": false,
          "internalType": "uint256",
          "name": "expires",
          "type": "uint256"
        }
      ],
      "name": "NameMigrated",
      "type": "event"
    },
    {
      "anonymous": false,
      "inputs": [
        {
          "indexed": true,
          "internalType": "uint256",
          "name": "id",
          "type": "uint256"
        },
        {
          "indexed": true,
          "internalType": "address",
          "name": "owner",
          "type": "address"
        },
        {
          "indexed": false,
          "internalType": "uint256",
          "name": "expires",
          "type": "uint256"
        }
      ],
      "name": "NameRegistered",
      "type": "event"
    },
    {
      "anonymous": false,
      "inputs": [
        {
          "indexed": true,
          "internalType": "uint256",
          "name": "id",
          "type": "uint256"
        },
        {
          "indexed": false,
          "internalType": "uint256",
          "name": "expires",
          "type": "uint256"
        }
      ],
      "name": "NameRenewed",
      "type": "event"
    },
    {
      "anonymous": false,
      "inputs": [
        {
          "indexed": true,
          "internalType": "address",
          "name": "previousOwner",
          "type": "address"
        },
        {
          "indexed": true,
          "internalType": "address",
          "name": "newOwner",
          "type": "address"
        }
      ],
      "name": "OwnershipTransferred",
      "type": "event"
    },
    {
      "anonymous": false,
      "inputs": [
        {
          "indexed": true,
          "internalType": "address",
          "name": "from",
          "type": "address"
        },
        {
          "indexed": true,
          "internalType": "address",
          "name": "to",
          "type": "address"
        },
        {
          "indexed": true,
          "internalType": "uint256",
          "name": "tokenId",
          "type": "uint256"
        }
      ],
      "name": "Transfer",
      "type": "event"
    },
    {
      "inputs": [],
      "name": "GRACE_PERIOD",
      "outputs": [
        {
          "internalType": "uint256",
          "name": "",
          "type": "uint256"
        }
      ],
      "stateMutability": "view",
      "type": "function"
    },
    {
      "inputs": [
        {
          "internalType": "address",
          "name": "controller",
          "type": "address"
        }
      ],
      "name": "addController",
      "outputs": [],
      "stateMutability": "nonpayable",
      "type": "function"
    },
    {
      "inputs": [
        {
          "internalType": "address",
          "name": "to",
          "type": "address"
        },
        {
          "internalType": "uint256",
          "name": "tokenId",
          "type": "uint256"
        }
      ],
      "name": "approve",
      "outputs": [],
      "stateMutability": "nonpayable",
      "type": "function"
    },
    {
      "inputs": [
        {
          "internalType": "uint256",
          "name": "id",
          "type": "uint256"
        }
      ],
      "name": "available",
      "outputs": [
        {
          "internalType": "bool",
          "name": "",
          "type": "bool"
        }
      ],
      "stateMutability": "view",
      "type": "function"
    },
    {
      "inputs": [
        {
          "internalType": "address",
          "name": "owner",
          "type": "address"
        }
      ],
      "name": "balanceOf",
      "outputs": [
        {
          "internalType": "uint256",
          "name": "",
          "type": "uint256"
        }
      ],
      "stateMutability": "view",
      "type": "function"
    },
    {
      "inputs": [],
      "name": "baseNode",
      "outputs": [
        {
          "internalType": "bytes32",
          "name": "",
          "type": "bytes32"
        }
      ],
      "stateMutability": "view",
      "type": "function"
    },
    {
      "inputs": [
        {
          "internalType": "address",
          "name": "",
          "type": "address"
        }
      ],
      "name": "controllers",
      "outputs": [
        {
          "internalType": "bool",
          "name": "",
          "type": "bool"
        }
      ],
      "stateMutability": "view",
      "type": "function"
    },
    {
      "inputs": [],
      "name": "ens",
      "outputs": [
        {
          "internalType": "contract ENS",
          "name": "",
          "type": "address"
        }
      ],
      "stateMutability": "view",
      "type": "function"
    },
    {
      "inputs": [
        {
          "internalType": "uint256",
          "name": "tokenId",
          "type": "uint256"
        }
      ],
      "name": "getApproved",
      "outputs": [
        {
          "internalType": "address",
          "name": "",
          "type": "address"
        }
      ],
      "stateMutability": "view",
      "type": "function"
    },
    {
      "inputs": [
        {
          "internalType": "address",
          "name": "owner",
          "type": "address"
        },
        {
          "internalType": "address",
          "name": "operator",
          "type": "address"
        }
      ],
      "name": "isApprovedForAll",
      "outputs": [
        {
          "internalType": "bool",
          "name": "",
          "type": "bool"
        }
      ],
      "stateMutability": "view",
      "type": "function"
    },
    {
      "inputs": [],
      "name": "name",
      "outputs": [
        {
          "internalType": "string",
          "name": "",
          "type": "string"
        }
      ],
      "stateMutability": "view",
      "type": "function"
    },
    {
      "inputs": [
        {
          "internalType": "uint256",
          "name": "id",
          "type": "uint256"
        }
      ],
      "name": "nameExpires",
      "outputs": [
        {
          "internalType": "uint256",
          "name": "",
          "type": "uint256"
        }
      ],
      "stateMutability": "view",
      "type": "function"
    },
    {
      "inputs": [],
      "name": "owner",
      "outputs": [
        {
          "internalType": "address",
          "name": "",
          "type": "address"
        }
      ],
      "stateMutability": "view",
      "type": "function"
    },
    {
      "inputs": [
        {
          "internalType": "uint256",
          "name": "tokenId",
          "type": "uint256"
        }
      ],
      "name": "ownerOf",
      "outputs": [
        {
          "internalType": "address",
          "name": "",
          "type": "address"
        }
      ],
      "stateMutability": "view",
      "type": "function"
    },
    {
      "inputs": [
        {
          "internalType": "uint256",
          "name": "id",
          "type": "uint256"
        },
        {
          "internalType": "address",
          "name": "owner",
          "type": "address"
        }
      ],
      "name": "reclaim",
      "outputs": [],
      "stateMutability": "nonpayable",
      "type": "function"
    },
    {
      "inputs": [
        {
          "internalType": "uint256",
          "name": "id",
          "type": "uint256"
        },
        {
          "internalType": "address",
          "name": "owner",
          "type": "address"
        },
        {
          "internalType": "uint256",
          "name": "duration",
          "type": "uint256"
        }
      ],
      "name": "register",
      "outputs": [
        {
          "internalType": "uint256",
          "name": "",
          "type": "uint256"
        }
      ],
      "stateMutability": "nonpayable",
      "type": "function"
    },
    {
      "inputs": [
        {
          "internalType": "uint256",
          "name": "id",
          "type": "uint256"
        },
        {
          "internalType": "address",
          "name": "owner",
          "type": "address"
        },
        {
          "internalType": "uint256",
          "name": "duration",
          "type": "uint256"
        }
      ],
      "name": "registerOnly",
      "outputs": [
        {
          "internalType": "uint256",
          "name": "",
          "type": "uint256"
        }
      ],
      "stateMutability": "nonpayable",
      "type": "function"
    },
    {
      "inputs": [
        {
          "internalType": "address",
          "name": "controller",
          "type": "address"
        }
      ],
      "name": "removeController",
      "outputs": [],
      "stateMutability": "nonpayable",
      "type": "function"
    },
    {
      "inputs": [
        {
          "internalType": "uint256",
          "name": "id",
          "type": "uint256"
        },
        {
          "internalType": "uint256",
          "name": "duration",
          "type": "uint256"
        }
      ],
      "name": "renew",
      "outputs": [
        {
          "internalType": "uint256",
          "name": "",
          "type": "uint256"
        }
      ],
      "stateMutability": "nonpayable",
      "type": "function"
    },
    {
      "inputs": [],
      "name": "renounceOwnership",
      "outputs": [],
      "stateMutability": "nonpayable",
      "type": "function"
    },
    {
      "inputs": [
        {
          "internalType": "address",
          "name": "from",
          "type": "address"
        },
        {
          "internalType": "address",
          "name": "to",
          "type": "address"
        },
        {
          "internalType": "uint256",
          "name": "tokenId",
          "type": "uint256"
        }
      ],
      "name": "safeTransferFrom",
      "outputs": [],
      "stateMutability": "nonpayable",
      "type": "function"
    },
    {
      "inputs": [
        {
          "internalType": "address",
          "name": "from",
          "type": "address"
        },
        {
          "internalType": "address",
          "name": "to",
          "type": "address"
        },
        {
          "internalType": "uint256",
          "name": "tokenId",
          "type": "uint256"
        },
        {
          "internalType": "bytes",
          "name": "data",
          "type": "bytes"
        }
      ],
      "name": "safeTransferFrom",
      "outputs": [],
      "stateMutability": "nonpayable",
      "type": "function"
    },
    {
      "inputs": [
        {
          "internalType": "address",
          "name": "operator",
          "type": "address"
        },
        {
          "internalType": "bool",
          "name": "approved",
          "type": "bool"
        }
      ],
      "name": "setApprovalForAll",
      "outputs": [],
      "stateMutability": "nonpayable",
      "type": "function"
    },
    {
      "inputs": [
        {
          "internalType": "address",
          "name": "resolver",
          "type": "address"
        }
      ],
      "name": "setResolver",
      "outputs": [],
      "stateMutability": "nonpayable",
      "type": "function"
    },
    {
      "inputs": [
        {
          "internalType": "bytes4",
          "name": "interfaceID",
          "type": "bytes4"
        }
      ],
      "name": "supportsInterface",
      "outputs": [
        {
          "internalType": "bool",
          "name": "",
          "type": "bool"
        }
      ],
      "stateMutability": "view",
      "type": "function"
    },
    {
      "inputs": [],
      "name": "symbol",
      "outputs": [
        {
          "internalType": "string",
          "name": "",
          "type": "string"
        }
      ],
      "stateMutability": "view",
      "type": "function"
    },
    {
      "inputs": [
        {
          "internalType": "uint256",
          "name": "tokenId",
          "type": "uint256"
        }
      ],
      "name": "tokenURI",
      "outputs": [
        {
          "internalType": "string",
          "name": "",
          "type": "string"
        }
      ],
      "stateMutability": "view",
      "type": "function"
    },
    {
      "inputs": [
        {
          "internalType": "address",
          "name": "from",
          "type": "address"
        },
        {
          "internalType": "address",
          "name": "to",
          "type": "address"
        },
        {
          "internalType": "uint256",
          "name": "tokenId",
          "type": "uint256"
        }
      ],
      "name": "transferFrom",
      "outputs": [],
      "stateMutability": "nonpayable",
      "type": "function"
    },
    {
      "inputs": [
        {
          "internalType": "address",
          "name": "newOwner",
          "type": "address"
        }
      ],
      "name": "transferOwnership",
      "outputs": [],
      "stateMutability": "nonpayable",
      "type": "function"
    }
  ],
  "bytecode": {
    "object": "0x60803462000386576001600160401b0390601f90601f19906200215438819003848101841683019190868311848410176200038b578084926040948552833981010312620003865780516001600160a01b0394858216939184900362000386576020809301519462000070620003a1565b9260009485855262000081620003a1565b91868352855185811162000372578754966001978881811c9116801562000367575b85821014620003535790818784931162000300575b5084908783116001146200029f578a9262000293575b5050600019600383901b1c191690871b1787555b82519485116200027f5785548681811c9116801562000274575b83821014620002605790818587969594931162000207575b5081938511600114620001a2575050859262000196575b5050600019600383901b1c191690821b1790555b60065460018060a01b03199133838316176006557f8be0079c531659141344cd1fd0a4f28419497f9722a3daafe3b4186f6b6457e0604051963393169180a36008541617600855600955611d929081620003c28239f35b0151905038806200012b565b869593929193168588528388209388905b828210620001ed5750508411620001d3575b505050811b0190556200013f565b015160001960f88460031b161c19169055388080620001c5565b8484015186558897909501949384019390810190620001b3565b9091929394508688528288208580880160051c82019285891062000256575b9188978a9297969594930160051c01915b8281106200024757505062000114565b8a815588975089910162000237565b9250819262000226565b634e487b7160e01b88526022600452602488fd5b90607f1690620000fc565b634e487b7160e01b87526041600452602487fd5b015190503880620000ce565b90848a9416918b8052868c20928c5b88828210620002e95750508411620002cf575b505050811b018755620000e2565b015160001960f88460031b161c19169055388080620002c1565b8385015186558d97909501949384019301620002ae565b909150898052848a208780850160051c82019287861062000349575b918b91869594930160051c01915b8281106200033a575050620000b8565b8c81558594508b91016200032a565b925081926200031c565b634e487b7160e01b8a52602260045260248afd5b90607f1690620000a3565b634e487b7160e01b88526041600452602488fd5b600080fd5b634e487b7160e01b600052604160045260246000fd5b60405190602082016001600160401b038111838210176200038b5760405256fe608060408181526004918236101561001657600080fd5b600090813560e01c90816301ffc9a7146115d25750806306fdde0314611508578063081812fc146114e9578063095ea7b31461137b5780630e297b451461110057806323b872dd146110d657806328ed4f6c14610fba5780633f15457f14610f9157806342842e0e14610f435780634e543b2614610ea25780636352211e14610e7257806370a0823114610ddd578063715018a614610d7f5780638da5cb5b14610d5657806395d89b4114610c5057806396e494e814610c28578063a22cb46514610b56578063a7fc7a0714610aed578063b88d4fde14610a63578063c1a287e214610a45578063c475abff146108e4578063c87b56dd146106ae578063d6e4fa8614610686578063da8c229e14610648578063ddf7fcb014610629578063e985e9c5146105d9578063f2fde38b1461050c578063f6a74ed7146104a25763fca247ac1461016357600080fd5b3461049f57610171366116b2565b919260018060a01b039182600854169660095487519889916302571be360e01b83528383015281602460209b8c935afa908115610495578491610468575b50843091160361045157338352600a885260ff878420541615610451576101d5866117c6565b15610451576101e485426117a3565b6276a700808201809211610455574201908142116104555711156104515761020c85426117a3565b86845260078952878420556000868152600260205260409020546001600160a01b03166103e4575b8382169384156103a3579188918785610312969561027061026a84600052600260205260018060a01b0360406000205416151590565b15611a71565b600083815260026020526040902054610293906001600160a01b0316151561026a565b888252600386528b822080546001019055828252600286528b822080546001600160a01b0319168a1790558b5197889586948593818d87600080516020611d3d8339815191528180a46008546009546306ab592360e01b875298860198895260208901929092526001600160a01b039092166040880152169460600190565b03925af1908115610398575090869161036a575b50927fb3d987963d01b2f68493b4bdb130988f157ea43070d4ad840fee0466ed9370d96103639461035785426117a3565b8751908152a3426117a3565b9051908152f35b813d8311610391575b61037d8183611743565b8101031261038c578438610326565b600080fd5b503d610373565b8651903d90823e3d90fd5b6064828a808b519262461bcd60e51b845283015260248201527f4552433732313a206d696e7420746f20746865207a65726f20616464726573736044820152fd5b6103ed86611913565b5085836103f982611913565b828252838b5289822080546001600160a01b031990811690915590871680835260038c528a8320805460001901905583835260028c528a83208054909216909155600080516020611d3d8339815191528280a4610234565b8280fd5b634e487b7160e01b855260118352602485fd5b6104889150893d8b1161048e575b6104808183611743565b8101906117e6565b386101af565b503d610476565b88513d86823e3d90fd5b80fd5b509034610508576020366003190112610508576104bd611686565b6104c561186f565b6001600160a01b0316808352600a602052908220805460ff191690557f33d83959be2573f5453b12eb9d43b3499bc57d96bd2f067ba44803c859e811138280a280f35b5080fd5b50913461045157602036600319011261045157610527611686565b9061053061186f565b6001600160a01b03918216928315610587575050600654826bffffffffffffffffffffffff60a01b821617600655167f8be0079c531659141344cd1fd0a4f28419497f9722a3daafe3b4186f6b6457e0600080a380f35b906020608492519162461bcd60e51b8352820152602660248201527f4f776e61626c653a206e6577206f776e657220697320746865207a65726f206160448201526564647265737360d01b6064820152fd5b5090346105085780600319360112610508576020916105f6611686565b826105ff61169c565b9260018060a01b03809316815260058652209116600052825260ff81600020541690519015158152f35b5090346105085781600319360112610508576020906009549051908152f35b5090346105085760203660031901126105085760209160ff9082906001600160a01b03610673611686565b168152600a855220541690519015158152f35b5091346104515760203660031901126104515760209282913581526007845220549051908152f35b50913461045157602090816003193601126108e05781929381356106ef6106ea82600052600260205260018060a01b0360406000205416151590565b6118c7565b8551926106fb84611711565b82845282156108c35781829184937a184f03e93ff9f4daa797ed6e38ed64bf6a1f01000000000000000090818110156108b6575b5050866d04ee2d6d415b85acef8100000000808510156108a8575b5050662386f26fc1000080841015610899575b506305f5e1008084101561088a575b506127108084101561087c575b5050606482101561086c575b600a80921015610862575b6021908893600192816107bd858094016107b56107ac82611765565b9951998a611743565b808952611765565b878b019890601f1901368a3750860101905b61082c575b505050509261080b926108179261082895885195836107fc889551809288808901910161163e565b8401915180938684019061163e565b01038084520182611743565b925b51928284938452830190611661565b0390f35b600019019083906f181899199a1a9b1b9c1cb0b131b232b360811b8282061a83530491821561085d579190826107cf565b6107d4565b9160010191610790565b9190606460029104910191610785565b930192909104903880610779565b6008919493049201923861076c565b6010919493049201923861075d565b94019390920491863861074a565b8a9550049250388061072f565b505050505061082882516108d681611711565b6000815292610819565b8380fd5b5091903461045157806003193601126104515760085460095482516302571be360e01b8152808501919091526024803595602095909381359391926001600160a01b039188918491829085165afa918215610a3b578592610a1c575b503091160361045157338352600a855260ff8484205416156104515781835260078552838320546276a700908181018091116104555742116108e0578284526007865261099087868620546117a3565b9080820180921161045557870191828811610a095750111561050857829394818352600786526109c48484209182546117a3565b905580825260078552807f9b87a00e30f1ac65d898f070f8a3488fe60517182d0a2098e1b4b93a54aa9bd686858520548651908152a281526007845220549051908152f35b634e487b7160e01b855260119052602484fd5b610a34919250873d891161048e576104808183611743565b9038610940565b86513d87823e3d90fd5b509034610508578160031936011261050857602090516276a7008152f35b5091903461045157608036600319011261045157610a7f611686565b610a8761169c565b846064359467ffffffffffffffff861161050857366023870112156105085785013594610abf610ab687611765565b95519586611743565b85855236602487830101116105085785610aea966024602093018388013785010152604435916119d6565b80f35b50903461050857602036600319011261050857610b08611686565b610b1061186f565b6001600160a01b0316808352600a602052908220805460ff191660011790557f0a8bb31534c0ed46f380cb867bd5c803a189ced9a764e30b3a4991a9901d74748280a280f35b50919034610451578060031936011261045157610b71611686565b9060243591821515809303610c24576001600160a01b031692338414610be257503384526005602052808420836000526020528060002060ff1981541660ff8416179055519081527f17307eab39ab6107e8899845ad3d59bd9653f200f220920489ca2b5937696c3160203392a380f35b6020606492519162461bcd60e51b8352820152601960248201527f4552433732313a20617070726f766520746f2063616c6c6572000000000000006044820152fd5b8480fd5b503461049f57602036600319011261049f5750610c47602092356117c6565b90519015158152f35b503461049f578060031936011261049f578151918160019283549384811c91818616958615610d4c575b6020968785108114610d39578899509688969785829a529182600014610d12575050600114610cb7575b5050506108289291610819910385611743565b91908693508083527fb10e2d527612073b26eecdfd717e6a320cf44b4afac2b0732d9fcbe2b7fa0cf65b828410610cfa5750505082010181610819610828610ca4565b8054848a018601528895508794909301928101610ce1565b60ff19168782015293151560051b8601909301935084925061081991506108289050610ca4565b634e487b7160e01b835260228a52602483fd5b92607f1692610c7a565b50903461050857816003193601126105085760065490516001600160a01b039091168152602090f35b503461049f578060031936011261049f57610d9861186f565b600680546001600160a01b031981169091556000906001600160a01b03167f8be0079c531659141344cd1fd0a4f28419497f9722a3daafe3b4186f6b6457e08280a380f35b508234610508576020366003190112610508576001600160a01b03610e00611686565b16908115610e1d5760208480858581526003845220549051908152f35b608490602085519162461bcd60e51b8352820152602960248201527f4552433732313a2061646472657373207a65726f206973206e6f7420612076616044820152683634b21037bbb732b960b91b6064820152fd5b503461049f57602036600319011261049f5750610e9160209235611781565b90516001600160a01b039091168152f35b5091903461045157602036600319011261045157610ebe611686565b91610ec761186f565b8360018060a01b03938460085416600954813b156108e0578360449287519889958694630c4b7b8560e11b8652898601521660248401525af18015610f3957610f0e578380f35b67ffffffffffffffff8311610f265750523880808380f35b634e487b7160e01b845260419052602483fd5b82513d86823e3d90fd5b50903461050857610f53366116dc565b91835193602085019085821067ffffffffffffffff831117610f7e57610aea969750528584526119d6565b634e487b7160e01b875260418852602487fd5b50903461050857816003193601126105085760085490516001600160a01b039091168152602090f35b509134610451578160031936011261045157803591610fd761169c565b9160018060a01b0393846008541660095484516302571be360e01b815281858201526020978882602481875afa9182156110cc578a926110ad575b50309116036110a957876110268433611805565b1561049f5785516306ab592360e01b815294850191825260208201939093526001600160a01b03959095166040860152919385928592918390036060019183915af19081156110a05750611078578280f35b813d8311611099575b61108b8183611743565b8101031261049f5738808280f35b503d611081565b513d85823e3d90fd5b8780fd5b6110c5919250893d8b1161048e576104808183611743565b9038611012565b87513d8c823e3d90fd5b503461049f57610aea6110e8366116dc565b916110fb6110f68433611805565b611974565b611b17565b50903461050857611110366116b2565b9160018060a09693961b0380600854169560095486519788916302571be360e01b83528a83015281602460209a8b935afa908115611371578591611354575b5082309116036108e057338452600a875260ff8685205416156108e057611175836117c6565b156108e05761118485426117a3565b6276a700808201809211611341574201908142116113415711156108e0576111ac85426117a3565b83855260078852868520556000838152600260205260409020546001600160a01b03166112d4575b169182156112935790808361036395949361120761026a84600052600260205260018060a01b0360406000205416151590565b60008381526002602052604090205461122a906001600160a01b0316151561026a565b81815260038952878120805460010190558281526002895287812080546001600160a01b03191683179055600080516020611d3d8339815191528180a47fb3d987963d01b2f68493b4bdb130988f157ea43070d4ad840fee0466ed9370d98661035785426117a3565b606487878088519262461bcd60e51b845283015260248201527f4552433732313a206d696e7420746f20746865207a65726f20616464726573736044820152fd5b6112dd83611913565b5082846112e982611913565b8282528a8a5288822080546001600160a01b031990811690915590851680835260038b52898320805460001901905583835260028b528983208054909216909155600080516020611d3d8339815191528280a46111d4565b634e487b7160e01b865260118a52602486fd5b61136b9150883d8a1161048e576104808183611743565b3861114f565b87513d87823e3d90fd5b509134610451578160031936011261045157611395611686565b6024359290916001600160a01b03919082806113b087611913565b1694169380851461149c5780331490811561147d575b501561141557848652602052842080546001600160a01b031916831790556113ed83611913565b167f8c5be1e5ebec7d5bd14f71427d1e84f3dd0314c0f7b2291e5b200ac8c7c3b9258480a480f35b6020608492519162461bcd60e51b8352820152603d60248201527f4552433732313a20617070726f76652063616c6c6572206973206e6f7420746f60448201527f6b656e206f776e6572206f7220617070726f76656420666f7220616c6c0000006064820152fd5b90508652600560205281862033875260205260ff8287205416386113c6565b506020608492519162461bcd60e51b8352820152602160248201527f4552433732313a20617070726f76616c20746f2063757272656e74206f776e656044820152603960f91b6064820152fd5b503461049f57602036600319011261049f5750610e9160209235611936565b503461049f578060031936011261049f5781519181825492600184811c918186169586156115c8575b6020968785108114610d39578899509688969785829a529182600014610d1257505060011461156d575050506108289291610819910385611743565b91908693508280527f290decd9548b62a8d60345a988386fc84ba6bc95484008f6362f93160ef3e5635b8284106115b05750505082010181610819610828610ca4565b8054848a018601528895508794909301928101611597565b92607f1692611531565b90508334610451576020366003190112610451573563ffffffff60e01b811680910361045157602092506301ffc9a760e01b811490811561162d575b811561161c575b5015158152f35b630a3b53db60e21b14905083611615565b6380ac58cd60e01b8114915061160e565b60005b8381106116515750506000910152565b8181015183820152602001611641565b9060209161167a8151809281855285808601910161163e565b601f01601f1916010190565b600435906001600160a01b038216820361038c57565b602435906001600160a01b038216820361038c57565b606090600319011261038c57600435906024356001600160a01b038116810361038c579060443590565b606090600319011261038c576001600160a01b0390600435828116810361038c5791602435908116810361038c579060443590565b6020810190811067ffffffffffffffff82111761172d57604052565b634e487b7160e01b600052604160045260246000fd5b90601f8019910116810190811067ffffffffffffffff82111761172d57604052565b67ffffffffffffffff811161172d57601f01601f191660200190565b80600052600760205260406000205442101561038c576117a090611913565b90565b919082018092116117b057565b634e487b7160e01b600052601160045260246000fd5b60005260076020526040600020546276a70081018091116117b057421190565b9081602091031261038c57516001600160a01b038116810361038c5790565b6001600160a01b0390818061181985611781565b16911691818314938415611858575b5050821561183557505090565b909150600052600560205260406000209060005260205260ff6040600020541690565b8392945061186590611936565b1614913880611828565b6006546001600160a01b0316330361188357565b606460405162461bcd60e51b815260206004820152602060248201527f4f776e61626c653a2063616c6c6572206973206e6f7420746865206f776e65726044820152fd5b156118ce57565b60405162461bcd60e51b815260206004820152601860248201527f4552433732313a20696e76616c696420746f6b656e20494400000000000000006044820152606490fd5b6000908152600260205260409020546001600160a01b03166117a08115156118c7565b600081815260026020526040902054611959906001600160a01b031615156118c7565b6000908152600460205260409020546001600160a01b031690565b1561197b57565b60405162461bcd60e51b815260206004820152602d60248201527f4552433732313a2063616c6c6572206973206e6f7420746f6b656e206f776e6560448201526c1c881bdc88185c1c1c9bdd9959609a1b6064820152608490fd5b906119fa9392916119ea6110f68433611805565b6119f5838383611b17565b611c1b565b15611a0157565b60405162461bcd60e51b815280611a1a60048201611a1e565b0390fd5b60809060208152603260208201527f4552433732313a207472616e7366657220746f206e6f6e20455243373231526560408201527131b2b4bb32b91034b6b83632b6b2b73a32b960711b60608201520190565b15611a7857565b60405162461bcd60e51b815260206004820152601c60248201527f4552433732313a20746f6b656e20616c7265616479206d696e746564000000006044820152606490fd5b15611ac457565b60405162461bcd60e51b815260206004820152602560248201527f4552433732313a207472616e736665722066726f6d20696e636f72726563742060448201526437bbb732b960d91b6064820152608490fd5b90611b3f91611b2584611913565b6001600160a01b0393918416928492909183168414611abd565b16918215611bca5781611b5c91611b5586611913565b1614611abd565b600080516020611d3d83398151915260008481526004602052604081206bffffffffffffffffffffffff60a01b9081815416905583825260036020526040822060001981540190558482526040822060018154019055858252600260205284604083209182541617905580a4565b60405162461bcd60e51b8152602060048201526024808201527f4552433732313a207472616e7366657220746f20746865207a65726f206164646044820152637265737360e01b6064820152608490fd5b9293600093909291803b15611d3157948491611c759660405180948193630a85bd0160e11b9788845233600485015260018060a01b0380921660248501526044840152608060648401528260209b8c976084830190611661565b0393165af1849181611cf1575b50611ce0575050503d600014611cd8573d611c9c81611765565b90611caa6040519283611743565b81528091833d92013e5b80519182611cd55760405162461bcd60e51b815280611a1a60048201611a1e565b01fd5b506060611cb4565b6001600160e01b0319161492509050565b9091508581813d8311611d2a575b611d098183611743565b81010312610c2457516001600160e01b031981168103610c24579038611c82565b503d611cff565b50505091505060019056feddf252ad1be2c89b69c2b068fc378daa952ba7f163c4a11628f55a4df523b3efa264697066735822122068ce62d0aab7fb06f04e2e27d834f2944339b1f150365fe99a6663948430178464736f6c63430008110033",
    "linkReferences": {}
  },
  "methodIdentifiers": {
    "GRACE_PERIOD()": "c1a287e2",
    "addController(address)": "a7fc7a07",
    "approve(address,uint256)": "095ea7b3",
    "available(uint256)": "96e494e8",
    "balanceOf(address)": "70a08231",
    "baseNode()": "ddf7fcb0",
    "controllers(address)": "da8c229e",
    "ens()": "3f15457f",
    "getApproved(uint256)": "081812fc",
    "isApprovedForAll(address,address)": "e985e9c5",
    "name()": "06fdde03",
    "nameExpires(uint256)": "d6e4fa86",
    "owner()": "8da5cb5b",
    "ownerOf(uint256)": "6352211e",
    "reclaim(uint256,address)": "28ed4f6c",
    "register(uint256,address,uint256)": "fca247ac",
    "registerOnly(uint256,address,uint256)": "0e297b45",
    "removeController(address)": "f6a74ed7",
    "renew(uint256,uint256)": "c475abff",
    "renounceOwnership()": "715018a6",
    "safeTransferFrom(address,address,uint256)": "42842e0e",
    "safeTransferFrom(address,address,uint256,bytes)": "b88d4fde",
    "setApprovalForAll(address,bool)": "a22cb465",
    "setResolver(address)": "4e543b26",
    "supportsInterface(bytes4)": "01ffc9a7",
    "symbol()": "95d89b41",
    "tokenURI(uint256)": "c87b56dd",
    "transferFrom(address,address,uint256)": "23b872dd",
    "transferOwnership(address)": "f2fde38b"
  },
  "id": 18
}