{
  "abi": [
    {
      "inputs": [
        {
          "internalType": "contract IEntryPoint",
          "name": "_entryPoint",
          "type": "address"
        },
        {
          "internalType": "contract ENS",
          "name": "ensAddr",
          "type": "address"
        },
        {
          "internalType": "address",
          "name": "_priceFeed",
          "type": "address"
        }
      ],
      "stateMutability": "nonpayable",
      "type": "constructor"
    },
    {
      "inputs": [],
      "name": "FailedToValidatedOp",
      "type": "error"
    },
    {
      "inputs": [],
      "name": "InvalidConfig",
      "type": "error"
    },
    {
      "inputs": [],
      "name": "InvalidSignatureLength",
      "type": "error"
    },
    {
      "inputs": [],
      "name": "NotEnoughValueForGas",
      "type": "error"
    },
    {
      "inputs": [],
      "name": "UnAuthorized",
      "type": "error"
    },
    {
      "anonymous": false,
      "inputs": [
        {
          "indexed": true,
          "internalType": "address",
          "name": "previousOwner",
          "type": "address"
        },
        {
          "indexed": true,
          "internalType": "address",
          "name": "newOwner",
          "type": "address"
        }
      ],
      "name": "OwnershipTransferred",
      "type": "event"
    },
    {
      "anonymous": false,
      "inputs": [
        {
          "indexed": false,
          "internalType": "address",
          "name": "account",
          "type": "address"
        }
      ],
      "name": "Paused",
      "type": "event"
    },
    {
      "anonymous": false,
      "inputs": [
        {
          "indexed": false,
          "internalType": "address",
          "name": "account",
          "type": "address"
        }
      ],
      "name": "Unpaused",
      "type": "event"
    },
    {
      "inputs": [],
      "name": "COST_OF_POST",
      "outputs": [
        {
          "internalType": "uint256",
          "name": "",
          "type": "uint256"
        }
      ],
      "stateMutability": "view",
      "type": "function"
    },
    {
      "inputs": [],
      "name": "REVERT_FINE_CONSTANT",
      "outputs": [
        {
          "internalType": "uint256",
          "name": "",
          "type": "uint256"
        }
      ],
      "stateMutability": "view",
      "type": "function"
    },
    {
      "inputs": [
        {
          "internalType": "uint32",
          "name": "unstakeDelaySec",
          "type": "uint32"
        }
      ],
      "name": "addStake",
      "outputs": [],
      "stateMutability": "payable",
      "type": "function"
    },
    {
      "inputs": [
        {
          "internalType": "contract IERC20",
          "name": "token",
          "type": "address"
        },
        {
          "internalType": "string",
          "name": "pair",
          "type": "string"
        }
      ],
      "name": "addToken",
      "outputs": [],
      "stateMutability": "nonpayable",
      "type": "function"
    },
    {
      "inputs": [
        {
          "internalType": "address",
          "name": "",
          "type": "address"
        },
        {
          "internalType": "bytes32",
          "name": "",
          "type": "bytes32"
        }
      ],
      "name": "debt",
      "outputs": [
        {
          "internalType": "uint256",
          "name": "amount",
          "type": "uint256"
        },
        {
          "internalType": "address",
          "name": "debtee",
          "type": "address"
        },
        {
          "internalType": "contract IERC20",
          "name": "token",
          "type": "address"
        }
      ],
      "stateMutability": "view",
      "type": "function"
    },
    {
      "inputs": [],
      "name": "deposit",
      "outputs": [],
      "stateMutability": "payable",
      "type": "function"
    },
    {
      "inputs": [],
      "name": "entryPoint",
      "outputs": [
        {
          "internalType": "contract IEntryPoint",
          "name": "",
          "type": "address"
        }
      ],
      "stateMutability": "view",
      "type": "function"
    },
    {
      "inputs": [
        {
          "internalType": "bytes32",
          "name": "node",
          "type": "bytes32"
        }
      ],
      "name": "fundNode",
      "outputs": [],
      "stateMutability": "payable",
      "type": "function"
    },
    {
      "inputs": [],
      "name": "getDeposit",
      "outputs": [
        {
          "internalType": "uint256",
          "name": "",
          "type": "uint256"
        }
      ],
      "stateMutability": "view",
      "type": "function"
    },
    {
      "inputs": [
        {
          "components": [
            {
              "internalType": "address",
              "name": "sender",
              "type": "address"
            },
            {
              "internalType": "uint256",
              "name": "nonce",
              "type": "uint256"
            },
            {
              "internalType": "bytes",
              "name": "initCode",
              "type": "bytes"
            },
            {
              "internalType": "bytes",
              "name": "callData",
              "type": "bytes"
            },
            {
              "internalType": "uint256",
              "name": "callGasLimit",
              "type": "uint256"
            },
            {
              "internalType": "uint256",
              "name": "verificationGasLimit",
              "type": "uint256"
            },
            {
              "internalType": "uint256",
              "name": "preVerificationGas",
              "type": "uint256"
            },
            {
              "internalType": "uint256",
              "name": "maxFeePerGas",
              "type": "uint256"
            },
            {
              "internalType": "uint256",
              "name": "maxPriorityFeePerGas",
              "type": "uint256"
            },
            {
              "internalType": "bytes",
              "name": "paymasterAndData",
              "type": "bytes"
            },
            {
              "internalType": "bytes",
              "name": "signature",
              "type": "bytes"
            }
          ],
          "internalType": "struct UserOperation",
          "name": "userOp",
          "type": "tuple"
        },
        {
          "internalType": "bytes32",
          "name": "nodeHash",
          "type": "bytes32"
        },
        {
          "internalType": "uint48",
          "name": "validUntil",
          "type": "uint48"
        },
        {
          "internalType": "uint48",
          "name": "validAfter",
          "type": "uint48"
        }
      ],
      "name": "getHash",
      "outputs": [
        {
          "internalType": "bytes32",
          "name": "",
          "type": "bytes32"
        }
      ],
      "stateMutability": "view",
      "type": "function"
    },
    {
      "inputs": [
        {
          "internalType": "bytes32",
          "name": "",
          "type": "bytes32"
        }
      ],
      "name": "nodeToBalance",
      "outputs": [
        {
          "internalType": "uint256",
          "name": "",
          "type": "uint256"
        }
      ],
      "stateMutability": "view",
      "type": "function"
    },
    {
      "inputs": [
        {
          "internalType": "bytes32",
          "name": "",
          "type": "bytes32"
        }
      ],
      "name": "nodeToConfig",
      "outputs": [
        {
          "internalType": "address",
          "name": "verifyingSigner1",
          "type": "address"
        },
        {
          "internalType": "address",
          "name": "verifyingSigner2",
          "type": "address"
        },
        {
          "internalType": "enum SigCount",
          "name": "validNumOfSignatures",
          "type": "uint8"
        }
      ],
      "stateMutability": "view",
      "type": "function"
    },
    {
      "inputs": [],
      "name": "owner",
      "outputs": [
        {
          "internalType": "address",
          "name": "",
          "type": "address"
        }
      ],
      "stateMutability": "view",
      "type": "function"
    },
    {
      "inputs": [],
      "name": "paused",
      "outputs": [
        {
          "internalType": "bool",
          "name": "",
          "type": "bool"
        }
      ],
      "stateMutability": "view",
      "type": "function"
    },
    {
      "inputs": [
        {
          "internalType": "enum IPaymaster.PostOpMode",
          "name": "mode",
          "type": "uint8"
        },
        {
          "internalType": "bytes",
          "name": "context",
          "type": "bytes"
        },
        {
          "internalType": "uint256",
          "name": "actualGasCost",
          "type": "uint256"
        }
      ],
      "name": "postOp",
      "outputs": [],
      "stateMutability": "nonpayable",
      "type": "function"
    },
    {
      "inputs": [],
      "name": "priceFeed",
      "outputs": [
        {
          "internalType": "address",
          "name": "",
          "type": "address"
        }
      ],
      "stateMutability": "view",
      "type": "function"
    },
    {
      "inputs": [
        {
          "internalType": "bytes32",
          "name": "label",
          "type": "bytes32"
        },
        {
          "internalType": "address",
          "name": "owner",
          "type": "address"
        },
        {
          "internalType": "bytes32",
          "name": "node",
          "type": "bytes32"
        }
      ],
      "name": "register",
      "outputs": [],
      "stateMutability": "nonpayable",
      "type": "function"
    },
    {
      "inputs": [],
      "name": "renounceOwnership",
      "outputs": [],
      "stateMutability": "nonpayable",
      "type": "function"
    },
    {
      "inputs": [
        {
          "internalType": "address",
          "name": "",
          "type": "address"
        }
      ],
      "name": "senderNonce",
      "outputs": [
        {
          "internalType": "uint256",
          "name": "",
          "type": "uint256"
        }
      ],
      "stateMutability": "view",
      "type": "function"
    },
    {
      "inputs": [
        {
          "internalType": "address",
          "name": "primarySigner",
          "type": "address"
        },
        {
          "internalType": "address",
          "name": "secondarySigner",
          "type": "address"
        },
        {
          "internalType": "bytes32",
          "name": "node",
          "type": "bytes32"
        },
        {
          "internalType": "uint8",
          "name": "sigCount",
          "type": "uint8"
        }
      ],
      "name": "setNodeSigners",
      "outputs": [],
      "stateMutability": "nonpayable",
      "type": "function"
    },
    {
      "inputs": [
        {
          "internalType": "contract IERC20",
          "name": "",
          "type": "address"
        }
      ],
      "name": "tokenToUSDPair",
      "outputs": [
        {
          "internalType": "string",
          "name": "",
          "type": "string"
        }
      ],
      "stateMutability": "view",
      "type": "function"
    },
    {
      "inputs": [
        {
          "internalType": "address",
          "name": "newOwner",
          "type": "address"
        }
      ],
      "name": "transferOwnership",
      "outputs": [],
      "stateMutability": "nonpayable",
      "type": "function"
    },
    {
      "inputs": [],
      "name": "unlockStake",
      "outputs": [],
      "stateMutability": "nonpayable",
      "type": "function"
    },
    {
      "inputs": [
        {
          "components": [
            {
              "internalType": "address",
              "name": "sender",
              "type": "address"
            },
            {
              "internalType": "uint256",
              "name": "nonce",
              "type": "uint256"
            },
            {
              "internalType": "bytes",
              "name": "initCode",
              "type": "bytes"
            },
            {
              "internalType": "bytes",
              "name": "callData",
              "type": "bytes"
            },
            {
              "internalType": "uint256",
              "name": "callGasLimit",
              "type": "uint256"
            },
            {
              "internalType": "uint256",
              "name": "verificationGasLimit",
              "type": "uint256"
            },
            {
              "internalType": "uint256",
              "name": "preVerificationGas",
              "type": "uint256"
            },
            {
              "internalType": "uint256",
              "name": "maxFeePerGas",
              "type": "uint256"
            },
            {
              "internalType": "uint256",
              "name": "maxPriorityFeePerGas",
              "type": "uint256"
            },
            {
              "internalType": "bytes",
              "name": "paymasterAndData",
              "type": "bytes"
            },
            {
              "internalType": "bytes",
              "name": "signature",
              "type": "bytes"
            }
          ],
          "internalType": "struct UserOperation",
          "name": "userOp",
          "type": "tuple"
        },
        {
          "internalType": "bytes32",
          "name": "userOpHash",
          "type": "bytes32"
        },
        {
          "internalType": "uint256",
          "name": "maxCost",
          "type": "uint256"
        }
      ],
      "name": "validatePaymasterUserOp",
      "outputs": [
        {
          "internalType": "bytes",
          "name": "context",
          "type": "bytes"
        },
        {
          "internalType": "uint256",
          "name": "validationData",
          "type": "uint256"
        }
      ],
      "stateMutability": "nonpayable",
      "type": "function"
    },
    {
      "inputs": [
        {
          "internalType": "bytes32",
          "name": "node",
          "type": "bytes32"
        }
      ],
      "name": "withdraw",
      "outputs": [],
      "stateMutability": "nonpayable",
      "type": "function"
    },
    {
      "inputs": [
        {
          "internalType": "address payable",
          "name": "withdrawAddress",
          "type": "address"
        }
      ],
      "name": "withdrawStake",
      "outputs": [],
      "stateMutability": "nonpayable",
      "type": "function"
    },
    {
      "inputs": [
        {
          "internalType": "address payable",
          "name": "withdrawAddress",
          "type": "address"
        },
        {
          "internalType": "uint256",
          "name": "amount",
          "type": "uint256"
        }
      ],
      "name": "withdrawTo",
      "outputs": [],
      "stateMutability": "nonpayable",
      "type": "function"
    }
  ],
  "bytecode": {
    "object": "0x60a0346200012f57601f6200273e38819003918201601f19168301916001600160401b0383118484101762000134578084926060946040528339810103126200012f5780516001600160a01b039182821682036200012f576020810151908382168092036200012f5760400151918383168093036200012f57600180556002549060405194339083167f8be0079c531659141344cd1fd0a4f28419497f9722a3daafe3b4186f6b6457e0600080a36080526001600160a81b0319163360ff60a01b191617600255600080546001600160a01b03199081169092179055600380549091169190911790556125f390816200014b8239608051818181610291015281816104ce01528181610b3001528181610b7d01528181610c0601528181610c8d01528181610d1a01526115b80152f35b600080fd5b634e487b7160e01b600052604160045260246000fdfe60806040526004361015610013575b600080fd5b60003560e01c806303587c4c1461022f5780630396cb601461022657806317ac89021461021d5780631fbe11f914610214578063205c28781461020b5780632c8da560146102025780635c975abb146101f95780636180deb6146101f0578063715018a6146101e7578063741bef1a146101de578063796d4371146101d557806385c809a4146101cc5780638da5cb5b146101c35780638e19899e146101ba5780639c90b443146101b15780639dc23b10146101a8578063a9a234091461019f578063b0d691fe14610196578063bb9fe6bf1461018d578063c23a5cea14610184578063c399ec881461017b578063d0e30db014610172578063d9d6491014610169578063eb9a2e3114610160578063f0ebdbe914610157578063f2fde38b1461014e5763f465c77e1461014657600080fd5b61000e611084565b5061000e610f9f565b5061000e610ebf565b5061000e610e03565b5061000e610d99565b5061000e610d0a565b5061000e610c5e565b5061000e610bd4565b5061000e610b5f565b5061000e610b19565b5061000e610ab4565b5061000e610a87565b5061000e610a49565b5061000e6109b6565b5061000e61098c565b5061000e610933565b5061000e6108ec565b5061000e6108c2565b5061000e610863565b5061000e610799565b5061000e610767565b5061000e610619565b5061000e61049c565b5061000e610434565b5061000e61031e565b5061000e610267565b50602036600319011261000e576004356000526004602052604060002080549034820180921161025c5755005b61026461183f565b55005b506000602036600319011261030a5760043563ffffffff81168091036103065761028f611625565b7f00000000000000000000000000000000000000000000000000000000000000006001600160a01b0316908290823b1561030657602460405180948193621cb65b60e51b8352600483015234905af180156102f9575b6102ed575080f35b6102f690610549565b80f35b61030161159a565b6102e5565b5080fd5b80fd5b6001600160a01b0381160361000e57565b503461000e57606036600319011261000e576103ed6004356024356103428161030d565b604435916103e86103ba602061036e61036260005460018060a01b031690565b6001600160a01b031690565b604080518381018981526020810188905291610396908290840103601f198101835282610586565b5190209060405180809581946302571be360e01b8352600483019190602083019252565b03915afa908115610427575b6000916103f9575b506001600160a01b031680159081156103ef575b50612549565b612550565b005b90503314386103e2565b61041a915060203d8111610420575b6104128183610586565b810190611721565b386103ce565b503d610408565b61042f61159a565b6103c6565b503461000e57604036600319011261000e5760606004356104548161030d565b60018060a01b03809116600052600860205260406000206024356000526020526040600020805491600281600184015416920154169060405192835260208301526040820152f35b503461000e576000604036600319011261030a576004356104bc8161030d565b6104c4611625565b6001600160a01b037f0000000000000000000000000000000000000000000000000000000000000000811691839190833b1561052e5760449083604051958694859363040b850f60e31b855216600484015260243560248401525af180156102f9576102ed575080f35b8280fd5b50634e487b7160e01b600052604160045260246000fd5b67ffffffffffffffff811161055d57604052565b610565610532565b604052565b6060810190811067ffffffffffffffff82111761055d57604052565b90601f8019910116810190811067ffffffffffffffff82111761055d57604052565b604051906105b58261056a565b565b60209067ffffffffffffffff81116105d5575b601f01601f19160190565b6105dd610532565b6105ca565b9291926105ee826105b7565b916105fc6040519384610586565b82948184528183011161000e578281602093846000960137010152565b503461000e57604036600319011261000e576004356106378161030d565b67ffffffffffffffff9060243582811161000e573660238201121561000e5761066a9036906024816004013591016105e2565b91610673611625565b60009160018060a01b03168252602090600682526040832091845191821161074f575b6106aa826106a48554610e29565b856117eb565b80601f83116001146106e457508394829394926106d9575b50508160011b916000199060031b1c191617905580f35b0151905038806106c2565b90601f198316956106fa85600052602060002090565b9286905b8882106107375750508360019596971061071e575b505050811b01905580f35b015160001960f88460031b161c19169055388080610713565b806001859682949686015181550195019301906106fe565b610757610532565b610696565b600091031261000e57565b503461000e57600036600319011261000e57602060ff60025460a01c166040519015158152f35b60ff81160361000e57565b503461000e57608036600319011261000e576004356107b78161030d565b6024356107c38161030d565b604435606435916107d38361078e565b6000546040516302571be360e01b815260048101849052906001600160a01b03906020908390602490829085165afa918215610856575b600092610836575b5033911603610824576103ed93611736565b60405163be24598360e01b8152600490fd5b61084f91925060203d8111610420576104128183610586565b9038610812565b61085e61159a565b61080a565b503461000e5760008060031936011261030a5761087e611625565b600280546001600160a01b0319811690915581906001600160a01b03167f8be0079c531659141344cd1fd0a4f28419497f9722a3daafe3b4186f6b6457e08280a380f35b503461000e57600036600319011261000e576003546040516001600160a01b039091168152602090f35b503461000e57600036600319011261000e576020604051619c408152f35b50634e487b7160e01b600052602160045260246000fd5b6003111561092b57565b6105b561090a565b503461000e57602036600319011261000e5760043560005260076020526060604060002060018060a01b036001818354169201549060ff8260a01c169160405193845216602083015261098581610921565b6040820152f35b503461000e57600036600319011261000e576002546040516001600160a01b039091168152602090f35b503461000e57602036600319011261000e576000546040516302571be360e01b815260048035908201819052916001600160a01b03906020908390602490829085165afa918215610a3c575b600092610a1c575b5033911603610824576103ed9061186b565b610a3591925060203d8111610420576104128183610586565b9038610a0a565b610a4461159a565b610a02565b503461000e57602036600319011261000e57600435610a678161030d565b60018060a01b031660005260056020526020604060002054604051908152f35b503461000e57602036600319011261000e5760043560005260046020526020604060002054604051908152f35b503461000e57606036600319011261000e57600435600381101561000e5760243567ffffffffffffffff80821161000e573660238301121561000e57816004013590811161000e57366024828401011161000e576103ed926024604435930190611586565b503461000e57600036600319011261000e576040517f00000000000000000000000000000000000000000000000000000000000000006001600160a01b03168152602090f35b503461000e5760008060031936011261030a57610b7a611625565b807f00000000000000000000000000000000000000000000000000000000000000006001600160a01b0316803b15610bd157819060046040518094819363bb9fe6bf60e01b83525af180156102f9576102ed575080f35b50fd5b503461000e576000602036600319011261030a57600435610bf48161030d565b610bfc611625565b6001600160a01b037f0000000000000000000000000000000000000000000000000000000000000000811691839190833b1561052e5760249083604051958694859363611d2e7560e11b85521660048401525af180156102f9576102ed575080f35b503461000e57600036600319011261000e576040516370a0823160e01b815230600482015260209081816024817f00000000000000000000000000000000000000000000000000000000000000006001600160a01b03165afa908115610cfd575b600091610cd0575b50604051908152f35b610cf09150823d8111610cf6575b610ce88183610586565b8101906115a7565b38610cc7565b503d610cde565b610d0561159a565b610cbf565b5060008060031936011261030a577f00000000000000000000000000000000000000000000000000000000000000006001600160a01b031681813b1561030a5760405163b760faf960e01b8152306004820152918290602490829034905af180156102f9576102ed575080f35b908161016091031261000e5790565b359065ffffffffffff8216820361000e57565b503461000e57608036600319011261000e5760043567ffffffffffffffff811161000e57610dcb903690600401610d77565b6044359065ffffffffffff808316830361000e57606435908116810361000e57602092610dfb926024359061167d565b604051908152f35b503461000e57600036600319011261000e576020604051690a968163f0a57b4000008152f35b90600182811c92168015610e59575b6020831014610e4357565b634e487b7160e01b600052602260045260246000fd5b91607f1691610e38565b60005b838110610e765750506000910152565b8181015183820152602001610e66565b90602091610e9f81518092818552858086019101610e63565b601f01601f1916010190565b906020610ebc928181520190610e86565b90565b503461000e5760208060031936011261000e5760043590610edf8261030d565b60009160018060a01b031682526006815260408220906040519183815490610f0682610e29565b80865292600192808416908115610f7b5750600114610f40575b610f3c86610f30818a0382610586565b60405191829182610eab565b0390f35b9080949650528483205b828410610f685750505081610f3c93610f3092820101933880610f20565b8054858501870152928501928101610f4a565b60ff19168787015250505050151560051b8201019150610f3081610f3c3880610f20565b503461000e57602036600319011261000e57600435610fbd8161030d565b610fc5611625565b6001600160a01b0390811690811561101457600254826001600160601b0360a01b821617600255167f8be0079c531659141344cd1fd0a4f28419497f9722a3daafe3b4186f6b6457e0600080a3005b60405162461bcd60e51b815260206004820152602660248201527f4f776e61626c653a206e6577206f776e657220697320746865207a65726f206160448201526564647265737360d01b6064820152608490fd5b92919061107f602091604086526040860190610e86565b930152565b503461000e57606036600319011261000e576004803567ffffffffffffffff811161000e576110b69036908301610d77565b906110bf6115b6565b61012082019060746110db6110d484866118a6565b90506118d9565b108015611577575b611568576111036110fd6110f784866118a6565b906118f5565b906119a3565b9061114561114083611131611117886119c0565b6001600160a01b0316600090815260086020526040902090565b90600052602052604060002090565b6119ca565b938451926044359384106115575761116f61116a826000526007602052604060002090565b611a00565b92604093848101519561118187610921565b61119f6111976111918a886118a6565b90611906565b810190611a41565b6111c96103626111c36111bd6111b78e969e8c6118a6565b90611917565b90611a62565b60601c90565b916111ee6111e98460018060a01b03166000526006602052604060002090565b611a93565b15611547576111fd90886118a6565b8061120792611928565b9a61121483828a8c61167d565b611247907f19457468657265756d205369676e6564204d6573736167653a0a333200000000600052601c52603c60002090565b9265ffffffffffff60d01b9060d01b169065ffffffffffff60a01b9060a01b16179a8b966112748a6119c0565b9b8961127f8c611a9d565b978d519e8f928392600160a01b600190039b8c60209c168c8601946112d39593919060889593916001600160601b0319809260601b16865260601b1660148501526028840152604883015260688201520190565b03601f19810182526112e491610586565b6112ed81610921565b600181036114115750865186166001600160a01b031615806113f4575b6113e6575090611324929161131e8a6119c0565b91611ae2565b835190929061133b906001600160a01b0316610362565b92169182141592836113c4575b505081156113bb575b506113ae575b50610f3c9394955b51611371575b50505192839283611068565b6113a28261139d61138b846111316111176113a7986119c0565b60026000918281558260018201550155565b6119c0565b612468565b3880611365565b6001179450610f3c611357565b90501538611351565b01519091506113db906001600160a01b0316610362565b811415903880611348565b8a516301d31d0d60e41b8152fd5b508685015161140b906001600160a01b0316610362565b1561130a565b60029192939495985061142381610921565b1461143b575b50505050505050610f3c93949561135f565b855185166001600160a01b031615801561152a575b61151c57509061146a9291611464896119c0565b91611e4e565b8351909491908390611484906001600160a01b0316610362565b9116928184141595866114f8575b86156114bc575b5050505050506114b0575b38808080808080611429565b600194909417936114a4565b16141593509091836114d7575b505050388080808080611499565b01519091506114ee906001600160a01b0316610362565b14153880806114c9565b85840151909650611511906001600160a01b0316610362565b818716141595611492565b89516301d31d0d60e41b8152fd5b5085870151611541906001600160a01b0316610362565b15611450565b88516301d31d0d60e41b81528690fd5b60405163e5f5a79960e01b81528390fd5b6040516301d31d0d60e41b8152fd5b50619c4060a0840135106110e3565b906105b59392916115956115b6565b61203a565b506040513d6000823e3d90fd5b9081602091031261000e575190565b7f00000000000000000000000000000000000000000000000000000000000000006001600160a01b031633036115e857565b60405162461bcd60e51b815260206004820152601560248201527414d95b99195c881b9bdd08115b9d1c9e541bda5b9d605a1b6044820152606490fd5b6002546001600160a01b0316330361163957565b606460405162461bcd60e51b815260206004820152602060248201527f4f776e61626c653a2063616c6c6572206973206e6f7420746865206f776e65726044820152fd5b61171b9193816116916101208201826118a6565b500394601f199283870160405197880160405280885281602089013760018060a01b039035166000526005602052604060002054906040519586936116e3602086019960e08b52610100870190610e86565b93466040870152306060870152608086015265ffffffffffff80921660a08601521660c084015260e083015203908101835282610586565b51902090565b9081602091031261000e5751610ebc8161030d565b60ff8416939291600285116117d95761177661179d9284600052600760205260406000209060018060a01b03166001600160601b0360a01b825416179055565b604060002060010180546001600160a01b0319166001600160a01b03909216919091179055565b6117a683610921565b60005260076020526117bf600160406000200192610921565b815460ff60a01b191660a09190911b60ff60a01b16179055565b6040516306b7c75960e31b8152600490fd5b90601f81116117f957505050565b600091825260208220906020601f850160051c83019410611835575b601f0160051c01915b82811061182a57505050565b81815560010161181e565b9092508290611815565b50634e487b7160e01b600052601160045260246000fd5b9190820180921161186357565b6105b561183f565b60009081526004602052808080604081205481604081205581811561189d575b3390f11561189557565b6105b561159a565b506108fc61188b565b903590601e198136030182121561000e570180359067ffffffffffffffff821161000e5760200191813603831361000e57565b60131981019190821161186357565b9190820391821161186357565b9060741161000e5760540190602090565b9060541161000e5760140190604090565b9060881161000e5760740190601490565b909291928360881161000e57831161000e57608801916087190190565b9060141161000e5790601490565b9060281161000e5760140190601490565b909291928360681161000e57831161000e57606801916067190190565b9060681161000e5760480190602090565b9060481161000e5760280190602090565b3590602081106119b1575090565b6000199060200360031b1b1690565b35610ebc8161030d565b906040516119d78161056a565b8254815260018301546001600160a01b0390811660208301526002909301549092166040830152565b90604051611a0d8161056a565b82546001600160a01b03908116825260019093015492831660208201529160a01c60ff16604083611a3d83610921565b0152565b919082604091031261000e57610ebc6020611a5b84610d86565b9301610d86565b6bffffffffffffffffffffffff199035818116939260148110611a8457505050565b60140360031b82901b16169150565b610ebc9054610e29565b61010060e0820135910135808214611ac257480180821015611abd575090565b905090565b5090565b6001906000198114611ad6570190565b611ade61183f565b0190565b929190926001611b196020611af83688866105e2565b6040518093819263ebbe024760e01b83528460048401526024830190610e86565b038173__$7b63f0111a75dee794ec9d028e8dda3afa$__5af4908115611bb4575b600091611b96575b5003611b8457610ebc93611b6b611b7e9360018060a01b03166000526005602052604060002090565b611b758154611ac6565b905536916105e2565b90611bc1565b604051634be6321b60e01b8152600490fd5b611bae915060203d8111610cf657610ce88183610586565b38611b42565b611bbc61159a565b611b3a565b610ebc91611bce91611d00565b919091611be0565b6005111561092b57565b611be981611bd6565b80611bf15750565b611bfa81611bd6565b60018103611c475760405162461bcd60e51b815260206004820152601860248201527f45434453413a20696e76616c6964207369676e617475726500000000000000006044820152606490fd5b611c5081611bd6565b60028103611c9d5760405162461bcd60e51b815260206004820152601f60248201527f45434453413a20696e76616c6964207369676e6174757265206c656e677468006044820152606490fd5b80611ca9600392611bd6565b14611cb057565b60405162461bcd60e51b815260206004820152602260248201527f45434453413a20696e76616c6964207369676e6174757265202773272076616c604482015261756560f01b6064820152608490fd5b906041815114600014611d2e57611d2a916020820151906060604084015193015160001a90611d38565b9091565b5050600090600290565b9291907f7fffffffffffffffffffffffffffffff5d576e7357a4501ddfe92f46681b20a08311611dbc5791608094939160ff602094604051948552168484015260408301526060820152600093849182805260015afa15611daf575b81516001600160a01b03811615611da9579190565b50600190565b611db761159a565b611d94565b50505050600090600390565b81601f8201121561000e578051611dde816105b7565b92611dec6040519485610586565b8184526020828401011161000e57610ebc9160208085019101610e63565b91909160408184031261000e5780519267ffffffffffffffff9384811161000e5781611e37918401611dc8565b93602083015190811161000e57610ebc9201611dc8565b9190939293611e5e3682856105e2565b926002611e96602073__$7b63f0111a75dee794ec9d028e8dda3afa$__966040518093819263ebbe024760e01b835260048301610eab565b0381895af4908115611f88575b600091611f6a575b5003611b8457610ebc93611ec6600092611ee29436916105e2565b90604051808095819463702deddd60e11b835260048301610eab565b03915af4908115611f5d575b6000908192611f31575b50611f19611f2b929360018060a01b03166000526005602052604060002090565b611f238154611ac6565b905585611bc1565b93611bc1565b611f2b9250611f5590611f19923d8091833e611f4d8183610586565b810190611e0a565b925090611ef8565b611f6561159a565b611eee565b611f82915060203d8111610cf657610ce88183610586565b38611eab565b611f9061159a565b611ea3565b90619c40918083029283040361186357565b90690a968163f0a57b4000009182810292818404149015171561186357565b8181029291811591840414171561186357565b8115611fe3570490565b634e487b7160e01b600052601260045260246000fd5b8151815560208201516001820180546001600160a01b039283166001600160a01b031991821617909155604090930151600290920180549093169116179055565b919290926120488185611945565b61205191611a62565b60601c9061205f8186611953565b61206891611a62565b60601c90612077818088611964565b612080916119a3565b9361208b8288611981565b612094916119a3565b6001600160a01b03909316966120aa8489612366565b926120b491611992565b6120bd916119a3565b6120c690611f95565b6120cf91611856565b906120d991611fc6565b906120e391611fd9565b926120f8836000526004602052604060002090565b84815490612105916118e8565b905561211081610921565b6002036121ba57906111316121b5926111176105b59661214261213288611fa7565b69d3c21bcecceda1000000900490565b612161612159876000526004602052604060002090565b9182546118e8565b90556121a561218a61217d876000526007602052604060002090565b546001600160a01b031690565b6121926105a8565b9889526001600160a01b03166020890152565b6001600160a01b03166040870152565b611ff9565b91906121e861217d73__$7b63f0111a75dee794ec9d028e8dda3afa$__926000526007602052604060002090565b813b1561000e5760405163d403c7d960e01b81526001600160a01b0394851660048201529084166024820152604481019290925291909216606483015260009082908180608481015b03915af48015612256575b6122435750565b806122506105b592610549565b8061075c565b61225e61159a565b61223c565b9081602091031261000e5751610ebc8161078e565b949392919060018060a01b0316855260209060a082870152600091815461229e81610e29565b928360a08a0152600191828116908160001461233857506001146122fa575b5050505061107f906122d7608093604088019060ff169052565b858103606087015260088152676574685f7573646360c01b602082015260400190565b60009081528281209094505b8385106123245750505050840160c001816122d761107f60806122bd565b805489860160c00152938201938101612306565b905061107f95506122d7935060c0925060809694915060ff1916828a0152151560051b8801019282946122bd565b6003546001600160a01b03918216600081815260066020908152604091829020915163313ce56760e01b815290959094869492939216918490869060049082905afa94851561245b575b600095612428575b506123d890604051958694859463428edc3b60e11b865260048601612278565b038173__$11ed3ce857e5228bdfcc43783e8d0d374a$__5af491821561241b575b60009261240557505090565b610ebc9250803d10610cf657610ce88183610586565b61242361159a565b6123f9565b6123d891955061244d90853d8711612454575b6124458183610586565b810190612263565b94906123b8565b503d61243b565b61246361159a565b6123b0565b6001600160a01b0381811660008181526008602081815260408084208885528083529084206001015494845291905293949093909273__$7b63f0111a75dee794ec9d028e8dda3afa$__9216906124fa906002906124ec906124cb908790611131565b546001600160a01b0389166000908152600860205260409020909690611131565b01546001600160a01b031690565b94823b156125455760405163d403c7d960e01b81526001600160a01b039182166004820152918116602483015260448201939093529390911660648401528290818060848101612231565b8480fd5b1561000e57565b606460209293600060018060a01b03808254169060405197889687956306ab592360e01b8752600487015260248601521660448401525af180156125b0575b6125965750565b6125ad9060203d8111610cf657610ce88183610586565b50565b6125b861159a565b61258f56fea26469706673582212206ac195ef986e6c64f5c1dcf7505e6f718a549262e3624c2c6d071c98b3c31e0d64736f6c63430008110033",
    "linkReferences": {
      "src/library/Helpers.sol": {
        "HelperLibrary": [
          {
            "start": 7272,
            "length": 20
          },
          {
            "start": 8115,
            "length": 20
          },
          {
            "start": 8975,
            "length": 20
          },
          {
            "start": 9706,
            "length": 20
          }
        ]
      },
      "src/utils/OracleConsumer.sol": {
        "PriceFeedConsumer": [
          {
            "start": 9511,
            "length": 20
          }
        ]
      }
    }
  },
  "methodIdentifiers": {
    "COST_OF_POST()": "796d4371",
    "REVERT_FINE_CONSTANT()": "eb9a2e31",
    "addStake(uint32)": "0396cb60",
    "addToken(address,string)": "2c8da560",
    "debt(address,bytes32)": "1fbe11f9",
    "deposit()": "d0e30db0",
    "entryPoint()": "b0d691fe",
    "fundNode(bytes32)": "03587c4c",
    "getDeposit()": "c399ec88",
    "getHash((address,uint256,bytes,bytes,uint256,uint256,uint256,uint256,uint256,bytes,bytes),bytes32,uint48,uint48)": "d9d64910",
    "nodeToBalance(bytes32)": "9dc23b10",
    "nodeToConfig(bytes32)": "85c809a4",
    "owner()": "8da5cb5b",
    "paused()": "5c975abb",
    "postOp(uint8,bytes,uint256)": "a9a23409",
    "priceFeed()": "741bef1a",
    "register(bytes32,address,bytes32)": "17ac8902",
    "renounceOwnership()": "715018a6",
    "senderNonce(address)": "9c90b443",
    "setNodeSigners(address,address,bytes32,uint8)": "6180deb6",
    "tokenToUSDPair(address)": "f0ebdbe9",
    "transferOwnership(address)": "f2fde38b",
    "unlockStake()": "bb9fe6bf",
    "validatePaymasterUserOp((address,uint256,bytes,bytes,uint256,uint256,uint256,uint256,uint256,bytes,bytes),bytes32,uint256)": "f465c77e",
    "withdraw(bytes32)": "8e19899e",
    "withdrawStake(address)": "c23a5cea",
    "withdrawTo(address,uint256)": "205c2878"
  },
  "id": 61
}