{
  "abi": [
    {
      "inputs": [
        {
          "internalType": "contract IEntryPoint",
          "name": "anEntryPoint",
          "type": "address"
        }
      ],
      "stateMutability": "nonpayable",
      "type": "constructor"
    },
    {
      "anonymous": false,
      "inputs": [
        {
          "indexed": false,
          "internalType": "address",
          "name": "previousAdmin",
          "type": "address"
        },
        {
          "indexed": false,
          "internalType": "address",
          "name": "newAdmin",
          "type": "address"
        }
      ],
      "name": "AdminChanged",
      "type": "event"
    },
    {
      "anonymous": false,
      "inputs": [
        {
          "indexed": true,
          "internalType": "address",
          "name": "beacon",
          "type": "address"
        }
      ],
      "name": "BeaconUpgraded",
      "type": "event"
    },
    {
      "anonymous": false,
      "inputs": [
        {
          "indexed": false,
          "internalType": "uint8",
          "name": "version",
          "type": "uint8"
        }
      ],
      "name": "Initialized",
      "type": "event"
    },
    {
      "anonymous": false,
      "inputs": [
        {
          "indexed": true,
          "internalType": "contract IEntryPoint",
          "name": "entryPoint",
          "type": "address"
        },
        {
          "indexed": true,
          "internalType": "address",
          "name": "owner",
          "type": "address"
        }
      ],
      "name": "SimpleAccountInitialized",
      "type": "event"
    },
    {
      "anonymous": false,
      "inputs": [
        {
          "indexed": true,
          "internalType": "address",
          "name": "implementation",
          "type": "address"
        }
      ],
      "name": "Upgraded",
      "type": "event"
    },
    {
      "inputs": [],
      "name": "addDeposit",
      "outputs": [],
      "stateMutability": "payable",
      "type": "function"
    },
    {
      "inputs": [],
      "name": "entryPoint",
      "outputs": [
        {
          "internalType": "contract IEntryPoint",
          "name": "",
          "type": "address"
        }
      ],
      "stateMutability": "view",
      "type": "function"
    },
    {
      "inputs": [
        {
          "internalType": "address",
          "name": "dest",
          "type": "address"
        },
        {
          "internalType": "uint256",
          "name": "value",
          "type": "uint256"
        },
        {
          "internalType": "bytes",
          "name": "func",
          "type": "bytes"
        }
      ],
      "name": "execute",
      "outputs": [],
      "stateMutability": "nonpayable",
      "type": "function"
    },
    {
      "inputs": [
        {
          "internalType": "address[]",
          "name": "dest",
          "type": "address[]"
        },
        {
          "internalType": "bytes[]",
          "name": "func",
          "type": "bytes[]"
        }
      ],
      "name": "executeBatch",
      "outputs": [],
      "stateMutability": "nonpayable",
      "type": "function"
    },
    {
      "inputs": [],
      "name": "getDeposit",
      "outputs": [
        {
          "internalType": "uint256",
          "name": "",
          "type": "uint256"
        }
      ],
      "stateMutability": "view",
      "type": "function"
    },
    {
      "inputs": [],
      "name": "getNonce",
      "outputs": [
        {
          "internalType": "uint256",
          "name": "",
          "type": "uint256"
        }
      ],
      "stateMutability": "view",
      "type": "function"
    },
    {
      "inputs": [
        {
          "internalType": "address",
          "name": "anOwner",
          "type": "address"
        }
      ],
      "name": "initialize",
      "outputs": [],
      "stateMutability": "nonpayable",
      "type": "function"
    },
    {
      "inputs": [
        {
          "internalType": "address",
          "name": "",
          "type": "address"
        },
        {
          "internalType": "address",
          "name": "",
          "type": "address"
        },
        {
          "internalType": "uint256[]",
          "name": "",
          "type": "uint256[]"
        },
        {
          "internalType": "uint256[]",
          "name": "",
          "type": "uint256[]"
        },
        {
          "internalType": "bytes",
          "name": "",
          "type": "bytes"
        }
      ],
      "name": "onERC1155BatchReceived",
      "outputs": [
        {
          "internalType": "bytes4",
          "name": "",
          "type": "bytes4"
        }
      ],
      "stateMutability": "pure",
      "type": "function"
    },
    {
      "inputs": [
        {
          "internalType": "address",
          "name": "",
          "type": "address"
        },
        {
          "internalType": "address",
          "name": "",
          "type": "address"
        },
        {
          "internalType": "uint256",
          "name": "",
          "type": "uint256"
        },
        {
          "internalType": "uint256",
          "name": "",
          "type": "uint256"
        },
        {
          "internalType": "bytes",
          "name": "",
          "type": "bytes"
        }
      ],
      "name": "onERC1155Received",
      "outputs": [
        {
          "internalType": "bytes4",
          "name": "",
          "type": "bytes4"
        }
      ],
      "stateMutability": "pure",
      "type": "function"
    },
    {
      "inputs": [
        {
          "internalType": "address",
          "name": "",
          "type": "address"
        },
        {
          "internalType": "address",
          "name": "",
          "type": "address"
        },
        {
          "internalType": "uint256",
          "name": "",
          "type": "uint256"
        },
        {
          "internalType": "bytes",
          "name": "",
          "type": "bytes"
        }
      ],
      "name": "onERC721Received",
      "outputs": [
        {
          "internalType": "bytes4",
          "name": "",
          "type": "bytes4"
        }
      ],
      "stateMutability": "pure",
      "type": "function"
    },
    {
      "inputs": [],
      "name": "owner",
      "outputs": [
        {
          "internalType": "address",
          "name": "",
          "type": "address"
        }
      ],
      "stateMutability": "view",
      "type": "function"
    },
    {
      "inputs": [],
      "name": "proxiableUUID",
      "outputs": [
        {
          "internalType": "bytes32",
          "name": "",
          "type": "bytes32"
        }
      ],
      "stateMutability": "view",
      "type": "function"
    },
    {
      "inputs": [
        {
          "internalType": "bytes4",
          "name": "interfaceId",
          "type": "bytes4"
        }
      ],
      "name": "supportsInterface",
      "outputs": [
        {
          "internalType": "bool",
          "name": "",
          "type": "bool"
        }
      ],
      "stateMutability": "view",
      "type": "function"
    },
    {
      "inputs": [
        {
          "internalType": "address",
          "name": "",
          "type": "address"
        },
        {
          "internalType": "address",
          "name": "",
          "type": "address"
        },
        {
          "internalType": "address",
          "name": "",
          "type": "address"
        },
        {
          "internalType": "uint256",
          "name": "",
          "type": "uint256"
        },
        {
          "internalType": "bytes",
          "name": "",
          "type": "bytes"
        },
        {
          "internalType": "bytes",
          "name": "",
          "type": "bytes"
        }
      ],
      "name": "tokensReceived",
      "outputs": [],
      "stateMutability": "pure",
      "type": "function"
    },
    {
      "inputs": [
        {
          "internalType": "address",
          "name": "newImplementation",
          "type": "address"
        }
      ],
      "name": "upgradeTo",
      "outputs": [],
      "stateMutability": "nonpayable",
      "type": "function"
    },
    {
      "inputs": [
        {
          "internalType": "address",
          "name": "newImplementation",
          "type": "address"
        },
        {
          "internalType": "bytes",
          "name": "data",
          "type": "bytes"
        }
      ],
      "name": "upgradeToAndCall",
      "outputs": [],
      "stateMutability": "payable",
      "type": "function"
    },
    {
      "inputs": [
        {
          "components": [
            {
              "internalType": "address",
              "name": "sender",
              "type": "address"
            },
            {
              "internalType": "uint256",
              "name": "nonce",
              "type": "uint256"
            },
            {
              "internalType": "bytes",
              "name": "initCode",
              "type": "bytes"
            },
            {
              "internalType": "bytes",
              "name": "callData",
              "type": "bytes"
            },
            {
              "internalType": "uint256",
              "name": "callGasLimit",
              "type": "uint256"
            },
            {
              "internalType": "uint256",
              "name": "verificationGasLimit",
              "type": "uint256"
            },
            {
              "internalType": "uint256",
              "name": "preVerificationGas",
              "type": "uint256"
            },
            {
              "internalType": "uint256",
              "name": "maxFeePerGas",
              "type": "uint256"
            },
            {
              "internalType": "uint256",
              "name": "maxPriorityFeePerGas",
              "type": "uint256"
            },
            {
              "internalType": "bytes",
              "name": "paymasterAndData",
              "type": "bytes"
            },
            {
              "internalType": "bytes",
              "name": "signature",
              "type": "bytes"
            }
          ],
          "internalType": "struct UserOperation",
          "name": "userOp",
          "type": "tuple"
        },
        {
          "internalType": "bytes32",
          "name": "userOpHash",
          "type": "bytes32"
        },
        {
          "internalType": "uint256",
          "name": "missingAccountFunds",
          "type": "uint256"
        }
      ],
      "name": "validateUserOp",
      "outputs": [
        {
          "internalType": "uint256",
          "name": "validationData",
          "type": "uint256"
        }
      ],
      "stateMutability": "nonpayable",
      "type": "function"
    },
    {
      "inputs": [
        {
          "internalType": "address payable",
          "name": "withdrawAddress",
          "type": "address"
        },
        {
          "internalType": "uint256",
          "name": "amount",
          "type": "uint256"
        }
      ],
      "name": "withdrawDepositTo",
      "outputs": [],
      "stateMutability": "nonpayable",
      "type": "function"
    },
    {
      "stateMutability": "payable",
      "type": "receive"
    }
  ],
  "bytecode": {
    "object": "0x60c03461015f57601f6119ad38819003918201601f19168301916001600160401b038311848410176101645780849260209460405283398101031261015f57516001600160a01b038116810361015f573060805260a05260005460ff8160081c1661010a5760ff808216036100cf575b604051611832908161017b8239608051818181610455015281816108b601526109cc015260a0518181816105af015281816106640152818161071001528181610ac301528181610c2301528181610db60152818161102701526110780152f35b60ff90811916176000557f7f26b83ff96e1f2b6a682f133852f6798a09c465da95921460cefb3847402498602060405160ff8152a13861006f565b60405162461bcd60e51b815260206004820152602760248201527f496e697469616c697a61626c653a20636f6e747261637420697320696e697469604482015266616c697a696e6760c81b6064820152608490fd5b600080fd5b634e487b7160e01b600052604160045260246000fdfe6080604052600436101561001b575b361561001957600080fd5b005b60003560e01c806223de291461018257806301ffc9a714610179578063150b7a021461017057806318dfb3c7146101675780633659cfe61461015e5780633a871cdd146101555780634a58db191461014c5780634d44560d146101435780634f1ef2861461013a57806352d1902d146101315780638da5cb5b14610128578063b0d691fe1461011f578063b61d27f614610116578063bc197c811461010d578063c399ec8814610104578063c4d66de8146100fb578063d087d288146100f25763f23a6e610361000e576100ed610e2c565b61000e565b506100ed610d7e565b506100ed610c90565b506100ed610bf4565b506100ed610b64565b506100ed610af2565b506100ed610aac565b506100ed610a7e565b506100ed6109b8565b506100ed610863565b506100ed6106de565b506100ed610654565b506100ed61057b565b506100ed61042d565b506100ed610335565b506100ed6102aa565b506100ed61023b565b506100ed6101ce565b6001600160a01b0381160361019c57565b600080fd5b9181601f8401121561019c578235916001600160401b03831161019c576020838186019501011161019c57565b503461019c5760c036600319011261019c576101eb60043561018b565b6101f660243561018b565b61020160443561018b565b6001600160401b0360843581811161019c576102219036906004016101a1565b505060a43590811161019c576100199036906004016101a1565b503461019c57602036600319011261019c5760043563ffffffff60e01b811680910361019c57602090630a85bd0160e11b8114908115610299575b8115610288575b506040519015158152f35b6301ffc9a760e01b1490503861027d565b630271189760e51b81149150610276565b503461019c57608036600319011261019c576102c760043561018b565b6102d260243561018b565b6064356001600160401b03811161019c576102f19036906004016101a1565b5050604051630a85bd0160e11b8152602090f35b9181601f8401121561019c578235916001600160401b03831161019c576020808501948460051b01011161019c57565b503461019c57604036600319011261019c576001600160401b036004803582811161019c576103679036908301610305565b602492919293843590811161019c576103839036908401610305565b61038b61106e565b8083036103f45760005b83811061039e57005b6103cf6103b46103af83878a610f08565b610f26565b6103c96103c2848688610f65565b369161082c565b90611172565b60001981146103e057600101610395565b86601186634e487b7160e01b600052526000fd5b60405162461bcd60e51b81526020818601526013818801527277726f6e67206172726179206c656e6774687360681b6044820152606490fd5b503461019c57602036600319011261019c5760043561044b8161018b565b6001600160a01b037f000000000000000000000000000000000000000000000000000000000000000081169190610484308414156111ef565b6104a16000805160206117dd833981519152938285541614611250565b6104a9611192565b604051906104b6826107ab565b600082527f4910fdfa16fed3260ed0e7147f7cc6da11a60208b5b9406d12a635614ffd91435460ff16156104f0575050610019915061135e565b6020600491604094939451928380926352d1902d60e01b825286165afa6000918161054b575b506105385760405162461bcd60e51b8152806105346004820161130f565b0390fd5b6100199361054691146112b1565b6113ee565b61056d91925060203d8111610574575b61056581836107e1565b810190610e87565b9038610516565b503d61055b565b503461019c5760031960603682011261019c57600435906001600160401b03821161019c5761016090823603011261019c577f00000000000000000000000000000000000000000000000000000000000000006001600160a01b0316330361060f576105f061060b91602435906004016110ff565b6105fb604435610ed3565b6040519081529081906020820190565b0390f35b60405162461bcd60e51b815260206004820152601c60248201527f6163636f756e743a206e6f742066726f6d20456e747279506f696e74000000006044820152606490fd5b506000806003193601126106db577f00000000000000000000000000000000000000000000000000000000000000006001600160a01b031681813b156106db5760405163b760faf960e01b8152306004820152918290602490829034905af180156106ce575b6106c2575080f35b6106cb9061078b565b80f35b6106d6610e96565b6106ba565b80fd5b503461019c57600060403660031901126106db576004356106fe8161018b565b610706611192565b6001600160a01b037f0000000000000000000000000000000000000000000000000000000000000000811691839190833b156107705760449083604051958694859363040b850f60e31b855216600484015260243560248401525af180156106ce576106c2575080f35b8280fd5b50634e487b7160e01b600052604160045260246000fd5b6001600160401b03811161079e57604052565b6107a6610774565b604052565b602081019081106001600160401b0382111761079e57604052565b606081019081106001600160401b0382111761079e57604052565b90601f801991011681019081106001600160401b0382111761079e57604052565b6020906001600160401b03811161081f575b601f01601f19160190565b610827610774565b610814565b92919261083882610802565b9161084660405193846107e1565b82948184528183011161019c578281602093846000960137010152565b50604036600319011261019c5760043561087c8161018b565b6024356001600160401b03811161019c573660238201121561019c576108ac90369060248160040135910161082c565b6001600160a01b037f000000000000000000000000000000000000000000000000000000000000000081169291906108e6308514156111ef565b6109036000805160206117dd833981519152948286541614611250565b61090b611192565b7f4910fdfa16fed3260ed0e7147f7cc6da11a60208b5b9406d12a635614ffd91435460ff1615610941575050610019915061135e565b6020600491604094939451928380926352d1902d60e01b825286165afa60009181610998575b506109855760405162461bcd60e51b8152806105346004820161130f565b6100199361099391146112b1565b6114a7565b6109b191925060203d81116105745761056581836107e1565b9038610967565b503461019c57600036600319011261019c577f00000000000000000000000000000000000000000000000000000000000000006001600160a01b03163003610a13576040516000805160206117dd8339815191528152602090f35b60405162461bcd60e51b815260206004820152603860248201527f555550535570677261646561626c653a206d757374206e6f742062652063616c60448201527f6c6564207468726f7567682064656c656761746563616c6c00000000000000006064820152608490fd5b503461019c57600036600319011261019c5760005460405160109190911c6001600160a01b03168152602090f35b503461019c57600036600319011261019c576040517f00000000000000000000000000000000000000000000000000000000000000006001600160a01b03168152602090f35b503461019c57606036600319011261019c57600435610b108161018b565b6044356001600160401b03811161019c57600091610b3e610b36849336906004016101a1565b6103c261106e565b9060208251920190602435905af1610b54610ea3565b9015610b5c57005b602081519101fd5b503461019c5760a036600319011261019c57610b8160043561018b565b610b8c60243561018b565b6001600160401b0360443581811161019c57610bac903690600401610305565b505060643581811161019c57610bc6903690600401610305565b505060843590811161019c57610be09036906004016101a1565b505060405163bc197c8160e01b8152602090f35b503461019c57600036600319011261019c576040516370a0823160e01b815230600482015260209081816024817f00000000000000000000000000000000000000000000000000000000000000006001600160a01b03165afa908115610c83575b600091610c66575b50604051908152f35b610c7d9150823d81116105745761056581836107e1565b38610c5d565b610c8b610e96565b610c55565b503461019c57602036600319011261019c57600435610cae8161018b565b610cf260005491610cd660ff8460081c161580948195610d70575b8115610d50575b50610f8f565b82610ce9600160ff196000541617600055565b610d3757610ff2565b610cf857005b610d0861ff001960005416600055565b604051600181527f7f26b83ff96e1f2b6a682f133852f6798a09c465da95921460cefb384740249890602090a1005b610d4b61010061ff00196000541617600055565b610ff2565b303b15915081610d62575b5038610cd0565b6001915060ff161438610d5b565b600160ff8216109150610cc9565b503461019c57600036600319011261019c57604051631aab3f0d60e11b81523060048201526000602482015261060b906020816044817f00000000000000000000000000000000000000000000000000000000000000006001600160a01b03165afa908115610e1f575b600091610e01575b506040519081529081906020820190565b610e19915060203d81116105745761056581836107e1565b38610df0565b610e27610e96565b610de8565b503461019c5760a036600319011261019c57610e4960043561018b565b610e5460243561018b565b6084356001600160401b03811161019c57610e739036906004016101a1565b505060405163f23a6e6160e01b8152602090f35b9081602091031261019c575190565b506040513d6000823e3d90fd5b3d15610ece573d90610eb482610802565b91610ec260405193846107e1565b82523d6000602084013e565b606090565b80610edb5750565b600080808093338219f150610eee610ea3565b50565b50634e487b7160e01b600052603260045260246000fd5b9190811015610f19575b60051b0190565b610f21610ef1565b610f12565b35610f308161018b565b90565b903590601e198136030182121561019c57018035906001600160401b03821161019c5760200191813603831361019c57565b9091610f7e92811015610f82575b60051b810190610f33565b9091565b610f8a610ef1565b610f73565b15610f9657565b60405162461bcd60e51b815260206004820152602e60248201527f496e697469616c697a61626c653a20636f6e747261637420697320616c72656160448201526d191e481a5b9a5d1a585b1a5e995960921b6064820152608490fd5b6000805462010000600160b01b03601093841b1662010000600160b01b0319909116178082556001600160a01b03921c8216917f000000000000000000000000000000000000000000000000000000000000000016907f47e55c76e7a6f1fd8996a1da8008c1ea29699cca35e7bcd057f2dec313b6e5de9080a3565b60018060a01b03807f00000000000000000000000000000000000000000000000000000000000000001633149081156110ee575b50156110aa57565b606460405162461bcd60e51b815260206004820152602060248201527f6163636f756e743a206e6f74204f776e6572206f7220456e747279506f696e746044820152fd5b905060005460101c163314386110a2565b907f19457468657265756d205369676e6564204d6573736167653a0a333200000000600052601c52603c60002061116261115a60018060a01b03926111546103c28560005460101c1696610140810190610f33565b90611718565b9190916115f8565b160361116d57600090565b600190565b600091829182602083519301915af1611189610ea3565b9015610b5c5750565b6000543360109190911c6001600160a01b03161480156111e6575b156111b457565b60405162461bcd60e51b815260206004820152600a60248201526937b7363c9037bbb732b960b11b6044820152606490fd5b503033146111ad565b156111f657565b60405162461bcd60e51b815260206004820152602c60248201527f46756e6374696f6e206d7573742062652063616c6c6564207468726f7567682060448201526b19195b1959d85d1958d85b1b60a21b6064820152608490fd5b1561125757565b60405162461bcd60e51b815260206004820152602c60248201527f46756e6374696f6e206d7573742062652063616c6c6564207468726f7567682060448201526b6163746976652070726f787960a01b6064820152608490fd5b156112b857565b60405162461bcd60e51b815260206004820152602960248201527f45524331393637557067726164653a20756e737570706f727465642070726f786044820152681a58589b195555525160ba1b6064820152608490fd5b60809060208152602e60208201527f45524331393637557067726164653a206e657720696d706c656d656e7461746960408201526d6f6e206973206e6f74205555505360901b60608201520190565b803b15611393576000805160206117dd83398151915280546001600160a01b0319166001600160a01b03909216919091179055565b60405162461bcd60e51b815260206004820152602d60248201527f455243313936373a206e657720696d706c656d656e746174696f6e206973206e60448201526c1bdd08184818dbdb9d1c9858dd609a1b6064820152608490fd5b906113f88261135e565b6001600160a01b0382167fbc7cd75a20ee27fd9adebab32041f755214dbc6bffa90cc0225b39da2e5c2d3b600080a280511580159061149f575b61143a575050565b610eee916000806040519361144e856107c6565b602785527f416464726573733a206c6f772d6c6576656c2064656c65676174652063616c6c6020860152660819985a5b195960ca1b6040860152602081519101845af4611499610ea3565b91611546565b506000611432565b906114b18261135e565b6001600160a01b0382167fbc7cd75a20ee27fd9adebab32041f755214dbc6bffa90cc0225b39da2e5c2d3b600080a28051158015906114f25761143a575050565b506001611432565b1561150157565b60405162461bcd60e51b815260206004820152601d60248201527f416464726573733a2063616c6c20746f206e6f6e2d636f6e74726163740000006044820152606490fd5b91929015611566575081511561155a575090565b610f30903b15156114fa565b8251909150156115795750805190602001fd5b6040519062461bcd60e51b82528160208060048301528251908160248401526000935b8285106115bf575050604492506000838284010152601f80199101168101030190fd5b848101820151868601604401529381019385935061159c565b600511156115e257565b634e487b7160e01b600052602160045260246000fd5b611601816115d8565b806116095750565b611612816115d8565b6001810361165f5760405162461bcd60e51b815260206004820152601860248201527f45434453413a20696e76616c6964207369676e617475726500000000000000006044820152606490fd5b611668816115d8565b600281036116b55760405162461bcd60e51b815260206004820152601f60248201527f45434453413a20696e76616c6964207369676e6174757265206c656e677468006044820152606490fd5b806116c16003926115d8565b146116c857565b60405162461bcd60e51b815260206004820152602260248201527f45434453413a20696e76616c6964207369676e6174757265202773272076616c604482015261756560f01b6064820152608490fd5b90604181511460001461174257610f7e916020820151906060604084015193015160001a9061174c565b5050600090600290565b9291907f7fffffffffffffffffffffffffffffff5d576e7357a4501ddfe92f46681b20a083116117d05791608094939160ff602094604051948552168484015260408301526060820152600093849182805260015afa156117c3575b81516001600160a01b038116156117bd579190565b50600190565b6117cb610e96565b6117a8565b5050505060009060039056fe360894a13ba1a3210667c828492db98dca3e2076cc3735a920a3ca505d382bbca26469706673582212202f90d12f957e434869c8eef2ff6ce4b85f7f4094fbeb2196a9e731ca72946fc364736f6c63430008110033",
    "linkReferences": {}
  },
  "methodIdentifiers": {
    "addDeposit()": "4a58db19",
    "entryPoint()": "b0d691fe",
    "execute(address,uint256,bytes)": "b61d27f6",
    "executeBatch(address[],bytes[])": "18dfb3c7",
    "getDeposit()": "c399ec88",
    "getNonce()": "d087d288",
    "initialize(address)": "c4d66de8",
    "onERC1155BatchReceived(address,address,uint256[],uint256[],bytes)": "bc197c81",
    "onERC1155Received(address,address,uint256,uint256,bytes)": "f23a6e61",
    "onERC721Received(address,address,uint256,bytes)": "150b7a02",
    "owner()": "8da5cb5b",
    "proxiableUUID()": "52d1902d",
    "supportsInterface(bytes4)": "01ffc9a7",
    "tokensReceived(address,address,address,uint256,bytes,bytes)": "0023de29",
    "upgradeTo(address)": "3659cfe6",
    "upgradeToAndCall(address,bytes)": "4f1ef286",
    "validateUserOp((address,uint256,bytes,bytes,uint256,uint256,uint256,uint256,uint256,bytes,bytes),bytes32,uint256)": "3a871cdd",
    "withdrawDepositTo(address,uint256)": "4d44560d"
  },
  "id": 14
}