{
  "abi": [
    {
      "inputs": [
        {
          "internalType": "contract ENS",
          "name": "ensAddr",
          "type": "address"
        }
      ],
      "stateMutability": "nonpayable",
      "type": "constructor"
    },
    {
      "anonymous": false,
      "inputs": [
        {
          "indexed": true,
          "internalType": "address",
          "name": "controller",
          "type": "address"
        },
        {
          "indexed": false,
          "internalType": "bool",
          "name": "enabled",
          "type": "bool"
        }
      ],
      "name": "ControllerChanged",
      "type": "event"
    },
    {
      "anonymous": false,
      "inputs": [
        {
          "indexed": true,
          "internalType": "contract NameResolver",
          "name": "resolver",
          "type": "address"
        }
      ],
      "name": "DefaultResolverChanged",
      "type": "event"
    },
    {
      "anonymous": false,
      "inputs": [
        {
          "indexed": true,
          "internalType": "address",
          "name": "previousOwner",
          "type": "address"
        },
        {
          "indexed": true,
          "internalType": "address",
          "name": "newOwner",
          "type": "address"
        }
      ],
      "name": "OwnershipTransferred",
      "type": "event"
    },
    {
      "anonymous": false,
      "inputs": [
        {
          "indexed": true,
          "internalType": "address",
          "name": "addr",
          "type": "address"
        },
        {
          "indexed": true,
          "internalType": "bytes32",
          "name": "node",
          "type": "bytes32"
        }
      ],
      "name": "ReverseClaimed",
      "type": "event"
    },
    {
      "inputs": [
        {
          "internalType": "address",
          "name": "_owner",
          "type": "address"
        }
      ],
      "name": "claim",
      "outputs": [
        {
          "internalType": "bytes32",
          "name": "",
          "type": "bytes32"
        }
      ],
      "stateMutability": "nonpayable",
      "type": "function"
    },
    {
      "inputs": [
        {
          "internalType": "address",
          "name": "addr",
          "type": "address"
        },
        {
          "internalType": "address",
          "name": "_owner",
          "type": "address"
        },
        {
          "internalType": "address",
          "name": "resolver",
          "type": "address"
        }
      ],
      "name": "claimForAddr",
      "outputs": [
        {
          "internalType": "bytes32",
          "name": "",
          "type": "bytes32"
        }
      ],
      "stateMutability": "nonpayable",
      "type": "function"
    },
    {
      "inputs": [
        {
          "internalType": "address",
          "name": "_owner",
          "type": "address"
        },
        {
          "internalType": "address",
          "name": "resolver",
          "type": "address"
        }
      ],
      "name": "claimWithResolver",
      "outputs": [
        {
          "internalType": "bytes32",
          "name": "",
          "type": "bytes32"
        }
      ],
      "stateMutability": "nonpayable",
      "type": "function"
    },
    {
      "inputs": [
        {
          "internalType": "address",
          "name": "",
          "type": "address"
        }
      ],
      "name": "controllers",
      "outputs": [
        {
          "internalType": "bool",
          "name": "",
          "type": "bool"
        }
      ],
      "stateMutability": "view",
      "type": "function"
    },
    {
      "inputs": [],
      "name": "defaultResolver",
      "outputs": [
        {
          "internalType": "contract NameResolver",
          "name": "",
          "type": "address"
        }
      ],
      "stateMutability": "view",
      "type": "function"
    },
    {
      "inputs": [],
      "name": "ens",
      "outputs": [
        {
          "internalType": "contract ENS",
          "name": "",
          "type": "address"
        }
      ],
      "stateMutability": "view",
      "type": "function"
    },
    {
      "inputs": [
        {
          "internalType": "address",
          "name": "addr",
          "type": "address"
        }
      ],
      "name": "node",
      "outputs": [
        {
          "internalType": "bytes32",
          "name": "",
          "type": "bytes32"
        }
      ],
      "stateMutability": "pure",
      "type": "function"
    },
    {
      "inputs": [],
      "name": "owner",
      "outputs": [
        {
          "internalType": "address",
          "name": "",
          "type": "address"
        }
      ],
      "stateMutability": "view",
      "type": "function"
    },
    {
      "inputs": [],
      "name": "renounceOwnership",
      "outputs": [],
      "stateMutability": "nonpayable",
      "type": "function"
    },
    {
      "inputs": [
        {
          "internalType": "address",
          "name": "controller",
          "type": "address"
        },
        {
          "internalType": "bool",
          "name": "enabled",
          "type": "bool"
        }
      ],
      "name": "setController",
      "outputs": [],
      "stateMutability": "nonpayable",
      "type": "function"
    },
    {
      "inputs": [
        {
          "internalType": "address",
          "name": "resolver",
          "type": "address"
        }
      ],
      "name": "setDefaultResolver",
      "outputs": [],
      "stateMutability": "nonpayable",
      "type": "function"
    },
    {
      "inputs": [
        {
          "internalType": "string",
          "name": "name",
          "type": "string"
        }
      ],
      "name": "setName",
      "outputs": [
        {
          "internalType": "bytes32",
          "name": "",
          "type": "bytes32"
        }
      ],
      "stateMutability": "nonpayable",
      "type": "function"
    },
    {
      "inputs": [
        {
          "internalType": "address",
          "name": "addr",
          "type": "address"
        },
        {
          "internalType": "address",
          "name": "_owner",
          "type": "address"
        },
        {
          "internalType": "address",
          "name": "resolver",
          "type": "address"
        },
        {
          "internalType": "string",
          "name": "name",
          "type": "string"
        }
      ],
      "name": "setNameForAddr",
      "outputs": [
        {
          "internalType": "bytes32",
          "name": "",
          "type": "bytes32"
        }
      ],
      "stateMutability": "nonpayable",
      "type": "function"
    },
    {
      "inputs": [
        {
          "internalType": "address",
          "name": "newOwner",
          "type": "address"
        }
      ],
      "name": "transferOwnership",
      "outputs": [],
      "stateMutability": "nonpayable",
      "type": "function"
    }
  ],
  "bytecode": {
    "object": "0x60a060409080825234620001b2578062000e2b8038038091620000238285620001b7565b8339602092839181010312620001b25751906001600160a01b03808316808403620001b25782600094602486543360018060a01b0319821617885588519485938492883391167f8be0079c531659141344cd1fd0a4f28419497f9722a3daafe3b4186f6b6457e08c80a36080526302571be360e01b82527f91d1777781884d03a6757a803996e38de2a42967fb37eeaca72729271025a9e260048301525afa908115620001a857849162000167575b50168062000101575b8351610c399081620001f282396080518181816101db0152818161097f0152610a940152f35b8183916024865180948193630f41a04d60e11b83523360048401525af180156200015d5715620000db57813d831162000155575b620001418183620001b7565b8101031262000152578080620000db565b80fd5b503d62000135565b84513d85823e3d90fd5b90508281813d8311620001a0575b620001818183620001b7565b810103126200019c575181811681036200019c5738620000d2565b8380fd5b503d62000175565b85513d86823e3d90fd5b600080fd5b601f909101601f19168101906001600160401b03821190821017620001db57604052565b634e487b7160e01b600052604160045260246000fdfe60806040526004361015610013575b600080fd5b60003560e01c80630f5a54661461012b5780631e83409a146101225780633f15457f146101195780636566963114610110578063715018a6146101075780637a806d6b146100fe578063828eab0e146100f55780638da5cb5b146100ec578063bffbe61c146100e3578063c47f0027146100da578063c66485b2146100d1578063da8c229e146100c8578063e0dba60f146100bf5763f2fde38b146100b757600080fd5b61000e6106b4565b5061000e61062e565b5061000e6105e1565b5061000e610515565b5061000e6104cb565b5061000e61043e565b5061000e610414565b5061000e6103ea565b5061000e610385565b5061000e61024b565b5061000e61020a565b5061000e6101c4565b5061000e610183565b5061000e610145565b6001600160a01b0381160361000e57565b503461000e57604036600319011261000e57602061017b60043561016881610134565b6024359061017582610134565b336108a6565b604051908152f35b503461000e57602036600319011261000e57602061017b6004356101a681610134565b6002546001600160a01b031690336108a6565b600091031261000e57565b503461000e57600036600319011261000e576040517f00000000000000000000000000000000000000000000000000000000000000006001600160a01b03168152602090f35b503461000e57606036600319011261000e57602061017b60043561022d81610134565b60243561023981610134565b6044359161024683610134565b6108a6565b503461000e576000806003193601126102a75761026661077c565b80546001600160a01b03198116825581906001600160a01b03167f8be0079c531659141344cd1fd0a4f28419497f9722a3daafe3b4186f6b6457e08280a380f35b80fd5b50634e487b7160e01b600052604160045260246000fd5b67ffffffffffffffff81116102d557604052565b6102dd6102aa565b604052565b6060810190811067ffffffffffffffff8211176102d557604052565b90601f8019910116810190811067ffffffffffffffff8211176102d557604052565b81601f8201121561000e5780359067ffffffffffffffff8211610378575b60405192610356601f8401601f1916602001856102fe565b8284526020838301011161000e57816000926020809301838601378301015290565b6103806102aa565b61033e565b503461000e57608036600319011261000e576004356103a381610134565b602435906103b082610134565b604435906103bd82610134565b6064359167ffffffffffffffff831161000e576020936103e461017b943690600401610320565b92610b22565b503461000e57600036600319011261000e576002546040516001600160a01b039091168152602090f35b503461000e57600036600319011261000e576000546040516001600160a01b039091168152602090f35b503461000e57602036600319011261000e57602061046660043561046181610134565b610bb5565b60405190828201907f91d1777781884d03a6757a803996e38de2a42967fb37eeaca72729271025a9e28252604083015260408252606082019180831067ffffffffffffffff8411176104be575b826040525190208152f35b6104c66102aa565b6104b3565b503461000e57602036600319011261000e5760043567ffffffffffffffff811161000e5761017b6105026020923690600401610320565b6002546001600160a01b03163380610b22565b503461000e57602036600319011261000e5760043561053381610134565b61053b61077c565b6001600160a01b0316801561058357600280546001600160a01b031916821790557feae17a84d9eb83d8c8eb317f9e7d64857bc363fa51674d996c023f4340c577cf600080a2005b60405162461bcd60e51b815260206004820152603060248201527f526576657273655265676973747261723a205265736f6c76657220616464726560448201526f07373206d757374206e6f7420626520360841b6064820152608490fd5b503461000e57602036600319011261000e576004356105ff81610134565b60018060a01b03166000526001602052602060ff604060002054166040519015158152f35b8015150361000e57565b503461000e57604036600319011261000e5760043561064c81610134565b7f4c97694570a07277810af7e5669ffd5f6a2d6b74b6e9a274b8b870fd5114cf8760206024359261067c84610624565b61068461077c565b60018060a01b031692836000526001825260406000209015159060ff1981541660ff8316179055604051908152a2005b503461000e57602036600319011261000e576004356106d281610134565b6106da61077c565b6001600160a01b03908116801561072857600080546001600160a01b03198116831782559092167f8be0079c531659141344cd1fd0a4f28419497f9722a3daafe3b4186f6b6457e08380a380f35b60405162461bcd60e51b815260206004820152602660248201527f4f776e61626c653a206e6577206f776e657220697320746865207a65726f206160448201526564647265737360d01b6064820152608490fd5b6000546001600160a01b0316330361079057565b606460405162461bcd60e51b815260206004820152602060248201527f4f776e61626c653a2063616c6c6572206973206e6f7420746865206f776e65726044820152fd5b9081602091031261000e57516107e981610624565b90565b506040513d6000823e3d90fd5b9081602091031261000e57516107e981610134565b1561081557565b60405162461bcd60e51b815260206004820152605b60248201527f526576657273655265676973747261723a2043616c6c6572206973206e6f742060448201527f6120636f6e74726f6c6c6572206f7220617574686f726973656420627920616460648201527f6472657373206f7220746865206164647265737320697473656c660000000000608482015260a490fd5b6107e99291906108db336001600160a01b038084169182149182156109f4575b8215610952575b82156108e0575b505061080e565b610a0e565b604051638da5cb5b60e01b8152919250602090829060049082905afa908115610945575b600091610917575b5016331438806108d4565b610938915060203d811161093e575b61093081836102fe565b8101906107f9565b3861090c565b503d610926565b61094d6107ec565b610904565b60405163e985e9c560e01b81526001600160a01b03861660048201523360248201529092506020816044817f000000000000000000000000000000000000000000000000000000000000000086165afa9081156109e7575b6000916109b9575b50916108cd565b6109da915060203d81116109e0575b6109d281836102fe565b8101906107d4565b386109b2565b503d6109c8565b6109ef6107ec565b6109aa565b3360009081526001602052604090205460ff1692506108c6565b610a1781610bb5565b60405190602082017f91d1777781884d03a6757a803996e38de2a42967fb37eeaca72729271025a9e29283825282604082015260408152610a57816102e2565b519020946040519460018060a01b03928784600097167f6ada868dd3058cf77a48a74489fd7963688e5464b2b0fa957ace976243270e928880a3837f00000000000000000000000000000000000000000000000000000000000000001694853b15610b1e576305ef2c7f60e41b8852600488015260248701528216604486015216606484015260848301829052829060a490829084905af18015610b11575b610afe575090565b80610b0b6107e9926102c1565b806101b9565b610b196107ec565b610af6565b8680fd5b91610b2f918194936108a6565b916001600160a01b0316803b1561000e576040518092637737221360e01b82528460048301526040602483015280519081604484015260005b828110610b9d57505091816000606482868383819984010152601f801991011681010301925af18015610b1157610afe575090565b60208282018101516064888401015286945001610b68565b6028805b610bc7575050602860002090565b6f181899199a1a9b1b9c1cb0b131b232b360811b91600f9182821684901a600019820153600119019283928260041c161a825360081c91610bb956fea2646970667358221220dcb5397e491efc9a52693004096f0dfdec8586f91fe946c89a49b06200da2ab564736f6c63430008110033",
    "linkReferences": {}
  },
  "methodIdentifiers": {
    "claim(address)": "1e83409a",
    "claimForAddr(address,address,address)": "65669631",
    "claimWithResolver(address,address)": "0f5a5466",
    "controllers(address)": "da8c229e",
    "defaultResolver()": "828eab0e",
    "ens()": "3f15457f",
    "node(address)": "bffbe61c",
    "owner()": "8da5cb5b",
    "renounceOwnership()": "715018a6",
    "setController(address,bool)": "e0dba60f",
    "setDefaultResolver(address)": "c66485b2",
    "setName(string)": "c47f0027",
    "setNameForAddr(address,address,address,string)": "7a806d6b",
    "transferOwnership(address)": "f2fde38b"
  },
  "id": 106
}